:1040000008100020A1880000612002004342000047
:104010004342000069200200712002004342000078
:10402000434200004342000043420000434200007C
:10403000752002005C02030043420000434200007E
:104040004342000043420000434200009D6F0000D5
:10405000434200004342000043420000434200004C
:1040600043420000434200003DBD0000B199000002
:1040700041990000434200004342000043420000D7
:10408000434200004342000043420000434200001C
:104090004342000015440000434200004342000038
:1040A00043420000554300003543000043420000F6
:1040B000434200004342000043420000BD81020031
:1040C0009D9F0200999F020021790200B39F020088
:1040D000A19F02007D810200A59F0200B56402003D
:1040E000FD810200434200004342000043420000C1
:1040F00043420000434200004342000043420000AC
:10410000434200004342000043420000434200009B
:10411000434200004342000043420000434200008B
:10412000434200004342000043420000434200007B
:044130004342000006
:10413400F0B5114A114C124E00F00105E3695F0716
:1041440013D40DB9334213D103EA00078F4207D1C8
:104154000B4A1A40002A0CBF00206FF00100F0BD8A
:10416400013AEBD16FF00200F9E74FF0FF30F6E7C8
:104174006FF00100F3E700BF809698000000035041
:10418400020001002DE9F84F264D1646EB69012285
:1041940003F4803841F671330746EB63224BDFF8B2
:1041A4009090DA600EB9304629E007F5005404EA2D
:1041B40009046F61E41BEB69B44228BF34465B0712
:1041C4002DD48B465BF8043B01EB040AAB61D34569
:1041D4000ED10423002121202B61FFF7A9FF70B920
:1041E4002120FFF7A5FF50B959462744361BD9E7CC
:1041F40008210846FFF79CFF68B104232B610122C4
:104204000A4BDA60B8F1000F03D00022A3F5005383
:10421400DA63BDE8F88F5BF8043BAB61D7E74FF096
:10422400FF30ECE70000035000100350002003505F
:0442340000E0FFFFA8
:1042380070477047704770477047FEE770B50D4E7E
:10424800451E013915F8014F2346325D02F003027D
:10425800012A11F8012F08BF04F12003B05C00F017
:104268000300012808BF2032981A01D1002CE9D197
:1042780070BD00BF6D65030003681878704710B5FE
:1042880003681A78022A1ED09A79022A19D1597914
:104298000F2916DCEFF31184302282F311880122F2
:1042A80009488A40C0F82024C0F824240C20074A72
:1042B80000FB01220021C2E9011184F31188BFF338
:1042C8006F8F02221A7010BD00E003500810002002
:1042D8002DE9F04104460C264FF00108124D0CB3AD
:1042E80014F001000BD0002024F0010406FB00525A
:1042F8005768002FF3D09168C0B2B847EFE722465D
:10430800013020284FEA520201D0D307F8D508FA25
:1043180000F20F2824EA0204E8D9103806FB0052FC
:10432800B432E5E7BDE8F08108100020064BD3F869
:104338002404D3F8202403F50053104000F055302E
:10434800C3F82004C4E700BF00C00350064BD3F8ED
:104358002404D3F8202403F50053104000F0AA30B9
:10436800C3F82004B4E700BF00C0035010B50378B9
:10437800EBB15A1ED2B2022A18D80E498A5C40788C
:10438800C240D20712D5EFF31184302181F311888E
:1043980001224B4343F2100103F1A043824003F58D
:1043A80070335A5084F31188BFF36F8F10BD7F228A
:1043B800E5E700BF2CFD020002461378002030B567
:1043C80003B3591EC9B2022917D80F4C615C54783F
:1043D800E140C90711D5EFF31185302181F3118828
:1043E8004B4303F1A04303F570331B69E34003F02B
:1043F800010085F31188BFF36F8F93780BB980F0B4
:10440800010030BD7F21E2E72CFD02001A4B2DE9A7
:10441800F0411F6D5B6D1F4000D5FEE701260025AA
:10442800164CDFF8608037421CD0C8F8506023680B
:10443800C3B1A168284601316268A1609847637BCF
:10444800012B0FD170B90E4B03EB451393F8F421F0
:1044580060F3410283F8F42193F8042260F34102E7
:1044680083F804220135082D4FEA460604F11004AA
:10447800D9D1BDE8F08100BF0000045070110020C0
:10448800081000200020045010B5EFF311843023E9
:1044980083F3118800220E490B7B73B90D49026022
:1044A80001EB02120121C2F8683182F8741184F319
:1044B8001188BFF36F8F184610BD0132082A01F129
:1044C8001001E9D184F31188BFF36F8F0248F3E735
:1044D8007011002008100020048000F04369406C2F
:1044E800DA1C1438B2FBF0F203EBC203CA1DB2FBAC
:1044F800F0F20333B3FBF0F30132023301EBC201F4
:1045080000FB0310704738B5054644692146FFF79C
:10451800E5FF6A6CE31D143AB3FBF2F3013304EBD5
:10452800C304204438BD73B506460D460024F36B1A
:1045380001225B6901A928199847019B013309D118
:10454800736C043462196A405B421A42EFD0204609
:1045580002B070BD0024FAE7D01E009B42424241DF
:10456800187E824211D11A688A420ED85A688A4245
:104578000BD35A6901325A61D3E9030282423FBF21
:10458800986840F8221001321A6101207047002310
:104598004FF0FF3230B544689C4202D100230372C9
:1045A80030BD016801EBC30541F833206A6001336F
:1045B800F2E70023F0B545689D4210D00468DF009B
:1045C80054F8332004EBC306B2F1FF3F08D0C2F31E
:1045D8001302914204D14FF0FF33E3517360F0BDF1
:1045E8000133E9E710B5032A029C07D1A26A5340B8
:1045F800626C5242134201D1FFF7DBFF012010BD6C
:104608000023F0B545689D4202D14FF0FF300EE01F
:104618000468DE0054F83340671C09D0C4F313075C
:10462800B94205D1240D1470036833445868F0BDAD
:104638000133E8E773B5164600F108040D46204635
:1046480009680DF10702FFF7DBFF032E05D16B6840
:10465800834202D12046FFF7ACFF012002B070BDB3
:104668002DE9F043466886B3056898464FF0000C7C
:10467800A946AE4655F83C400CF1010CC4F31307AB
:10468800013401D0B94217D066450EF1080EF1D1B8
:104698002F46002403E0A64207F1080712D055F878
:1046A800343001340133F6D1C1F3130141EA085122
:1046B800C7E90012BDE8F08341EA0851CEE90012CB
:1046C800BDE8F083B8F1030F03D101230372BDE8FD
:1046D800F083002303E09E4209F10809F5D055F85C
:1046E80033400133C4F30754032CF4D1C1F313034B
:1046F80043EA0853C9E90032BDE8F08308B5083039
:104708001346D1E90012FFF7ABFF012008BD41F6BF
:104718007132044B0020DA63012203F50053DA609A
:10472800704700BF0000035041F671320121044B6D
:10473800DA6303F50052D1600022DA63704700BFE4
:104748000000035037B5054601F10C04436901A97F
:10475800012220469847BDF804300122009369469B
:104768002046AB69984703B030BD134B10B50446DB
:10477800D3F8200100F00700042816D8DFE800F07D
:1047880003090D111800012304B1206001B10B6069
:1047980010BD0A4B18680423F6E7084B5868032332
:1047A800F2E725F035FD0523EEE700231846EBE791
:1047B80002230348E8E700BF00800050AC3800201F
:1047C800002D3101F0B53B4A936DD903FCD4D0E9F3
:1047D80000131B0543EA0163C17B90F820500B438B
:1047E800017BC77E43EA0143417B6D0143EA013304
:1047F800817B43EA811313619169D0E904431B0665
:1048080043EA846301F000410B43817E90F8234022
:104818000B43017E43EA0143417E43EA012393614E
:10482800136AC66923F00D0390F8221043EA870340
:1048380066BB1362966A90F8213045EA031326F0A6
:1048480033052B4343F0010393621B4D194A936DC3
:1048580035EA0303FBD10225184B9D62936D5B007B
:10486800FCD41369856823F4700343EA0553136184
:104878004FF00042114B9A6119B9022203F5805397
:104888009A627CB901220E4B9A620BE0334343F0E3
:1048980008031362936A23F0330323432B4343EA49
:1048A8004103936290F824301BB1024B054AC3F8C8
:1048B8008020F0BD00C000500300014000D000502F
:1048C80000E00050F1A7FFFF2DE9F84341F67133EE
:1048D8004FF001081E4D0446EF69EB631D4B0021A4
:1048E800C3F80C800223686121202B6127F080FA2D
:1048F800DFF86890064607F4803740B1C9F80C80A5
:1049080007B1E96301360CD16E20BDE8F883212098
:1049180027F06EFAC9F80C8007B1EE63431CF3D098
:1049280008B17120F1E70C4B9A6801230A3202F0B2
:104938001F02934023F0030323449C4201D100202B
:10494800E3E754F8042B0132F7D03E20DDE700BF3F
:1049580000000350001003500080E00F00200350B7
:104968002DE9F04F80460F4615469A46044685B015
:10497800DDF83CB0DDF84490206808B3DBF800604F
:10498800DAF800108E421BDA0E9B53F8261059B342
:10499800FFF754FC40BB61680136CBF80060087B28
:1049A800FE281CD1109B0868CDE901B30E9B2A464E
:1049B800009301215346CDF80C90FFF7D1FF044630
:1049C8002B7843B999F800302BB97FB101234446BD
:1049D80089F800302B70204605B0BDE8F08F012320
:1049E800109A13702B70EBE70C34C5E73C46F2E7DE
:1049F8000023F0B50B6013600646D0F8AC0278B11E
:104A080096F8AC0060B1012406F1AC07D6F8AC0208
:104A1800844210D306F1AC00B3F5007F10D3012017
:104A2800F0BD0D6801350D60156801351560F85C3D
:104A380001330A2802D0B3F5007FF2D30134E5E749
:104A4800C15C0A29EBD00029E9D011680133013192
:104A58001160E1E738B5202204460D460C300021EC
:104A680025F08BFB4FF0FF33C4E90035A36038BD58
:104A780010B54C1C0B460119045D222C03D07B2C6D
:104A880001D05C2C05D1D21A184425F0A2FB0120D4
:104A980010BD0020FCE710B5044644EA010313F0FA
:104AA8000303084609D1934201D1002010BD54F8F0
:104AB800231040F823100133F5E72146920025F032
:104AC8003FFBF2E710B50446AC3025F07AFB04F161
:104AD800AB031A180020934200D110BD13F8011F30
:104AE8000029FAD00A2908BF0130F4E72DE9F04778
:104AF80005469146884625F064FB2A460646134635
:104B0800197801322029FAD0C9F800305C1B01233A
:104B18006FF0404AC8F80030A64201D8002014E0DF
:104B28002F5D29197B2F12D0222F2ED1D8F80030D3
:104B3800621C53442A4449F82320012C09D911F84E
:104B4800013C13F0DF0F04D02120BDE8F0877D275A
:104B5800F3E701342B5DBB4209D12B195B7813F0C5
:104B6800DF03F1D1222F00D12B550134D4E75C2B80
:104B780007D1324621462846FFF77AFF0028E3D0BE
:104B8800013E0134A642E5D8DEE75C2F08D1324663
:104B980021462846FFF76CFF0028D5D0013EE4E700
:104BA800202FE2D10022631C9E420A70DDD9EA1848
:104BB800EB5C202BD9D0D8F800300F2B05DC49F856
:104BC80023200133C8F80030CFE71E20BDE71FB50A
:104BD80000239A6AB2F5804F19D2146BB4F5804F4E
:104BE80015D201A8CDE9023318F070FD039BDB0351
:104BF8000DD5029B1A0E0AD0012A03D1C3F307432D
:104C08000A2B04D9236C04B0BDE81040184740F2C1
:104C1800011004B010BD012307B502468DF8043019
:104C28000221032001AB18F0B7FB03B05DF804FBC9
:104C3800022307B502468DF804300021032001AB9A
:104C480018F0AAFB03B05DF804FB0246002301211B
:104C5800032018F0A1BB002302461946184618F095
:104C68009BBB40F2011307B50246ADF80430402162
:104C7800032001AB18F090FB03B05DF804FB13B5FB
:104C88000C68A388ADF804302378022B09D00DF105
:104C9800030101A81CF0B0FF9DF8033083F0010365
:104CA800237002B010BD13B50468A388ADF80430B2
:104CB8002378022B15D00DF1030101A81CF09CFFED
:104CC800A2799DF80330012A13D1618843EA410390
:104CD8004FF6E07163F03F039BB28B4203D1227021
:104CE800638002B010BD4FF6DF729342F8D1002204
:104CF800F5E7002AF5D183F001032370F1E7F8B551
:104D08000B780446302B0D46164604D14B7803F039
:104D1800DF03582B10D0274F6A1E12F8011F91BBD2
:104D280028460A2224F04EFB202C03460D462FD19C
:104D3800B1FA81F040091BE04A1C1E4912F8013FF4
:104D480093B9284625F03DFA04F00303032BA0F19C
:104D5800020012D10134A41084420AD1A87837285D
:104D68008CBF0020012003E0CB5C13F04400E5D1A8
:104D7800F8BDCCBF01200020FAE7B0EBA40FD4BFE8
:104D880001200020F4E77B5C13F00400C5D1EFE7B5
:104D980026B1084302D0013B61F100050122A2407F
:104DA800013A1A40002D08BF9A420CBF012000208A
:104DB800DEE700BF6D6503000A7801382D2A0ABFB7
:104DC8000122002289189AE70FB407B504A951F8FF
:104DD800040B01911BF020FB002003B05DF804EBED
:104DE80004B0704770B506460D4625F0EAF904464A
:104DF8003046FFF7E9FF044EAC4200D370BD3046A1
:104E0800FFF7E2FF0134F7E7923403002DE9F84F8A
:104E1800044602216048FFF7E5FF1E212068FFF7DE
:104E2800E1FF63685868FFF7CFFF5C48FFF7CCFFE6
:104E380067683B7BFD2B12D8D7F808804FF0FF340A
:104E4800404625F0BEF90646DFF84C91DFF8A8A1E8
:104E5800DFF864B10C3717F8013BFF2B01D1BDE82F
:104E6800F88F212B14D8212B14D8DFE803F0178CE6
:104E78008884807C78741313131313131313706CC2
:104E88006864605C58541313131313131313504CB2
:104E9800FE2B34D006B10134414D02E006B1013495
:104EA800404D02214846FFF79DFF1E214846FFF767
:104EB80099FF5046FFF788FF5946284625F065F9BF
:104EC8003949002818BF29463848FFF77DFF3B7845
:104ED800202B02D12B201CF059FD3548FFF774FF19
:104EE8004EB118F804301F2B05D018F804001F28FD
:104EF80001D0B4424BDB2948FFF766FFABE706B1A8
:104F080001342C4DCDE706B101342B4DC9E7002EF5
:104F1800A1D001349FE706B10134284DC1E706B19D
:104F28000134274DBDE706B10134264DB9E706B176
:104F38000134254DB5E706B10134244DB1E706B17A
:104F48000134234DADE706B10134224DA9E706B17E
:104F58000134214DA5E706B10134204DA1E706B182
:104F680001341F4D9DE706B101341E4D99E706B186
:104F780001341D4D95E706B101341C4D91E706B18A
:104F880001341B4D8DE706B101341A4D89E71CF039
:104F9800FDFC0134A9E700BF88BE0200751C0300B0
:104FA80015BE02000FBE02006CBE020022230300E1
:104FB8005D3603001DBE020023BE02002CBE0200A7
:104FC80033BE02003EBE020048BE020052BE0200CE
:104FD8003DBE020047BE020051BE02005ABE02009A
:104FE8005EBE020066BE020009BE020010BE0200DC
:104FF80065BE020008BE0200F234030010B5044684
:10500800236803B910BD237A13B92046FFF7FEFEC3
:105018000C34F5E72DE9F04FC5B034AE0A903246AE
:1050280008460EA9FFF762FD054638BB34998DF88E
:1050380090000D908DF832008DF8330011B3A4481C
:10504800FFF7FCF8F0B901240D940A9B0020D3F86F
:105058009C700DF13309B8460DF1320AB8F1000F12
:1050680012D114B101238DF833309DF8332052B397
:105078009DF8323020B3DBB1FFF7C8FE284645B0B3
:10508800BDE8F08F2C46E0E7D8F8080068B10DAB12
:10509800CDE9006300210EABCDE902A924AAFFF7F0
:1050A8005FFC9DF89030002BDBD1D8F80080D5E765
:1050B800FFF7A4FFE2E7B86808B1FFF79FFF3F6872
:1050C800002FF8D1DAE7002800F052810E9B0693F2
:1050D8000D9B08930899069B8B42C0F24B811146A1
:1050E800436807930B335F78581CFF2F27D1079825
:1050F8001B1A08980B3B034400292CD0069A013B45
:105108009A422DDB4FF0000B5A465C46079B0DF187
:1051180050090C330593CDF810B0069B5B4521DC94
:105128000A9B0FA80F930E9B109314AB11930D9B22
:105138001293059B1393079B1B6898479EE7172FAD
:1051480004D8102F28BF01220346CCE7203F012FA7
:1051580098BF0121F8E7002AD0D1069A9A42D1D007
:105168002B258BE7089B5B450DDD002A40F0FE8070
:1051780006273368C9F8003000220BF1010B04360A
:1051880009F10409C9E7DDE904135B5C202B1DD193
:10519800059B0B445B78FF2BE2D1FAB9D6F8008067
:1051A800072F00F2C88001A353F827F0115200001E
:1051B8003F5200006152000081520000A1520000DD
:1051C800C152000079510000DD520000212B0AD1A4
:1051D800DDE9042313445B78FF2BC1D13368012236
:1051E800C9F80030C9E7A3F11007072F04D90499BB
:1051F8001F4601310491D0E7DDE904130B445B78C5
:10520800FF2BADD1FFB2C8E7002241460820FFF7C7
:1052180076FD002800F08F8000223068114624F0C7
:1052280033F824AB03EB8402C0B243F82400C9F876
:1052380000200134A0E7002241461020FFF75FFD5F
:10524800002878D000223068114624F01DF824ABDD
:1052580003EB840280B2E8E7002241462020FFF7F2
:105268004EFD002867D000223068114624F00CF863
:1052780024AB03EB8402D8E741460820FFF79CFDE6
:10528800002858D000223068114623F081FF24AB53
:1052980003EB840240B2C8E741461020FFF78CFDBB
:1052A800002848D000223068114623F071FF24AB53
:1052B80003EB840200B2B8E741462020FFF77CFDEB
:1052C800002838D000223068114623F061FFCFE76C
:1052D8006EBE020098F800307B2B2CD14146022389
:1052E8004FF0000A2448CDF8248011F8012F7D2AB8
:1052F80016D118F80330F3B91AF0010A1BD1534636
:105308008DF83EA0099911F8012F7D2A099114D131
:1053180088F800301B0A88F80130C9F800802BE7AC
:1053280010F802C01CF0440F03D00AF1010A01333F
:10533800DBE7202AFBD02625A0E6202AE2D00AF0C7
:1053480001010AF1010A11B98DF83C20DAE78DF85C
:105358003D20002110220FA80B9323F019FF0B9B6F
:1053680008EB0302013390709BB2CBE7062735E7C1
:105378002D2583E6212581E66D6503002DE9F04F93
:1053880000218346ADF5477D7C2207A8069124F0CD
:10539800F4FE584624F015FF46AA019026A958465F
:1053A800FFF7A4FB0446B0BB469824F00AFFA046CA
:1053B8000546A1462746DBF89C6086BBB8F1010F7D
:1053C80040F0D18006A824F0FCFE05EB040805F1A6
:1053D8001803471B27EAE7750BEB08090DEB0304D5
:1053E8002A462146484624F0ABFE09F80560DBF85A
:1053F8009050A845DBF8902000F3A580DBF89410C6
:105408003A443944CBF89410CBF8902027443B1BFE
:10541800002B00F3A3800DF5477DBDE8F08FD6F88B
:1054280008A0BAF1000F61D05F4417F8012B202AB9
:1054380014D000270C2303FB07F20AEB02030293A4
:105448005AF802300093002B4AD0269B99450493C2
:1054580046DC029B1A7A1AB17A1C2FE00134E4E781
:1054680046AADBF8945052F829302D1B2A461846D4
:105478000099039324F093FE05900028ECD100983E
:1054880024F09FFE029B01465868059A90F80CC0CC
:10549800BCF1FE0F16D1049B03F1FF3CE14527D078
:1054A800D0F800A00398009224F08BFE0134009AF3
:1054B80004441BF8041019B109F101091746B9E7AA
:1054C8000134F6E78D42C7DC06A8029124F079FE84
:1054D800029908447B2819D9734906A818F09CF941
:1054E8005A46019B03EB0B018A4223D1366864E7D5
:1054F8008D42E9DD14464FF00C0A05680AFB04F2F8
:10550800A95871B9A0440D46019CE9E7009906A87D
:1055180018F082F9654906A808F1010818F07CF925
:105528009AE706A818F078F9604906A818F074F9FF
:105538000134E3E712F8010B0028D5D14FF020031E
:1055480002F8013CD0E71BF802001CF01FFADBF858
:10555800902001350132CBF890204AE714F8010B6E
:105568001CF014FA53E77FF756AF26AF8022314676
:1055780038460DF58C7A24F000FE4FF4007231465F
:10558800504624F0FAFD06AB1A464FF0010912F80E
:10559800018BB8F1000F4AD118464AF829600093E8
:1055A80024F00FFEBC464246009B06A913F801EB07
:1055B8000DF58C7858F8046B864242D1013291453A
:1055C8000CF801EBF2DADBF89060AE4240DB384AC7
:1055D80006A95B463748FFF7F7FB384624F0F1FD8C
:1055E80002462C442F44551B25EAE5720BEB0400B8
:1055F80014440BEB04060BF190018E424FD90BF1CA
:10560800980188424BD2791E4619321A002A39DD90
:1056180011F8012F00F8012BDBF890200132CBF8AC
:105628009020DBF894200132CBF89420EDE7B8F114
:10563800200F06F1010604BF4AF8296009F10109A3
:10564800A5E70E44B65C7645B4D00021B954BAE754
:10565800DBF8902001361BF802001CF097F9DBF804
:1056680090200132CBF89020AFE7DBF89010013A98
:105678000131CBF89010DBF894100131CBF894107D
:10568800002AF2DC00223D440BF80420EB1B002B1F
:105698007FF7C1AE17F8010B1CF078F9F6E7394629
:1056A80024F04EFD2A46EBE773BE02009234030055
:1056B80078BE02007BBE02002DE9F843D0E92456EB
:1056C80004460F46002294F89830012B07D10A2F80
:1056D80007D1002384F898300020BDE8F88300F251
:1056E8009F801B2F01D10223F4E70D2F0DD1012339
:1056F80084F898300D201CF049F90A201CF046F96E
:1057080000230120C4E92433E7E74FF00008082FFD
:1057180084F8988034D1454530DDB5420FD13846FC
:105728001CF034F920201CF031F9013D38461CF0FA
:105738002DF9013E04F80580C4E92456CCE7FBDACC
:1057480005F1FF3938461CF021F904EB0903A6EBF3
:1057580009026119184624F03CFD04F80680014648
:10576800013E4848FFF730FB35464D4501DC4D46C4
:10577800E2E708201CF00AF9013DF6E7ACD0DBE7C8
:105788007F2F1CD1002EA7DDB542A5DA6319691C4D
:1057980021441846721B24F01CFD04F806800146BB
:1057A8003948FFF711FB0820013E1CF0EFF8B5421D
:1057B800F9D1D4F89430013BC4F894308CE70A2F1F
:1057C80098D0092F03D12046FFF7D8FD84E7D4F8F5
:1057D8008C30013BB3427FF77FAFB54204EB05083D
:1057E80005F101090CDB384688F80070D4F89430CC
:1057F800C4F890900133C4F894301CF0C7F86BE7F4
:105808004146721B04EB090024F0E3FC4046FFF715
:10581800DBFA0820013E1CF0B9F8B542F9DDE2E7F1
:10582800022B06D15B2F01D1032353E784F898207C
:1058380049E7032B7FF450AF413F84F89820032FAA
:105848003FF64AAFDFE807F002070A1601212046B3
:1058580000F01CF840E74FF0FF31F8E7B542BFF61B
:105868003BAF605D1CF092F8D4F890300133C4F877
:10587800903031E7002D7FF72FAF013D0820C4F8A5
:105888009050BAE784BE0200BF1D030073B50D46F1
:105898000446FFF717F96B1C25D1D4F8AC3213B1C5
:1058A800013BC4F8AC320025204624F08AFCA8420B
:1058B80021D800212046D4F88C2024F05EFC002357
:1058C800C4E92433D4F8AC325BB16A46204601A956
:1058D800FFF78EF828B1019D04F1AC06009BAB429E
:1058E80014D802B070BD012DFBD1D4F8AC3283427C
:1058F800F7D20133D5E708201CF048F820201CF027
:1059080045F808201CF042F80135CDE7715D2046C6
:10591800FFF7D2FE0135E1E7002808DB0122430941
:10592800034900F01F008240603341F8232070478C
:1059380000E100E0014B93F9E802704708100020ED
:105948004FF6FF732DE9F0479E4D0446A5F8EA325D
:10595800A5F8EC32A5F8EE3240F61D4398428EB019
:1059680008D8B0F5416F37D2182859D8152800F251
:105978009C805BD023460020934A944907F0A8FEF8
:1059880095F8F332002B40F0C18007A80BF034FDE6
:10599800022303A907A88DF81C300DF033FB00285B
:1059A80040F0A9808A4907A80DF00CFC002800F0F7
:1059B800A280152C40F0978004F0D8FE47F23153AE
:1059C800B0FBF3F202FB130101F51C5110318148C1
:1059D80089B21AF011FD92E0A0F541630D2BC9D8E8
:1059E80001A252F823F000BF695A0000695A00006A
:1059F8007D5900007D5900007D5900007D59000047
:105A08007D5900007D590000DF5A0000E55A00006A
:105A1800315A0000315A0000315A0000315A000052
:105A280040F606439842A5D16B4941E005F02EFBAC
:105A38006A490246002007F04BFEB5F8F032002B09
:105A480098D00026B146DFF8C88198F8047008F1AC
:105A58000808BFB9FF22624BA5F8F0721A7289E7ED
:105A680005F014FB5D490246002007F031FE5D4A4F
:105A78005D4B5E49B4F5416F18BF1A46002007F028
:105A880027FE77E758F808ACCDF8009032463B4639
:105A9800B5F8F01207A826F039F93E443A465046C0
:105AA80007A91CF095F9F6B2CFE71628BCD15049E2
:105AB800002007F00DFE95F8F232332B3FF45AAF71
:105AC80003F0EF02432A3FF455AF19077FF452AFB2
:105AD80006F02AFC4EE700224649CFE70020464957
:105AE80007F0F6FD46E7162C02D13A481AF08DFC6D
:105AF8000EB0BDE8F087162CF7D0152CF8D106F0BB
:105B080064FA0EB0BDE8F04706F0A8BA152C28D103
:105B180000202D4A394907F0DBFD95F8F332042BB4
:105B280013D0082B11D095F81433DA070DD407A831
:105B380013F0D6FB18B9BDF81C309B0705D495F8AF
:105B4800F33243F0100385F8F33204F00FFE4FF4FC
:105B5800FA63B0FBF3F202FB1300C11889B22848BC
:105B680037E795F8F22202F00F02022AC0D0013B73
:105B7800092B20D800202349134A07F0A9FD95F8DE
:105B8800380321490130C0B285F838030EF092FC81
:105B980060B100201D4907F09BFD08F0A3F900281B
:105BA800A6D10EB0BDE8F04708F07CBA0EB0BDE84B
:105BB800F04708F0D1BA40F61C400EB0BDE8F047F7
:105BC80008F046B90810002080FD02003EBF020020
:105BD8008DFD0200FC120020E1BE02008EBE020014
:105BE800AC38002088BE020089BE0200AABE0200AE
:105BF800CABE0200F6BE02001EBF020055BF020068
:105C08002013002068BF02004213002080BF02005A
:105C180030FD020038B5454C454B256F4548C5F366
:105C280080256A1C83F8502317F0ECFC236F43F49B
:105C380080632367236F23F0070343F0020323677E
:105C480024F048FB17F0DEFC236F23F4806343EA5B
:105C580085232367236F23F450532367364BD3F8E8
:105C6800FC20D2014CD4D4F8803023F0030343F055
:105C78000203C4F880302D4BD3F8202122F007020C
:105C880042F00102C3F82021D3F8802122F0030258
:105C980042F00102C3F88021D3F8402122F0030228
:105CA80042F00202C3F84021D3F8602122F0030237
:105CB80042F00202C3F86021D3F8402222F0030226
:105CC80042F00202C3F84022D3F8002222F0070271
:105CD80042F00202C3F80022D3F8082222F0070299
:105CE80042F00202C3F80822144A536A23F001035F
:105CF80053624FF0E022136943F00403136138BD87
:105D0800D3F8FC2022F08072C3F8FC20D4F880205D
:105D180022F0030242F00202C4F88020D3F8FC20EB
:105D280042F08072C3F8FC20A5E700BF0080005055
:105D38000810002000B4C40400ED00E000C00750C3
:105D4800BFF34F8F0549064BCA6802F4E06213435C
:105D5800CB60BFF34F8F00BFFDE700BF00ED00E051
:105D68000400FA05034630B100201A5C02B97047F6
:105D780001308142F9D170474FF0FF307047FEE79C
:105D880000207047002070470020704710B520B3EE
:105D9800037803B3013BDBB2022B20D8114AD35C52
:105DA8004278D340DB071AD5EFF31184302181F311
:105DB8001188037801224B4341F21001407803F126
:105DC800A043824003F570335A5084F31188BFF31F
:105DD8006F8F002010BD7F23E2E72220FAE7212001
:105DE800F8E700BF2CFD020010B520B3037803B319
:105DF800013BDBB2022B20D8114AD35C4278D34056
:105E0800DB071AD5EFF31184302181F31188037869
:105E180001224B4342F21001407803F1A043824033
:105E280003F570335A5084F31188BFF36F8F002045
:105E380010BD7F23E2E72220FAE72120F8E700BF20
:105E48002CFD020007B503788DF8043043788DF8EF
:105E58000530837801A823B9FFF7C6FF03B05DF8C2
:105E680004FBFFF793FFF9E707B503788DF80430D3
:105E780043788DF80530837801A823B9FFF786FFAA
:105E880003B05DF804FBFFF7AFFFF9E70B4B93F89E
:105E9800512362B107280CD803EB001393F874312F
:105EA8004BB10123064A834013640020704705481C
:105EB8007047054870470548704700BF0810002024
:105EC80000100450028000F0018000F0078000F00C
:105ED8000B4B93F8512362B107280CD803EB00133E
:105EE80093F874314BB10123064A834013640020B0
:105EF800704705487047054870470548704700BF18
:105F08000810002000200450028000F0018000F0FA
:105F1800078000F073B5054690F842601C4630468D
:105F28000DF103031BF036FDEB6B012E5B690DD100
:105F3800324601A998479DF8033013B1BDF80630E1
:105F48000193BDF80430236002B070BD01222146E0
:105F580002B0BDE87040184703460846EFF31081C9
:105F680072B6034ADB6BC2F85413DB68184700BFEC
:105F7800081000202DE9F0410646406882B0C0B103
:105F88000F4690460024336853F8345003EBC4039B
:105F9800C5F30752C5F31301013504F1010406D016
:105FA8005B683046CDF80080B84710B1706884420D
:105FB800E9D302B0BDE8F081036813F07E0F03D186
:105FC800406820F07C40704713F078001CBF03F055
:105FD8007F03D81F7047202A0B681EBF4FF0FF3180
:105FE80091408B43590801F055315B1A03F0333166
:105FF8009B0803F033330B44017803EB13130A4473
:106008004FF0013103F00F334B43A2EB13620270E0
:1060180070472DE9F041054600244868EB6B86B0CF
:106028000E4601225B69029402A908309847A046EF
:1060380095F84230012B40F08180632C03D90298F7
:1060480006B0BDE8F081612C08D805AB2246314680
:106058002846FFF75FFF9DF8143013B305AB2246BF
:10606800314628468DF81080FFF754FF95F84230E6
:10607800059F012B52D14FF6FF739F4200F091808C
:10608800082205A904A8FFF7A6FF9DF81020C7F36A
:1060980007239A4240F08580FFB2029B3B4402935B
:1060A8007FE095F84230012B2ED122463146284612
:1060B80003ABFFF72FFF3146284604AB621CFFF7FE
:1060C80029FF3146284605ABA21CFFF723FF102203
:1060D80008230DEB02010DF107008DF80730FFF7DB
:1060E8007AFF102205A9FFF776FF039BDAB2002A90
:1060F80050D19DF80720B2EB132F4BD1DDE90432C4
:1061080003EB0243029345E0302C29D942E09DF885
:106118000720B2EB134F3DD1049BF3E77B1C40D023
:10612800102205A90DEB0200FFF755FF9DF810207E
:10613800C7F307439A4234D1BFB2AEE7312C3FF6DA
:106148007EAF8BD005AB224631462846FFF7E2FEEC
:10615800BDF81430002B81D195F84230012BA4D022
:1061680022463146284603ABFFF7D4FE314628467F
:1061780004AB621CFFF7CEFE102320220DEB0301B7
:106188000DF107008DF80730FFF725FF039B9AB242
:10619800002ABCD095F84230012B14BF01230223FA
:1061A8001C44013444E737B5044600251B22011D71
:1061B8000DF107008DF80750FFF70DFF63689DF894
:1061C8000720B2EBD36F03D123F0784003B030BD82
:1061D8001B2204F108018DF80750FFF7FCFEA068A8
:1061E8009DF80730B3EBD06F0ABFC0434FF0FF30C4
:1061F80020F07840EAE74BF29A22036810B5B2EB38
:10620800134F044613D19BB2012B15D1FFF7CBFFD7
:10621800013011D04FF6FF72E068B2EB104F4FEA31
:1062280010430BD180B2C01A18BF012010BD013332
:1062380014BF04200320F9E70420F7E70220F5E75C
:10624800F0B50546002687B0EC69013CB44203D896
:106258000C46204607B0F0BD01B14C1E6F6C286893
:10626800EB6B05225B6901A907FB0400984701A8AD
:10627800FFF7C1FF0128ECD921460136E4E703689E
:10628800F0B5CC1A436C0646B4FBF3F4002587B08E
:10629800F36937685A1E9542706C06D3736C306880
:1062A80003FB0400143007B0F0BD0134B4FBF3F273
:1062B80003FB1244F36B05225B6901A900FB047020
:1062C800984701A8FFF797FF0128E7D90135DFE7CD
:1062D80010B423F0030422449B070A44436C18BFFC
:1062E80004325B4282EA0104234202D05DF8044B87
:1062F800C5E710465DF8044B70472DE9F04F14468A
:1063080007460E468BB00393C36B01225B6907A94E
:1063180060689847FB6B01225B69304606A998477D
:10632800079B5D1C07D10022A360A275627500203F
:106338000BB0BDE8F08F0122A2750022217E069DD8
:1063480004EBC101CE610A846068C5F3D31CB04276
:1063580005F07F010CD14FF0FF33C4F800C0217560
:10636800A360237D043B022B26D80023A375DEE718
:1063780094F814E020688E4503D1A0EB0C0042424B
:10638800424103F07F0001288CBF00200120012931
:106398008CBF00210121884218BF002215F07E0F12
:1063A800A27503F07E0304D1002BDAD00023A37575
:1063B800D7E7002BD5D1F9E715F07E0F0FD1FB6B8E
:1063C800022230465B6908A9984708A8FFF7F4FD40
:1063D800237D032B51D8DFE803F0150F045906A8D5
:1063E800F4E7CC22237E04EBC3031A840123634A17
:1063F800134493F871300AE0237E04EBC303188436
:106408000023F4E7237E04EBC30318840123149AC2
:106418001370069A12F07E094FEAD26A227E37D1AB
:10642800FB6B04EBC2020AF003055B69B2F820803B
:1064380082F8225008A902223046984720220DF1FE
:1064480017000DEB02018DF81790FFF7C4FD1A2213
:1064580009A9FFF7C0FD9DF81730099A4FF0080BFE
:10646800B3EB926F0CBF012300236375637D33BBCD
:106478000023A3754FF0000950E0227E013BDBB2F8
:1064880004EBC202052B1084C0D8B0E70223AEE7A4
:10649800002504EBC202B2F8208082F8225006A937
:1064A8001B2208A88DF82050FFF795FD9DF82020A5
:1064B8004FF0040BA2EB0A0253425341D5E794F87C
:1064C8001690B9F1000FD5D0B8F1000F08D1D5B1A9
:1064D8000123627EE37552BB9D4218D1657614E0B4
:1064E8007B6C06EB0B02594286EA020008421CBF8D
:1064F8000021A175591E0A409B1A4345B8D3A37DB4
:10650800002BE4D1B6E7E37D43B94FF000094346D9
:106518005A4631463846FFF7DBFEA060A27D237E4F
:106528005AB9012B27D801332376A07D00E7012D26
:10653800F4D0032DE9D1A376E7E72269012B424481
:10654800226118D801332376039B002BEDD0E37D1D
:10655800002BEAD0B9F1000FE7D1032DE5D0A168EF
:106568004B1CE2D0149B2246009338460123FFF7C8
:10657800C4FEA075D9E70023A375D6E72CFD020059
:1065880013B50C4600212176009361681346224614
:10659800FFF7B3FE18B1E37D03B1A07EA075A07D1F
:1065A80002B010BD2DE9F743044616461F460D46B6
:1065B800DFF87480816AE36A8B421ED04B1C1CD0C2
:1065C800DFF860904846FEF745FA01224946204622
:1065D8000DF10703FFF7D4FF30B13B4620469DF885
:1065E80007201049B04740B1D8F860134A1C07D0BB
:1065F800012D0DD0E36A9942E4D103B0BDE8F083E0
:10660800D8F85C132046FFF73AFE012D0146D2D197
:10661800D8F85C3381EA0302636C5B421A42ECD11E
:10662800C9E700BF60130020081000202DE9F041E1
:10663800D0E90A369E42044686B028D11422C3699E
:10664800456802FB1355284606B0BDE8F08120686E
:10665800676C331AB3FBF7F3E26B07FB0300D2F85E
:10666800148001A90522C04701A8FFF7C4FD01282D
:1066780004D0636C1D44013B3340ED1A314620467B
:10668800FFF7FDFD0646A36AB342E0D1DBE700252C
:10669800F9E72DE9F04F0F469A46002389B00446E2
:1066A8004FF0FF31104690468DF80B30FEF7D2F9C7
:1066B800B7F5801F20D2394603AA04F10800FDF778
:1066C8009FFF451C014605D1237CBBB92D2009B08D
:1066D800BDE8F08F4046FEF7BDF90122414620464D
:1066E8000DF10B03FFF74CFF0028EDD09DF80B30A0
:1066F8008AF800300020EAE7B81CE5D1E66A711C88
:106708002CD12046616AFFF79BFD0646BB1C18BFCB
:106718000123DFF8C4B00093636A626C01932368B5
:1067280003A902FB0639E36B484605225B6909F1B8
:1067380014099847002549464B1C05D0636C81EA2B
:1067480009025B4213420FD031462046FFF778FD1D
:10675800019BB3422FD085BB0646DDE72368F61AB6
:10676800636CB6FBF3F6D1E71A48FEF773F92046D7
:10677800009A18490DF10B03FFF702FF8446B8B1E0
:10678800BA1C03D0DBF88433BB4211D145469DF8CF
:106798000B30DFF840E08AF80030BEE80F000FC584
:1067A800BEE80F000FC59EE8070085E807006546AC
:1067B800DBF88C13C0E7002D88D0B7F5801F99D27D
:1067C80039469AF80030D8F8042004F10800FDF79B
:1067D80047FF8FE78C130020081000202DE9F341B4
:1067E8001F4600230C46164605463B6058B390F8F2
:1067F800343053B3B1F5801F29D2DFF85880012116
:10680800FFF7AAFB214628460DF1070308F56C722D
:10681800FFF73FFF0446A0B99DF80730032B10D0BF
:10682800022B0AD10123336004233B60E86B1BF081
:1068380015FA204602B0BDE8F0813060D8F8C033C0
:10684800F3E72D24F2E72124F3E71124F1E72924C3
:10685800EFE700BF0810002073B50D46D11E4A426D
:106868001C461B7E4A419A4228D1296823689942CE
:1068780024D36368994221D8124E0DF1070306F517
:106888007772FFF706FFC8B9D6F8E0236B689A421B
:1068980014D19DF80730DA1E53425341227E9342A9
:1068A8000CD1636901336361D4E90323934205D2B0
:1068B8002968A26842F8231001332361012002B03D
:1068C80070BD00BF0810002070B50025044686B0D2
:1068D8000562E369AB4202D8206A06B070BD666CF7
:1068E8002068E36B05225B6906FB050001A9984750
:1068F80001A8FFF780FC012898BF236A05F101056C
:106908009CBF01332362E4E72DE9F04F97B0CDE94E
:1069180008230F460A69416CD31D1439B3FBF1F300
:10692800013302EBC302036B04469342C0F00882B2
:106938000023DFF880920C93E36A9C48194606937B
:10694800FEF788F8D7E903360393099B022B61D138
:10695800CC2E40F0E081089B002B2DD039462046F4
:10696800FFF757FB656C069A6B1E13401290ED1AE1
:10697800E36B01225B69786814A99847149B13F0AC
:106988007E0F14BF04230823782E059351D90122C2
:1069980000234FF0080A04923A68C9F89463C9F8CA
:1069A8008423099A032A62D0022A14D0049A002A5E
:1069B80014BF0022072212E0039B01221B684FF03C
:1069C800080A12933B680492C9F884330823059394
:1069D800089BC9F89463049AC2F10202D2B289F8FA
:1069E80098234FEA9A020E92069A019200220A927E
:1069F8000D9207920B92606C019A411E1140421A47
:106A0800002E36D053449A423ED8236B1B1A0B44AF
:106A1800236359E1656C069A6B1E1340782EA5EB2B
:106A2800030516D8FB7D7BB9089B002BA0D1042356
:106A38000593331DAB4212D9B6B1082DA7D804234C
:106A480000229A460492A7E7089B002B90D10823BE
:106A5800EEE7089B002B8BD10823059397E70023CB
:106A680004934FF0040A97E704230496F9E7099A78
:106A7800B5E75245C9D3B046019B53440293079BDF
:106A8800002B18BF032314E0A2EB0A02019B9642D5
:106A9800B046534428BF904696420293EFD901234B
:106AA800D9F8942389F89B33964243D1019AC9F8BF
:106AB8008823079399F89B33002B3DD099F89C23A2
:106AC8000199D31C09EBC303C3F888130799013252
:106AD800A3F88C8383F88E1389F89C23B8F1000FF0
:106AE80014D0099B022B2BD10A9B7BB90D9B4344E5
:106AF800032B0BD9E36B01229B69029812A99847D3
:106B08000546002840F01E8101230A9399F898331E
:106B18003D68274A012B02EAC51528F07C4B40F254
:106B280090809A1E012A03D908F1070303F07F0316
:106B38001D438CE00223BCE7019BC9F88833CDE7ED
:106B4800089B002B38D1039BB8F1030F03EB080B0C
:106B580028D9DDE90201E36B4FEA98029B6998475F
:106B68000546002840F0D18018F0030266D0039B48
:106B780028F003052B440393029B1D444FF0FF3379
:106B8800039913A8139323F0DBFAE36B2846012239
:106B98009B6913A998470546CDF80CB0002DB5D0D0
:106BA800029B76E04246029DE8E700BF8C13002076
:106BB80080FFFF070810002007F12003DDF808B068
:106BC8000F93FB7D78689BB100233D7E0B9AD9B269
:106BD8008D4211D90F9903F1010C31F8331091420C
:106BE80026D9059907EBC303D8690A44104403E082
:106BF8000B9B059A13441844E36B01225B6913A9A4
:106C08009847139B012211930B9B584604330B930F
:106C1800E36B11A99B699847029B05464344A3EB84
:106C28000B03042B07D9002872D10BF1040BC8E71A
:106C38006346521ACBE7CDF808B0AFE7CDF80CB0F1
:106C480064E7079A43EAC2632B4343F060454FF079
:106C580000038DF84C30049BCDE9145B002B49D020
:106C6800202214A913A8FFF7B6F91A2215A9FFF7CD
:106C7800B2F99DF84C304BEA83631593E36B0E9A97
:106C88009B69019814A99847019A051E0C9B18BF87
:106C9800134652460C93204643460199FFF718FBCA
:106CA800236B08F10302A3EB0A0322F003029B1AE9
:106CB800C9F88C032363002D44D10D9BA6EB08066D
:106CC80043440D93029B019320460199FFF7D7FA9D
:106CD80000230190002E7FF48EAE494A3968D2F81D
:106CE8008C3304F10800E362D2F88823099BFDF78E
:106CF800B7FC11E01B2214A913A8FFF76CF99DF843
:106D08004C3045EAC3651495B8E7CDF80CB047E7B1
:106D1800CDF808B044E77026304617B0BDE8F08FCC
:106D2800002650E03A69616CD31D1439B3FBF1F3C6
:106D3800013302EBC302236B9342BFF4FDAD5DE068
:106D48001C26E9E73D2D59D104F108030193266873
:106D5800069B2046E16AD4F844A0A3EB060BFFF794
:106D68008EFAA26ABBFBFAFB8242DBD0616CD9F8CF
:106D78008C2301F1FF3C02EA0C0C226B0C9B521A8B
:106D8800624422632268E0629A1AB2FBF1F8C345B2
:106D9800C6D10AFB0866069B06F1140BB3EB0B067B
:106DA80011D0E36BB20859469B6998478246E26A5C
:106DB800069B3244E262226B0198D21A5A4422633B
:106DC800FDF7E5FB56462368616CE06B01FB083173
:106DD800FDF7B8FC2046FFF777FD2046FFF726FCB5
:106DE8002063002E9ED03A69616CD31D1439B3FB21
:106DF800F1F3013302EBC3029042A8D22E468BE78F
:106E0800081000202DE9F3471E4643690446B342A3
:106E1800884617469DF8289072D300258DF80750AC
:106E28002046FDF770FBD4F830A082450AD2236AC9
:106E3800B5EB430F06D220460DF1070119F03AF9D8
:106E480000285BD09DF80730012B04D120460DF1B6
:106E5800070119F02FF9B9F1030F06D03146204682
:106E6800FDF73CFB256B85424CD3274D4FF0FF3196
:106E780005F57770FDF7EEFD4B460022204605F537
:106E88007771C5E9FA76C5F8DC83FFF73DFD236E17
:106E980006467BB32046FDF736FB636E256B03443D
:106EA8009D428CBF00230123854298BF002584F8AA
:106EB8005030237C88BF2D1A656584F8583073B12B
:106EC800002120461AF0D6FE0121054620461AF078
:106ED800D1FEE2682B18934294BF00239B1AE36506
:106EE80094F8503013B994F858301BB1236E04F15C
:106EF80050009847304602B0BDE8F08701358FE76B
:106F08006226F7E71C26F5E7081000202DE9FF4167
:106F18000F4690461E46054698B390F8343093B312
:106F2800B1F5801F31D21A4C0221FFF715F8394606
:106F380028460DF10F0304F56C72FFF7AAFB78B130
:106F4800012342460093394633462846FFF75AFF45
:106F58000446E86B1AF082FE204604B0BDE8F081D2
:106F68009DF80F30012BEBD1D4F8C0239642E7D11E
:106F780032464146284619F05FF904460028DFD119
:106F8800E7E72124E8E71124E6E72924E4E700BF3E
:106F98000810002007B51F4890F8083403B9FEE729
:106FA8000023694600F58260CDE9003316F058FBEE
:106FB800E8B9194AD2F84031D2F840211F2B4FF0D6
:106FC80001030FD9203A9340019A1A4301920823EA
:106FD8006A4612491248FFF799FF124B124A1A6083
:106FE800FEF7AEFE9340009A1A430092EFE72D2871
:106FF800F3D1094AD2F84031D2F840211F2B4FF083
:10700800010385BF203A93409340019398BF0093B2
:10701800DDE700BF08100020008000440071080070
:1070280018140020000000200B020FF070B586B085
:107038000E4605460392A0B390F834309BB3B1F5E1
:10704800801F32D20221FEF787FF31462846184AB0
:107058000DF11703FFF71DFB044618B99DF817300B
:10706800032B0ED10223314600932846CC2303AAD2
:10707800FFF7C8FE0446E86B1AF0F0FD204606B09C
:1070880070BD022B0BD10A492846FEF7C2FF0399AF
:1070980002468142EFD028461AF0E0FCEAE7612474
:1070A800E9E72124EAE71124E8E72924E6E700BF15
:1070B800B813002030B50C46054685B028B390F8C3
:1070C800343023B3B1F5801F23D20221FEF744FFE9
:1070D8000DF10F03214628460F4AFFF7DAFA034657
:1070E80088B99DF80F20032A0DD00322214600926B
:1070F80002462846FFF786FE0446E86B1AF0AEFD06
:10710800204605B030BD2D24F7E72124F8E71124E7
:10711800F6E72924F4E700BFB81300202DE9F3416E
:10712800089C032A1746266806D1237A012B25D006
:10713800012002B0BDE8F081DFF8988030460DF1FB
:10714800070308F57772FFF7A4FA60600028ECD10E
:107158002568D8F8E033A96AD5F844C04B40CCF18B
:1071680000021340207AE0D1012809D1E068D8F85C
:10717800EC2302447069824202D92374207CD8E748
:107188002868EB6A1B1A081AB3FBFCF3B0FBFCF087
:1071980083420BD1706CF36A421E1340326B121A91
:1071A800134428463363FFF76AF8E862D8F8EC23FB
:1071B800E36808321344E36001223B46044920682F
:1071C800FFF7A2FB60600028AFD00020B1E700BF46
:1071D800E413002008100020032A2DE9F341064695
:1071E8000D4617461C4606D1237A012B24D00120D0
:1071F80002B0BDE8F081DFF8608009680DF107038F
:1072080008F57772FFF745FA60600028ECD19DF821
:107218000720237A032AE7D0D8F8E0136A68914256
:10722800E2D1012B2969D4F80CC007D172690CEBA3
:107238000103934202D92074207CD9E708316144C4
:10724800E1603B46012229463046FFF75DFB60605E
:107258000028C9D00020CBE708100020F0B504466C
:107268000D46466CE36B006887B005225B6901A98F
:1072780006FB0500984701A8FEF7BDFF012804D8C2
:1072880001A8FEF790FF07B0F0BD29462046FEF79B
:10729800D7FF0646676C2068E36B05225B6901A986
:1072A80007FB0600984701A8FEF77DFF431CEAD0BC
:1072B800B54238BF0130E6E72DE9F0430646994666
:1072C80089B0036908460F46904698470446002847
:1072D80067D1D9F804305B0A012B22464FEA5303E1
:1072E80004F10104F8D899F8035099F802302D03F5
:1072F800DB0203F4006305F480551D43B9F8003040
:107308004FF00009C3F30A0352032B4492B29D18AD
:10731800294B0DF107001B2228F0784402A903939A
:1073280002948DF80790FEF756FE9DF807306FEA35
:10733800054544EAC36404946FEA08041B2224F058
:10734800784402A902948DF80790FEF744FE9DF850
:1073580007306FEA154544EAC3644FF0FF33012252
:107368000594069307A9B369079507F11000984794
:1073780001220446B36905A907F1080098470122CC
:10738800484518BF0446B36904A9381D9847012227
:10739800484518BF0446B369384603A9984728B139
:1073A800044639463046FDF7CDF901E0002CF8D106
:1073B800204609B0BDE8F08301009AB238B504460A
:1073C800456C006804F1400305FB0101E06BFFF721
:1073D80073FF05462046FFF777FA284638BD2DE9A2
:1073E800F04F4FF0FF334FF6FF720025044600F1CF
:1073F8000808C0E909238BB0C362056205634046EB
:107408008B46FDF7C4F82046FFF75EFA50BB4FF6EF
:10741800FF79676A00264F4514BF3D460025E3699A
:107428009E4248D32046FFF74FFA18BB5E200BB0A8
:10743800BDE8F08F2368E26B606C566900FB05308D
:10744800052205A9B04705A8FEF7D5FE012828D1D1
:1074580029462046FFF702FF421C29462046FFF72F
:10746800ADFF0135E3699D42E4D32046FFF72CFACE
:107478000028CCD000254FF0FF394FF6FF734F4658
:107488002E46C4E90853E3699E423ED3A5EB09059D
:10749800012D5BD84FF6FF72636A934268D167206B
:1074A800C5E70338C0B20128DBD829462046FFF7D4
:1074B800D5FE0246D1E7E26B2368606CD2F814C0AF
:1074C80000FB0530052205A9E04705A8FEF793FE55
:1074D800022807D04F450DD10BF10102294620465D
:1074E800FFF76CFFE3690135B5FBF3F2013603FBE7
:1074F800125594E729462046FFF7B0FEB0F1FF3F4A
:1075080014BF02465A460132E8E7E26B2368606C12
:10751800D2F814C000FB0630052205A9E04705A8EB
:10752800FEF769FE01280FD805A8FEF73CFEB84211
:1075380038BF6662814528BF8146854238BF054607
:107548000746236A0133236201369CE74FF6FF732F
:1075580000256362E3699D429CD2666C2068E36BF8
:1075680006FB050005225B6905A998470135F1E787
:10757800E26B666C206855696946052206FB0300C4
:10758800A847626A616C23684E4D01FB02331433CD
:10759800A3624FF0FF336FF00101E362204605ABB1
:1075A80005F57772FFF775F8002851D1D5F8E4533F
:1075B80029462046E562FCF7B6FF206320B920463D
:1075C800E16AFEF75CFEE06229462046FEF757FEB8
:1075D8000546A36A9D423DD16569626CE91C143A6F
:1075E800B1FBF2F1002705EBC1050335B5FBF2F558
:1075F8003E460235E3699E423ED3AF4257D220460B
:10760800616AFEF71DFE4FF00008064604F1400AC5
:10761800474512D8626C2368694602FB0639E36B5A
:1076280005225B69484698476846FEF7BCFD534605
:1076380002464946E06BFFF73FFE31462046FEF71B
:10764800FFFD08F10108A8450646E1D36420EEE6EF
:10765800A56AADE729462046FCF765FF236B294656
:107668000344064623632046FEF709FE0546002E1E
:10767800AFD1C4E90B06ACE7626C236805A902FB2D
:107688000639E36B05225B694846984705A8FEF76B
:10769800B2FD012809D8204609F11401FCF743FF7F
:1076A800636C143B984208BF01370136A2E7404695
:1076B800FCF76DFF002320461946034AFEF772FFC8
:1076C8000020B4E608100020054700002DE9F84323
:1076D8000025DFF890810E46D8F878940446C8F85B
:1076E800785418B921252846BDE8F88390F83470F5
:1076F80007B30A6803689A4240F0A9804A68436859
:107708009A4240F0A4808A6883689A4240F09F8039
:10771800CA68C3689A4240F09A800A6943699A42E3
:1077280040F095808A69C36B9A4240F090804B691B
:107738008361D8E768223946856B22F01EFD3368DD
:1077480004F1080023607368A563636033696361AB
:107758007369A361D6E90223C4E90223FCF717FF82
:10776800B36904F14000E3639B68984720B9676CEC
:1077780017B16368B3FBF7F794F84330E761002B60
:10778800B0D00023656C2366002D68D0002F66D02A
:107798002368B3FBF5F205FB1233002B59D1676858
:1077A800B7FBF5F605FB1676002E52D12046FCF7FE
:1077B800AAFEA369043303449F424CD340F63472B3
:1077C8006369CC3B934248D8B5F5805F47D3032122
:1077D8002046FEF7C1FBD4E90001E36B1B6898471C
:1077E8000546E36B0220DB6898472DB184F83460C6
:1077F800E06B1AF033FA76E749462046FFF7EFFDCB
:107808006428054604D149462046FFF7E8FD0546A9
:10781800636C143BBDB9226A204602FB03F6FCF7F1
:1078280072FEA369043303449E4223BF012384F8F4
:107838003430D8F87C3484F834502ABF01335A25C0
:10784800C8F87C34D4E7002384F83430D0E75D25C9
:1078580049E7592547E75A2545E75F2543E75B256B
:1078680041E700BF08100020014902482EE700BF89
:10787800B83800201814002030B40446EFF3108004
:1078880072B6256885EA02030B406B40236030BC62
:1078980024F073B9F8B50D4621491646D1F81023DE
:1078A8006A1E0E2A07460478437829D96DB3002248
:1078B80001204FF0300C98400CFB041116B341F234
:1078C800100C41F80C0004EB4404072B4FF00F0197
:1078D8004FEA04141BD89B0012489A409940204450
:1078E800FFF7CAFF5DB9012230207B7839789A40CA
:1078F8000B4B00FB013386B141F210015A50F8BD21
:107908002A46D5E742F2100CDBE72A46DBE7083BBC
:107918009B0005489A409940E1E742F21001EDE7E3
:1079280000C0035004C003500CC0035038B500B366
:107938000F2920D80378D3B1013BDBB2022B1AD828
:107948000F4CE35C4478E340DB0714D50D4BD3F8C8
:10795800104394B9EFF31185302383F31188FFF7AF
:1079680099FF85F31188BFF36F8F204638BD7F23B9
:10797800E8E72224F9E72124F7E70224F5E700BF26
:107988002CFD020000C003507FB504680022A388C4
:107998000121054602A8ADF80830FFF7C7FF0DF131
:1079A800070102A81AF028F99DF8073083F00103AF
:1079B8002370A379022B6AD14FF0FF339DF808207A
:1079C8000393002A66D0D318DBB2022B04D9FF2A0E
:1079D80009D02B46042256E0404AD35C9DF8092082
:1079E800D340DB07F5D5EFF31186302383F31188F5
:1079F8009DF80840FF2C6CD0394BD3F81033002C7D
:107A08004CD19DF80930052B63D10122032102A82E
:107A1800FFF740FF0123324A04F11000D2F8301476
:107A2800834021EA0301C2F83014D2F83014C2F8B6
:107A38003014D2F82C141943C2F82C142949CA6EF0
:107A480002F03002202A1FBFCA6E22F0300242F034
:107A58001002CA66244AC2F820340C22234B02FBC7
:107A68000433234AC3E92E259DF80830FF2B04D0A0
:107A78000123204A8340C2F8243486F31188BFF3D7
:107A88006F8F01222B4603A902A81AF027FA0020BB
:107A980004B070BD7F239DF80920A1E7012C05D112
:107AA8009DF80930012B14D10324AEE7022C06D12E
:107AB8009DF809305BB1052B0BD10724A5E7032CF2
:107AC80007D19DF80930022B03D109249DE706242C
:107AD8009BE786F31188BFF36F8F7AE72CFD0200CE
:107AE80000C003500040005000E003500810002080
:107AF800874C000000D0035003681A78022A02D18C
:107B080000225A8040E7704707B582780421B2FA0C
:107B180082F2037852098DF8043043780DEB0100A6
:107B28008DF80530FFF702FF002003B05DF804FB75
:107B3800002307B50093252853D8DFE800F0135B2E
:107B4800172229344E6A767A8996ABB9525B565217
:107B580052765B222922345B6A22B94E4E4E4E225F
:107B680022227A8922F098FB00903AE022F094FBD6
:107B7800534BD3F89030C3F304630133B0FBF3F0F5
:107B8800F2E722F0A7FB4E4B1B6FC3F38023F4E709
:107B980022F0A0FB4A4B1B6FC3F380230133B0FBD9
:107BA800F3F04008E0E70193454BD3F8803103F048
:107BB8000303022B0AD0032B0CD0012B03D1002185
:107BC80001A8FCF7D2FD019B00930AE022F020FBFC
:107BD8000190F8E73B4B0193F5E700216846FCF775
:107BE800C4FD009803B05DF804FB4FF0E0231B6967
:107BF8005A0702D522F06EFBB6E7314BD3F84001A5
:107C080000F0030003282DD0003818BF0120C0035E
:107C1800AAE72B4BD3F8403103F00303032B4BD0D7
:107C2800003B18BF0123DB03CEE7254BD3F86031B7
:107C3800F2E7234BD3F8003203F00700032811D0F2
:107C48005B0709D4013801288CBF00200120DEE73A
:107C58001B4BD3F80832EFE7042824D122F03AFB73
:107C6800800A81E74FF47A707EE7154BD3F800312C
:107C780003F00303022B06D0032B07D0012B07D1F7
:107C8800114B5B68A0E74FF400439DE70F4B9BE760
:107C9800002399E70A4BD3F8803003F00303022B43
:107CA800A8D0032B01D000205EE722F0B1FA5BE7F1
:107CB800034BD3F84032AFE74FF47A7384E700BF41
:107CC80000800050002D3101AC38002080D54302DF
:107CD80038B5184CFF28A26A2AD8A36D13F4803F40
:107CE80018BF0121144B18BF996202219962A56D32
:107CF80015F08045FBD11149A36991F9E81223F4E5
:107D08007F03014423F47F4381F3080143EA0023FE
:107D180043EA0143A36102210948FFF7ADFDA36DC2
:107D2800DB0303D501210648FFF7A6FD284638BD29
:107D38002125FBE700C0005000D0005008100020AB
:107D480028C0005038B50F4CA26AA36D13F4803FC9
:107D580018BF01210C4B18BF996202219962A36DCB
:107D68005900FCD402210948A569FFF785FDA36DD8
:107D7800C5F30725DB0303D501210448FFF77CFD84
:107D8800284638BD00C0005000D0005028C0005020
:107D9800014B83F8E80270470810002001231248BD
:107DA8001249826A8B62836D03F00303032BFAD1B5
:107DB80002238B620C498B6D5800FCD40C488B6DE8
:107DC80030EA0303FBD10121084B1965A3F5805361
:107DD800996D8907FCD4996D8807FCD5996D890739
:107DE800FCD50321034847E500C0005000D00050EF
:107DF8000300010028C00050F8B504460D461F4690
:107E080016464AB101238B403021184A01FB002253
:107E1800F7B141F21001535004EB4403072D4FF022
:107E28000F014FEA031316D8A80006FA00F28140A2
:107E38000F481844FFF720FD4EB9012330210B4AA3
:107E4800AB4001FB042277B141F210015350F8BD59
:107E580042F21001DFE7A5F10800800006FA00F2FF
:107E680081400448E5E742F21001EFE700C0035003
:107E780004C003500CC00350831E012B2DE9F041B0
:107E88000C463DD801290ED82E4B04221B6905212A
:107E98000020C3F34013FFF7AFFF34B12A4BD3F8E8
:107EA8008004002849D1BDE8F0812749D1F88054E1
:107EB800002DF8D030272C7D244E2046FDF7E6FF14
:107EC80007FB0463DB6E01F595618B4213D12846ED
:107ED80002F012F940B3EFF3118187F311880123FF
:107EE8001B4AA3405365A2F580529362536381F302
:107EF8001188BFF36F8F2046BDE8F041FDF7E8BF5A
:107F08008B1E012B0BD80128CDD8BDE8F0410022EB
:107F18000C4B05211B691046C3F340136CE700297D
:107F2800C3D00129BAD0BEE7284602F003F90028D9
:107F3800E1D10123A340B364DDE7BDE8F04102F0DD
:107F480013B900BF00C003500810002000000450FF
:107F5800002004500123F0B5C4B21F4DD1F800C071
:107F6800A3408F7ACC7A0E7B2B6505F5005545F832
:107F780020C030256843240591F80DC044EA074421
:107F880000F1A04000F5802044EA465422F00302A4
:107F9800C0F860C0C4650267EFF3118485F31188E7
:107FA8000E4A087A536500B11364487A00B19363A6
:107FB80008798A7942EA0042074882614D79CA798C
:107FC800064942EA05428A61054A4363936484F399
:107FD8001188BFF36F8FF0BD0020045000100450CB
:107FE800000004500123C0B28340EFF31180302217
:107FF80082F31188054A516D21EA030151659362A4
:1080080080F31188BFF36F8F704700BF00000450E2
:108018000123C0B28340EFF31181302282F311882B
:10802800074AD06A184209D1526B93430CBF01200A
:10803800002081F31188BFF36F8F70470020F8E7A5
:108048000000045070B59400224605460E4623F001
:10805800D3FE431C0AD058B922463146284622F09E
:108068007CF8002814BF3D20002070BD6E20FCE77E
:108078007120FAE7114321F0F8014904034B490C38
:1080880041F44021063043F8201070470080035027
:10809800021E30B54FF000000CBF0C25042547F632
:1080A8000774084952B9831D51F82330234023B17E
:1080B80001308542F6D14FF0FF3030BD00F1120398
:1080C800F2E700BF008003503AB122F0030202F148
:1080D800A04202F5603209B9106070470002FBE760
:1080E8004FF0B0435A6812B19A6A002AFAD1704721
:1080F800054B5B69C3F38512827003F03F021B0BCB
:1081080042700370704700BF00C0075007B50146B2
:1081180001A8FFF7EDFF9DF8063001220B804FF410
:10812800807300204B80054B9B680A3303F01F03C4
:1081380002FA03F34B6003B05DF804FB0080E00F24
:108148000020704747F6FF739A42F0B577D00229AE
:1081580077D83D4B0B4493F87730022B71D83B4DC1
:10816800DE0005EBC30393F8AE7493F8AC04012F5B
:10817800394638BF0121012818D1002493F8AF04EB
:10818800401A844205D3012F2CBFC0190130C0B258
:10819800F0BD011BD3F8B054A0EB510135F91150D3
:1081A8009542D4BF0C4601F1FF30EAE7D3F8B0049A
:1081B8000028EDD0B0F90040A24204DCB0F902403A
:1081C8009442B8BF144683883544FF2B19BFC8238F
:1081D8002827B0F90630B0F90870A3EB04030CBFE8
:1081E8000122002293FBF7F395F8AD6413441BB208
:1081F8009E4201DD002B01DA731E1BB24FF47A7C1C
:1082080000EBC305EA88AD685F1C14FB02521D46EB
:1082180022EAE2723BB25C329E42B2FBFCF204DD1F
:1082280000EBC307BF88BA42EAD900EBC5039888B8
:10823800904228BF1046884238BF0846A7E7FF206B
:10824800A6E70020A4E700BF2CFD020008100020CC
:108258000229F0B567D8354B0B4493F877100229FB
:1082680061D8334B03EBC10393F8AC14012917D140
:1082780093F8AE4493F8AF04012C214638BF01218E
:10828800904294BFC1EB0001C1EB0201001BCAB2CE
:108298008242C8BF0022D3F8B03433F91200F0BDCF
:1082A800002A3ED0D3F8B01400293CD093F8AE048D
:1082B800904202D3B1F90200F1E793F8AF44B1F963
:1082C80000009442EBD993F8AD448B88013CA3F1AC
:1082D800FF06734201F10405E4B2734101F10C0792
:1082E800DEB2B44216D805EBC3034FF47A756A437D
:1082F800B3F902405B68D21A04EBD47302EB630251
:1083080092FBF4F29042CADBB1F902009042C6DC5B
:1083180010B2C4E737F833C05E1C9445E3D3334644
:10832800DEE70448BBE70448B9E700BF2CFD0200BC
:10833800081000200CFEFFFF0080FFFF436813B900
:10834800416070475B685A68012AFBD159607047E1
:10835800C3681944836853F8210030F8023B13605E
:108368007047002807DB01234109034A00F01F007A
:10837800834042F82130704700E100E04FF4407339
:1083880013B5012204216846ADF80030FFF7CEFA94
:1083980001223D4BC3F84424EFF31184302383F3C7
:1083A80011880C20FFF7C4FB84F31188BFF36F8F8B
:1083B800364B00F5D520D3F8F02000F2FC4042F00F
:1083C8000102C3F8F020D3F8FC20314C42F080724F
:1083D800C3F8FC202F4AA3F55D431A602E4B0222F6
:1083E800B0FBF3F02D4B01381861C3F8F0204FF4BF
:1083F8008072C3F804234FF06043294AC3F8B02FB2
:10840800284AC3F8802ED3F8002E42F48072C3F8AD
:10841800002EFF2283F82020D3F8002E22F4807249
:10842800C3F8002E2368980106D44FF00073192072
:10843800C4F88031FFF795FF2368590106D44FF03F
:1084480080631A20C4F88031FFF78BFF4FF0604437
:108458001548FFF799FA1548FFF756FB0222D4F89A
:10846800003E684643F48073C4F8003E104BCDE9E3
:10847800002318F0B5FAD4F8003E23F48073C4F84A
:10848800003E02B010BD00BF00D0035000ED00E078
:1084980000E100E0FF030040F8590D00000004E08F
:1084A80055CEACC509000100A8FD0200D438002053
:1084B800006A18102DE9F04F00264FF4802B9FB06A
:1084C800CDE90B66CDE90666DFF8B8A30D96CDF8C1
:1084D80028B00FAC0AAD08960FCDCDF814A00FC484
:1084E80005AD14AC0FCD0FC4C84CC94D04F2CC482F
:1084F8004646C84BC84FEB62C84BDFF88C932B63DA
:10850800C74B90226B63C74B04F59C600E97AB6317
:10851800CDF8249021F031FE1397CDF83CB00DF141
:108528003C0CBCE80F000FC6CDF850A03760CDF862
:10853800609004F5A66614AF0FCF0FC60121202264
:1085480004F5B063C4F81435C4F81C35C4F86835AC
:1085580005F12C03C4F82C35B34BC6F80090C4F8C9
:108568008434B24BC4F8182584F86C1584F82015A7
:1085780084F86415C4F88084C4F88834AC4BC4F813
:108588008C34AC4BC4F89434AB4BC4F89834AB4B34
:10859800C4F89034EFF31182302383F3118894F8F0
:1085A8005133C3B182F31188BFF36F8F94F85133FD
:1085B8007BB103A8FBF768FF58B9039B03A884F8AD
:1085C800E034FBF761FF002836D094F8E00419F096
:1085D800F9FA10250EE184F8511382F31188BFF3DC
:1085E8006F8F974A84F8743184F8843184F8943111
:1085F80084F8A43184F8B43184F8C43184F8D431CF
:1086080084F8E4315160FF21936093619162936330
:1086180013644FF0004353654FF0FF32894B152028
:108628001A654FF40012884BC3F88021802283F822
:108638001523FFF796FEB9E70127039B394684F80F
:108648004435824B84F86205C4F8A434804B8148D1
:10865800C4F89C34804B84F86D75C4F8A03484F851
:10866800617503F099FA95F93D603046FDF754F9C4
:108678003046FFF776FE94F8E004FDF707FC002883
:10868800A7D1CDF80480D4F818350093D4F8DC3499
:10869800D4F81425D4F8CC1494F8E00416F078FD36
:1086A8000646002895D1302294F8E0344FF4801122
:1086B800534342F2640203F1A04303F58023995027
:1086C80095F93C502846FDF727F92846FFF749FE5B
:1086D8006248C4F85C6519F0B7FA5E4801F044FDD9
:1086E80094F8E004FDF7F4FB054600287FF471AF29
:1086F8005B4B5C4EC4F874355B4B04220521C4F80F
:1087080078353B46C4F8706584F87C75FFF774FBD0
:1087180006213B4602222846FFF76EFB40F6AA6375
:10872800DFF86881DFF868B1C8F80470736141F256
:1087380005034E4AB5600320F565F3603561F561C0
:10874800F564CBF84820B56535657565CBF80470D8
:10875800C8F80470F360FFF7EBF94FF4E112430136
:1087680003F56123B3FBF2F3414A203B02EAC3035A
:1087780060224FF00209CBF8082004211422C8F81F
:108788000850DFF810A1F3613A4BB565CAF8AC950B
:10879800C8F85C107561C3F8AC254FF4A022C3F883
:1087A800C4254FF4C0220320C3F8BC2549462B46F4
:1087B8004A4684F87D05FFF71FFB2F4B0422CAF8B1
:1087C800B43504233946C8F85C3048462B46FFF7D1
:1087D80013FB2A4BCAF8AC95CAF8B8350523234AC7
:1087E80084F8755584F87635CBF84820C8F80470B5
:1087F800756173610122224B03A8CDE9032318F0A8
:10880800EFF828461FB0BDE8F08F00BF0810002021
:10881800AC380020E999000024800550D99900005F
:10882800FD990000D79D0000FFBB00004B9D000094
:10883800ADA20000C7990000CD990000D5C4000082
:10884800000004500020045000E100E06D9C00008E
:10885800A1BB0000D4140020D39900008814002084
:10886800210005000080055006030202FFFF0100F9
:10887800F8FF7F0000C0035003000200020001005F
:1088880000C201C0020004003C8005500090055061
:1088980000A0055000D0035008B5284B83F30A8880
:1088A8006FF00101264B274A9A60D3F8882042F4DA
:1088B8007002C3F88820244A116641F2FF7151669C
:1088C8000221C3F8D010BFF34F8FBFF36F8F082179
:1088D8004FF44034A3F54063C3F880110320D460FB
:1088E800FFF73FFD194B1A481C611A4BC01A80103C
:1088F80014F044FD184B19498B4212D30020184B31
:1089080018498B4218D30EF017F8186850F822400F
:10891800586840F82240013298688242F5D30C33F7
:10892800EAE70022F8E71C6844F8220001325C6894
:10893800A242F8D30833E4E70022F8E70800002051
:1089480000ED00E00040000000A00044008000446A
:108958003842000034410000F86B0300046C030047
:10896800046C0300046C030000280CDB0122064998
:10897800430900F01F008240203341F82320BFF351
:108988004F8FBFF36F8F704700E100E008B5EFF33A
:10899800108072B6034BD3F8A03523F0EEF81846D2
:1089A80008BD00BF0810002013B5FFF7EFFF40B166
:1089B800C46834B10122006801AB0DF10301A0477E
:1089C80018B14FF0FF3002B010BD9DF80300FAE770
:1089D8002DE9F04F02249FB017F0D4FF012020F0BA
:1089E80060FE19F099FFBD4BBD4DCDE90C434FF02A
:1089F8000073CDE90E53052300250CA94FF0FF3075
:108A0800B84C109320F093FE0CA94FF0FF30CDE93D
:108A18000C5520F0EBFDD4F8FC311020C3F30743CC
:108A280006930AF09BF910F0800F284600F0D784CF
:108A38000AF094F900060CD5069B802B40F0C484FC
:108A4800236A13F0020F00F0DE84E3699B0740F10C
:108A5800DA84A54DA54820F0FBFCA54805F10C01DA
:108A6800FEF734FE044618B3D5E903016B6A002407
:108A78001B6898476B6A0CA89B6898476B6A02202A
:108A8800DB6898470D982B69E1B2B3FBF0F38B4292
:108A98006A6A04F1010400F2BB84D3680020984795
:108AA8006B6A5B68984793499148FEF70FFE044646
:108AB8004FF00008904E8E4F06F1880A06F5887927
:108AC800FCB98E4B18F80330002B00F02785D6F838
:108AD80000B03846594607AB08AAFDF77FFE2D2897
:108AE80007D070B9089B012B0BD059463846FEF7C2
:108AF800E1FADAF80030594638461A68FEF796FA6D
:108B0800044608F10108B8F1220F06F104060AF13B
:108B1800040A09F10109D3D1B4FA84F3784E5B0948
:108B280086F8A43596F820341BB1DB21754821F06E
:108B380055FC002C40F0678408227349734803F001
:108B4800BFF901232746C6F8B435714BC6F8B045BE
:108B580086F8C0450134082C5F609F8043F8087F81
:108B6800F8D1482200216B4821F007FB4FF6FE732D
:108B7800A6F828366FF48033802200216648C6F8AC
:108B88001C3621F0FAFA654B86F80476C6F80876A2
:108B9800C6F80C7686F81076C6F81476C6F86036ED
:108BA800C6F8647686F8687601F0E0FDFF230021B8
:108BB80086F8EC062C220CA886F8ED364FF0023722
:108BC80021F0DBFA64230121CDE90E7311930B2305
:108BD800B6F8EE468DF834100C408DF8583040F059
:108BE8003581084622F064F90A2386F8F0364FF4F6
:108BF8002873ADF836304FF0FF33C6F8F436484BDB
:108C0800484A1B884849A5F85C30484B48481B68C7
:108C1800A5F862406B66474BEC661B88A5F85E308A
:108C2800454B1B68AB661FF05BFB20B14FF41B7113
:108C3800424821F0D3FB0521D6F8F40620F056FC73
:108C480020B140F27D213D4821F0C8FBD6F8F4065A
:108C580019F0ECFC3A49D6F8F40620F00BFD0C2488
:108C680022F00CF96043129022F008F960430CA935
:108C78001090D6F8F40619F0ABFC20B140F295211B
:108C88002E4821F0ABFB00221F49D6F8F40620F04D
:108C980069FD20B140F29721284821F09FFB40F25E
:108CA8000353A6F8F836052386F8FA3695F9703096
:108CB8007F2B5FD14FF6FF7308A902222148ADF838
:108CC800203003F0FDF8BDF82010CC054CBF6FF044
:108CD8004A0149B2EFF31184302335E0006A1800E5
:108CE800000204000080E00FAC380020690345EC66
:108CF80018140020B8380020BCFE0200EEFF020065
:108D080008100020CABF0200AD15002034B608C004
:108D1800C815002020160020741600200000FFFF50
:108D2800C248030041AF0200F8380020C8480300D9
:108D3800FC160020C0480300C448030022C00200FB
:108D480054000300641002C083F31188B6F8EE36AD
:108D580085F87010D80709D5D6F8F40620F06EFC0F
:108D680020B140F67861D64821F038FB84F31188A9
:108D7800BFF36F8F95F8703086F8FB3622F07EF8D7
:108D880000EB80008000A6F8FC0622F077F80023AC
:108D9800C0004FF0FF31A6F8FE06C6F800374FF0C6
:108DA800FF30C5A3D3E9002322F03CF8C549D6F823
:108DB800F40620F090FCD6F8F40608A921F06AF928
:108DC80020B14FF43471BE4821F008FB0422D6F8D4
:108DD800F40607A920F022FC042804D040F2D72189
:108DE800B74821F0FBFA07A816F099FD01F0ACFC92
:108DF800EFF31184302383F31188012385F8713050
:108E0800B6F8EE36D90704D50021D6F8F40621F0D5
:108E180091F984F31188BFF36F8FB6F8EE36DA074D
:108E280012D5002241F20D01A748002321F0FAFFD4
:108E38000822D6F8F406114620F0DBFB20B140F6F4
:108E480036719F4821F0CAFA08F070FF4FF0000809
:108E580016F067FD342241460CA886F8048721F0F5
:108E68008CF90B228DF830206FF480320D924FF67A
:108E7800FE72ADF84020032294498DF84D20944AA3
:108E8800944BD6F8A5054968DFF8A8B2DFF8A8A280
:108E9800DFF8A892904C914F14920EAA1B93CDF82C
:108EA80054B0CDF864A0CDF868901C941D9703C207
:108EB8000CA9404617F034FB0CA9012017F030FB31
:108EC800042240460CA920F0A9FB042803D0D7218E
:108ED800834821F083FA0C9801F036FC10F0BCFCB2
:108EE8009022FF217F4821F048F97F4B7F48C6F840
:108EF800CC370023C6F8EC077D487E49C6F80C0835
:108F08007D487E4AC6F82C087D48C6F82A36C6F839
:108F18004C087C48C1F87E30C6F8D037C6F8D83738
:108F2800C6F8F037C6F8F837C6F81038C6F8183853
:108F3800C6F83038C6F83838C6F85038C6F8583841
:108F4800C6F87038C6F87838C6F8C817C6F8D427EF
:108F5800C6F8E817C6F8F427C6F80818C6F814289B
:108F6800C6F82818C6F83428C6F84818C6F8542889
:108F7800C6F86818C6F87428C6F86C0801F0F6FB3D
:108F880086F8880801F0F2FB05225A4986F8890814
:108F980086F88A28683148220CA821F0D1F84D4B70
:108FA800594ACDE91B3400231692584A18460CA991
:108FB800CDE917241D97CDE919A9CDF854B030246F
:108FC80017F0AEFA01270023EFF3118084F311881C
:108FD800D6F8B015002940F0A78280F31188BFF3B6
:108FE8006F8F0023D6F8B475012F40F0AE820024AD
:108FF800C6F8B4750AF016FE0AF0FAFC0FF021FF65
:1090080095F87230FF2543F004033846404A414939
:10901800A6F88E38022386F88B4886F88C4809F023
:109028003BFE1C2229463C4886F8924886F893580D
:1090380021F0A3F84FF6FD7386F8B048A6F8B238C9
:1090480086F8B14886F8B44886F8B5480AF03AFE7A
:1090580032222146314886F8B64886F8B74821F0CA
:109068008CF82F4809F08CFB0FF08FFF142229464B
:109078002C4821F082F801222B4C0025C4F8042941
:109088002A4A2B4FC4F82C294FF4817204F5106832
:10909800DFF8AC90C4F80059C4F82059C4F8108916
:1090A800C4F81479C4F81859C4F81C59C4F8282904
:1090B80004F5136646E000BF0A0020FF42030000E3
:1090C80022C00200B1AC0200400D0300AD15002023
:1090D800B9210100A13B0100194701002D10010031
:1090E8003CC002000E170020E13D0100E1490100EB
:1090F800CD9E0100B815002023BC010088BE0200E7
:10910800BD2B010021D00100D91101003305010058
:1091180027E10100981800209C180020C0180020A2
:1091280020390020F4180020081000203B420000DD
:1091380011B90000BD200100614B0100412301006D
:109148005DF1000030464946013514F0D5FA042D8A
:1091580006F12006F6D10025B14BB249B248C4F851
:10916800CC39C4F8C059C4F8B089C4F8B479C4F883
:10917800B859C4F8C859C4F8BC5914F0BDFA2846FF
:1091880002F0C2FFA949AA4814F0B6FAA949AA48A8
:1091980014F0B2FA04F02CFC04F033FCB4F8F03903
:1091A800A6491A0AB3F5406FA54B4FF0000038BF27
:1091B80003EB820304F08CFAA24BA349C4F8F439F8
:1091C80000231A4601330A2B8A8041F8082BF9D16B
:1091D8004FF48273A4F84E3A40F20233A4F8503A9E
:1091E8009A4B9B4DC4F8543A4FF48073A4F8583AFC
:1091F800022384F85C3A84F85D3A85F894300523B4
:1092080084F88A3841F249030126A5F8963052239A
:109218000021D4F8F40684F85E2AA5F89830A5F859
:109228009A3084F8486A84F84C6A84F8526A20F0C4
:10923800A4FA95F84420D4F8FC3A3AB91A4605F14C
:10924800400385F844602A64C4F8FC3AFF2014F00F
:1092580063FA94F8482A01217E4820F08EFF5222B2
:1092680000277D4EA4F8762D06F15802C4F8782D13
:1092780006F16002C4F8206DC4F8802DA6F5367694
:1092880094F8482AFBB29A4200F26381022002F065
:109298003BFF4FF6FF73A4F8EA32A4F8EC32A4F8C7
:1092A800EE32D4F8F439ABB100210CA80BF0CAFAAD
:1092B80080B9D4F8F4391A789DF830309A4209D038
:1092C800D91E032906D9D11E012903D9012A4AD159
:1092D800022B48D194F8F232002B44D122F076FBCD
:1092E800064600283FD101230CA918465B4A09F01D
:1092F800D3FC9DF83030314685F89C30032307A80D
:10930800A4F8903D0BF09EFA68BB08A80AF07CFE12
:10931800089BBDF826000CA90E930AF03DFE0546F1
:1093280008BB9DF81C000AF063FD94F8923D033BCE
:10933800012B00F2298128460BF04AF8002800F09A
:1093480023810BF073F80BF0E3F80AF011FDB4F881
:10935800900D10F0020600F008812B46052201202E
:109368003F490AF064FEB4F8F0393E4A190A02EBA4
:109378008102D2F83823D9B202EB8102009201218E
:10938800394A042003F080F90123B4F8F029120ABD
:10939800934040F2A172134240F00981012584F8FC
:1093A800935D22F001FD3149314802F0ADFB19F01F
:1093B800B3FA84F89C5D22F0F7FC2E492E481FB0C2
:1093C800BDE8F04F02F0A0BB069B812B1BD1D4F85F
:1093D8000C31590017D5D4F80C31FFF737BB09F019
:1093E800BDFC02067FF535AB069B802B04D1236AB2
:1093F80013F0010FFFF727BB069B812B03D1D4F88D
:109408000C31002BE7DB47211C4820F0E7FF32E650
:10941800EE68136901FB00609847FFF733BB00BF94
:10942800C9EF000083E600002013002015B00000FB
:10943800D819002019E50000FC120020E4C0020041
:10944800C0FD02005A000300001A00205C0003005F
:10945800AC380020241D00202C1D002029E101002B
:1094680000F8FF072CFD0200FCC002004C39002068
:109478009C1D002054390020A81D00208AC002002D
:1094880033683846194408AA07AB0591FDF7A6F9D1
:109498002D28059931D048B30BF1010B049B5FFAD5
:1094A8008BF18B42ECD8AE4B18F80330002B3FF40D
:1094B80028ABDDF810B05FFA8BF37E2B3FF621ABBB
:1094C80031683846594407AB08AA0491FDF786F974
:1094D8002D283FF416AB38460499FDF7EBFD0BF148
:1094E800010B04460028E6D0FFF70BBB089B7BB9AD
:1094F80099F80020079B9A42CED0384699F8003058
:10950800DAF80020FDF702FD0028C5D00446CAE7B6
:1095180038460591FDF7CEFD0599EEE7914BA34638
:1095280018F803300493B9E70A69C6F8B0350F6133
:1095380080F31188BFF36F8F012A3FF452AD1146B3
:1095480012690B61012AFAD13EE53A693B61174677
:109558004AE5180104EB031393F8593ADB0702D5DF
:10956800304402F001FA01378AE6022301207E4ADC
:109578007E4909F091FBB4F890385D077FF5F3AEAA
:10958800304609F023FBEEE694F8923D053B012BAB
:109598003FF6E9AE0AF04AFF0AF0EAFB94F8923D7A
:1095A800052B0CBF0420052009F0F2FBDBE6704D0B
:1095B800D5E90D32580748BF0026D5E9121B4CBF24
:1095C800B0468B46D5F83CA05FBFD5F85080924690
:1095D800684EDFF8D89148BFDFF8D49113F0080F30
:1095E800654B664A18BF1A46B6EB08071FBF6421C9
:1095F8007B0801FB0B33B3FBF7F31ABF9BB2049351
:1096080004974B465E490020CDE9016ACDF80080F9
:10961800BFB216F01DFF0020CDE90097049B594901
:109628001FFA8BF216F014FF564501D3D04504D922
:109638004A460020544916F00BFFD5E91703184392
:1096480043D1524916F004FF0020514916F000FF9B
:1096580040F60522B4F8F03993420ED8B3F5206FDE
:109668005DD840F20252934268D040F201729342B0
:109678006ED040F2015293425BD00026454D3C4FDC
:10968800DFF83091DFF83081DFF830A12B78002B3C
:109698003FF484AE2A464946002057F8043B16F0AA
:1096A800D7FE2A782B460135002AFAD15B78002BA1
:1096B80000F0238106F00303032B0CBF41465146FB
:1096C800002016F0C5FE0136E0E70020324916F00A
:1096D800BFFE00260127DFF8E880EA6D07FA06F3E7
:1096E800134204D032464146002016F0B1FE01363E
:1096F800202EF2D100260127DFF8C4802A6E07FA4F
:1097080006F3134205D04146002006F1200216F068
:109718009FFE0136202EF1D100201D4992E7A3F6C5
:109728000223032B4ED8DFE813F068009500C90028
:10973800E6001A49002016F08BFE9EE71849002023
:1097480016F086FE2A6C1749002016F081FE94E771
:109758001549D5E92423002016F07AFE8DE700BFCD
:10976800320003001000030027E1010098180020D0
:109778000037002008100020BBBF0200C2BF020053
:109788001DC102004FC1020089C10200A8C1020028
:10979800751C0300F0FD0200BEC10200EEC102000C
:1097A8002CC202005DC2020078C20200B6BF0200ED
:1097B800802A030072C40200741C0300BF2F030038
:1097C800B325030000204E4916F042FE95F8683094
:1097D8009F0703D500204B4916F03AFE95F86B30E9
:1097E8005E0603D50020484916F032FE95F96B3025
:1097F800002BBFF642AF45499CE70020444916F0CC
:1098080027FE95F86430980704D000202A6C414957
:1098180016F01EFE95F96430002B04DA00202A6F3A
:109828003D4916F015FE00260127DFF8F880DFF81D
:1098380004916A6E07FA06F3134207D058F82620F7
:1098480013781BB14946002016F002FE0136082E97
:10985800EFD112E73149002016F0FAFD2D4900201A
:109868002A6C16F0F5FD95F86530590703D50020E8
:109878002B4916F0EDFD95F96530002B04DA002030
:109888002A6F254916F0E4FD0826264FDFF8A48044
:109898006B6EF340DA0707D557F8262013781BB10B
:1098A8004146002016F0D4FD0136102EF0D195F86F
:1098B800640000287FF4E1AE1B493CE71B49002007
:1098C80016F0C6FD00202A6C124916F0C1FD1026BC
:1098D800144FDFF860806B6EF340DB0707D557F84D
:1098E800262013781BB14146002016F0B1FD013641
:1098F8001A2EF0D1C1E60E4921E74146E0E600BF45
:1099080094C20200ADC20200E8C202001CC30200F9
:1099180059C302005DC202007FC30200A6C3020051
:10992800BEC302009400030005C4020036C402004E
:1099380050C402009DC302001A4B2DE9F041D3F830
:109948008044D4F8A4309A6CD20728D5012503F5B1
:10995800005295649B699B0621D5EFF3118730234C
:1099680083F3118894F8953003F0FF069BB9236EB2
:10997800314620469B68984784F89550EFF3108845
:1099880072B62846314620F077FE0223404622F080
:10999800F4F884F8A13087F31188BFF36F8FBDE81E
:1099A800F08100BF08100020C6E700BF00000000DB
:1099B8004FF06042D2F8803E1B02FBD4704780F81B
:1099C8009910704790F89900704790F89600704782
:1099D800D0F8A4309A695206FCD50020D9637047A4
:1099E800D0F8A4309A69120643BF5B6A00200B7056
:1099F8001B2070470122D0F8A43019B103F5805319
:109A0800DA64704703F50053DA649A647047704764
:109A1800D0E9023253F822301A88014B1A80704775
:109A2800FC390020C3688268013BDBB252F823305E
:109A38005B78652B03D10022064B1A7470476E2B96
:109A480002D10122034BF8E7662BF7D10222014B22
:109A5800F3E700BF48280020C3688268013BDBB2F7
:109A680052F823305B78A3F1660253425341014A0E
:109A780093707047FC390020704770477047034A5D
:109A8800537C43F001035374704700BF48280020FB
:109A9800D0E9023253F82230034A1B78003B18BF42
:109AA8000123DB009374704748280020D0E9023274
:109AB80053F82230034A1B78003B18BF0123D374A4
:109AC800704700BF482800207047D0E9023253F899
