:1040000008100020FD8400007D2102008542000090
:1040100085420000852102008D21020085420000BA
:104020008542000085420000854200008542000074
:1040300091210200381C03008542000085420000E7
:10404000854200008542000085420000B1700000FA
:104050008542000085420000854200008542000044
:104060008542000085420000EDC10000818D000006
:10407000118D00008542000085420000854200004D
:104080008542000085420000854200008542000014
:104090008542000061440000854200008542000026
:1040A00085420000B94300009943000085420000AA
:1040B000854200008542000085420000D98202004E
:1040C000B9A00200B5A002003D7A0200CFA0020014
:1040D000BDA0020099820200C1A00200D1650200C9
:1040E00019830200854200008542000085420000DD
:1040F00085420000854200008542000085420000A4
:104100008542000085420000854200008542000093
:104110008542000085420000854200008542000083
:104120008542000085420000854200008542000073
:0441300085420000C4
:10413400F0B5114A114C124E00F00105E3695F0716
:1041440013D40DB9334213D103EA00078F4207D1C8
:104154000B4A1A40002A0CBF00206FF00100F0BD8A
:10416400013AEBD16FF00200F9E74FF0FF30F6E7C8
:104174006FF00100F3E700BF809698000000035041
:10418400020001002DE9F84F264D1646EB69012285
:1041940003F4803841F671330746EB63224BDFF8B2
:1041A4009090DA600EB9304629E007F5005404EA2D
:1041B40009046F61E41BEB69B44228BF34465B0712
:1041C4002DD48B465BF8043B01EB040AAB61D34569
:1041D4000ED10423002121202B61FFF7A9FF70B920
:1041E4002120FFF7A5FF50B959462744361BD9E7CC
:1041F40008210846FFF79CFF68B104232B610122C4
:104204000A4BDA60B8F1000F03D00022A3F5005383
:10421400DA63BDE8F88F5BF8043BAB61D7E74FF096
:10422400FF30ECE70000035000100350002003505F
:0442340000E0FFFFA8
:104238007047D0F8A4309A69120643BF5B6A002021
:104248000B701B20704780F89910704790F8990000
:10425800704790F896007047002808DB0122430950
:10426800034900F01F008240603341F82320704763
:1042780000E100E07047704770477047FEE7BFF302
:104288004F8F0549054BCA6802F4E0621343CB60BF
:10429800BFF34F8F00BFFDE700ED00E00400FA0513
:1042A80070B50D4E451E013915F8014F2346325D94
:1042B80002F00302012A11F8012F08BF04F12003BC
:1042C800B05C00F00300012808BF2032981A01D121
:1042D800002CE9D170BD00BF196703000368187886
:1042E800704710B503681A78022A1ED09A79022AF4
:1042F80019D159790F2916DCEFF31184302282F392
:104308001188012209488A40C0F82024C0F82424D2
:104318000C20074A00FB01220021C2E9011184F3A5
:104328001188BFF36F8F02221A7010BD00E003508E
:10433800081000202DE9F04104460C264FF0010832
:10434800124D0CB314F001000BD0002024F001042E
:1043580006FB00525768002FF3D09168C0B2B847E7
:10436800EFE72246013020284FEA520201D0D30756
:10437800F8D508FA00F20F2824EA0204E8D9103820
:1043880006FB0052B432E5E7BDE8F08108100020D2
:10439800064BD3F82404D3F8202403F50053104027
:1043A80000F05530C3F82004C4E700BF00C0035034
:1043B800064BD3F82404D3F8202403F50053104007
:1043C80000F0AA30C3F82004B4E700BF00C00350CF
:1043D8000B4B93F8682162B107280CD803EB001344
:1043E80093F878314BB10123064A834013640020C7
:1043F800704705487047054870470548704700BF33
:104408000810002000100450028000F0018000F025
:10441800078000F00B4B93F8682162B107280CD88D
:1044280003EB001393F878314BB10123064A83401C
:1044380013640020704705487047054870470548D1
:10444800704700BF0810002000200450028000F0D0
:10445800018000F0078000F01A4B2DE9F0411F6D34
:104468005B6D1F4000D5FEE701260025164CDFF8DE
:10447800608037421CD0C8F850602368C3B1A16877
:10448800284601316268A1609847637B012B0FD1F0
:1044980070B90E4B03EB451393F8F82160F3410212
:1044A80083F8F82193F8082260F3410283F8082280
:1044B8000135082D4FEA460604F11004D9D1BDE8AC
:1044C800F08100BF00000450741100200810002083
:1044D8000020045010B5EFF31184302383F31188C2
:1044E80000220E490B7B73B90D49026001EB0212E1
:1044F8000121C2F86C3182F8781184F31188BFF376
:104508006F8F184610BD0132082A01F11001E9D158
:1045180084F31188BFF36F8F0248F3E7741100200A
:1045280008100020048000F04369406CDA1C14383D
:10453800B2FBF0F203EBC203CA1DB2FBF0F2033385
:10454800B3FBF0F30132023301EBC20100FB0310AD
:10455800704738B5054644692146FFF7E5FF6A6CA0
:10456800E31D143AB3FBF2F3013304EBC304204414
:1045780038BD73B506460D460024F36B01225B690E
:1045880001A928199847019B013309D1736C043498
:1045980062196A405B421A42EFD0204602B070BDF1
:1045A8000024FAE7D01E009B42424241187E824214
:1045B80011D11A688A420ED85A688A420BD35A69AE
:1045C80001325A61D3E9030282423FBF986840F83A
:1045D800221001321A610120704700234FF0FF3288
:1045E80030B544689C4202D10023037230BD016893
:1045F80001EBC30541F833206A600133F2E7002379
:10460800F0B545689D4210D00468DF0054F83320A7
:1046180004EBC306B2F1FF3F08D0C2F31302914284
:1046280004D14FF0FF33E3517360F0BD0133E9E784
:1046380010B5032A029C07D1A26A5340626C524209
:10464800134201D1FFF7DBFF012010BD0023F0B5B5
:1046580045689D4202D14FF0FF300EE00468DE004D
:1046680054F83340671C09D0C4F31307B94205D185
:10467800240D1470036833445868F0BD0133E8E72B
:1046880073B5164600F108040D46204609680DF179
:104698000702FFF7DBFF032E05D16B68834202D1C7
:1046A8002046FFF7ACFF012002B070BD2DE9F043B2
:1046B800466886B3056898464FF0000CA946AE4692
:1046C80055F83C400CF1010CC4F31307013401D038
:1046D800B94217D066450EF1080EF1D12F460024D5
:1046E80003E0A64207F1080712D055F83430013428
:1046F8000133F6D1C1F3130141EA0851C7E90012A9
:10470800BDE8F08341EA0851CEE90012BDE8F08324
:10471800B8F1030F03D101230372BDE8F08300232E
:1047280003E09E4209F10809F5D055F833400133FA
:10473800C4F30754032CF4D1C1F3130343EA085319
:10474800C9E90032BDE8F08308B508301346D1E95D
:104758000012FFF7ABFF012008BD41F67132044B90
:104768000020DA63012203F50053DA60704700BFC6
:104778000000035041F671320121044BDA6303F55E
:104788000052D1600022DA63704700BF0000035076
:1047980037B5054601F10C04436901A901222046F9
:1047A8009847BDF804300122009369462046AB695A
:1047B800984703B030BD134B10B50446D3F8200119
:1047C80000F00700042816D8DFE800F003090D11EF
:1047D8001800012304B1206001B10B6010BD0A4B21
:1047E80018680423F6E7084B58680323F2E725F016
:1047F8009DFD0523EEE700231846EBE70223034857
:10480800E8E700BF0080005044390020002D310146
:104818002DE9F84341F671334FF001081E4D044667
:10482800EF69EB631D4B0021C3F80C80022368611C
:1048380021202B6127F080FBDFF86890064607F4FB
:10484800803740B1C9F80C8007B1E96301360CD153
:104858006E20BDE8F883212027F06EFBC9F80C8094
:1048680007B1EE63431CF3D008B17120F1E70C4B9C
:104878009A6801230A3202F01F02934023F00303CF
:1048880023449C4201D10020E3E754F8042B013271
:10489800F7D03E20DDE700BF0000035000100350B2
:1048A8000080E00F002003502DE9F04F80460F46AE
:1048B80015469A46044685B0DDF83CB0DDF84490CC
:1048C800206808B3DBF80060DAF800108E421BDAC3
:1048D8000E9B53F8261059B3FFF7E2FC40BB616802
:1048E8000136CBF80060087BFE281CD1109B0868B5
:1048F800CDE901B30E9B2A46009301215346CDF81A
:104908000C90FFF7D1FF04462B7843B999F8003093
:104918002BB97FB10123444689F800302B7020461B
:1049280005B0BDE8F08F0123109A13702B70EBE7E8
:104938000C34C5E73C46F2E70023F0B50B60136082
:104948000646D0F8AC0278B196F8AC0060B1012404
:1049580006F1AC07D6F8AC02844210D306F1AC00DD
:10496800B3F5007F10D30120F0BD0D6801350D604F
:10497800156801351560F85C01330A2802D0B3F5D3
:10498800007FF2D30134E5E7C15C0A29EBD00029A6
:10499800E9D01168013301311160E1E700280CDB2F
:1049A80001220649430900F01F008240203341F8E4
:1049B8002320BFF34F8FBFF36F8F704700E100E0F4
:1049C8004FF06042D2F8803E1B02FBD4704701468C
:1049D80038B508B9012038BD047D2046FFF7F8FC3A
:1049E8003023634303F1A04303F580232046DD6EA3
:1049F800FFF710FD094B9D421CBF042381F8A1302D
:104A080091F8953091F8A1002BB1022803D1012328
:104A180081F8A130DFE70428DCD1F8E7F4120020A0
:104A28003021037D02464B4303F1A04303F5802365
:104A3800D86E07491B6F884208D113F0020006D0D0
:104A4800106A136D1B1A584258417047002070476E
:104A5800F4120020D0F8A4309A695206FCD5002040
:104A6800D96370470122D0F8A43019B103F58053F7
:104A7800DA64704703F50053DA649A6470474BF6BA
:104A8800EF6283B2002B08BF1346044A000C13815F
:104A98004FF6CE2308BF184650817047443900208E
:104AA8002DE9F74F002900F0DF80D0E9054EEFF33C
:104AB800118B302383F3118811F8086C31F806CC78
:104AC800F30702D5BCF1000F07D18BF31188BFF3B0
:104AD8006F8F012003B0BDE8F08F8368D0F8109085
:104AE800A3EBCC0331F8048C0093836009F1010334
:104AF800A1F108050CF101020361B8F1000F3AD0E9
:104B0800A5EBC803DF88B3F802A001971F7806F069
:104B18000206FF0724D426BB019EA6EB0A06012E37
:104B280029D1009E0CF10202A6F108075244C0F8F0
:104B38001090876031F8028CB8F1000F1DD111F880
:104B4800085C21F8068C68F3000501F8085C013A56
:104B58005A801A7868F300021A700022DA803FE05F
:104B68004EB111F8086C42446FF3410601F8086C25
:104B780000269E80DEE72B46DCE705EBC809D0E976
:104B880000673744B9450ED311F8085C013A6FF352
:104B9800000501F8085C002521F8065C5A801A789F
:104BA80065F30002D8E715F838504E4615F00105B0
:104BB80030D011F8085C013A6FF3000501F8085C81
:104BC800002592B221F8065C5A801A7865F3000233
:104BD8001A70C3F107023244C2F3CF02DA80B280FE
:104BE800002C3FD0A3423DD36288002A08BF1C4650
:104BF800BEF1000F06D0734504D8BEF80220002A83
:104C080018BF7346C0E905438BF31188BFF36F8F54
:104C180000205FE7A8EB0C08B8F1010FC9D1B9F87B
:104C28000270A9F802501744B9F80620C2B109EB7E
:104C3800C20600250269013A02618268083A826068
:104C480011F8082C21F8065C6FF3000201F8082C13
:104C58001A785F8065F300021A70002EB9D17CE7DC
:104C68001646E6E71C46C3E7222033E738B520227C
:104C780004460D460C30002125F00DFB4FF0FF33A4
:104C8800C4E90035A36038BD10B5094C04F53D7082
:104C98001BF0F8FC94F8143313B994F8153333B1B6
:104CA800BDE810404FF47A6102481BF0F2BC10BD19
:104CB80008100020FC12002010B5054C20461BF0FF
:104CC800E1FC2046BDE810404FF4FA611BF0E1BC5E
:104CD8002013002007B5012006F05CFC002100909D
:104CE800054B0420054A07F0CBFE0122044B83F84C
:104CF800152303B05DF804FBADF0020048BF0200C5
:104D08000810002010B5104886B01BF0BBFC06F058
:104D1800F5FC022815D118230024012002930B4B1F
:104D2800224640F20241CDE90043CDE90304402385
:104D380019F01CF921460090054B0420054A07F09C
:104D48009FFE06B010BD00BF401300205039002060
:104D58006ABF020082BF020037B51D4C04F55670C9
:104D68001BF090FC94F8783303F00F03022B1BD14F
:104D780014F054FE174B0021174A0090042007F046
:104D88007FFEFF224FF6FF71002010F099FD0021F1
:104D98000346124A042007F073FE002384F81433F4
:104DA80084F8153303B030BD94F81453002DF9D1AD
:104DB80009F077FF29460346094A042007F060FEF8
:104DC80004F53D701BF056FC012384F81433E9E721
:104DD8000810002095BF0200AABF0200B2BF02005F
:104DE800C7BF020010B54C1C0B460119045D222CEC
:104DF80003D07B2C01D05C2C05D1D21A184425F0A5
:104E080076FA012010BD0020FCE710B5044644EAFC
:104E1800010313F00303084609D1934201D100208E
:104E280010BD54F8231040F823100133F5E721464C
:104E3800920025F013FAF2E710B50446AC3025F0DD
:104E48004EFA04F1AB031A180020934200D110BDAA
:104E580013F8011F0029FAD00A2908BF0130F4E726
:104E68002DE9F04705469146884625F038FA2A4646
:104E780006461346197801322029FAD0C9F80030BD
:104E88005C1B01236FF0404AC8F80030A64201D8E5
:104E9800002014E02F5D29197B2F12D0222F2ED14C
:104EA800D8F80030621C53442A4449F82320012CC6
:104EB80009D911F8013C13F0DF0F04D02120BDE817
:104EC800F0877D27F3E701342B5DBB4209D12B190D
:104ED8005B7813F0DF03F1D1222F00D12B55013479
:104EE800D4E75C2B07D1324621462846FFF77AFFE4
:104EF8000028E3D0013E0134A642E5D8DEE75C2F66
:104F080008D1324621462846FFF76CFF0028D5D045
:104F1800013EE4E7202FE2D10022631C9E420A7082
:104F2800DDD9EA18EB5C202BD9D0D8F800300F2B4C
:104F380005DC49F823200133C8F80030CFE71E20EC
:104F4800BDE7012307B502468DF80430022103208E
:104F580001AB18F0B7FA03B05DF804FB022307B5FC
:104F680002468DF804300021032001AB18F0AAFA9C
:104F780003B05DF804FB024600230121032018F06A
:104F8800A1BA002302461946184618F09BBA40F207
:104F9800011307B50246ADF804304021032001ABE8
:104FA80018F090FA03B05DF804FB1FB500239A6A65
:104FB800B2F5804F19D2146BB4F5804F15D201A801
:104FC800CDE9023318F018FC039BDB030DD5029BD7
:104FD8001A0E0AD0012A03D1C3F307430A2B04D9B6
:104FE800236C04B0BDE81040184740F2011004B02B
:104FF80010BD37B50D680C46AB88ADF804302B787A
:10500800022B15D00DF1030101A81CF083FE9DF8B9
:10501800033083F001032B70064B9C4208D12046D5
:10502800FFF75CF9014618B90420034A07F028FD88
:1050380003B030BD14FE02003048030013B5046805
:10504800A388ADF804302378022B15D00DF10301A5
:1050580001A81CF05FFEA2799DF80330012A13D144
:10506800618843EA41034FF6E07163F03F039BB266
:105078008B4203D12270638002B010BD4FF6DF72FD
:105088009342F8D10022F5E7002AF5D183F0010315
:105098002370F1E7F8B50B780446302B0D46164619
:1050A80004D14B7803F0DF03582B10D0264F6A1E2B
:1050B80012F8011F91BB28460A2224F011FA202C6D
:1050C80003460D462FD1B1FA81F040091BE04A1C76
:1050D8001D4912F8013F93B9284625F000F904F05C
:1050E8000303032BA0F1020012D10134A41084425F
:1050F8000AD1A87837288CBF0020012003E0CB5CB8
:1051080013F04400E5D1F8BDCCBF01200020FAE738
:10511800B0EBA40FD4BF01200020F4E77B5C13F0B0
:105128000400C5D1EFE726B1084302D0013B61F185
:1051380000050122A240013A1A40002D08BF9A42F8
:105148000CBF01200020DEE7196703000A78013848
:105158002D2A0ABF0122002289189BE70FB407B540
:1051680004A951F8040B01911BF09CFA002003B02C
:105178005DF804EB04B0704770B506460D4625F09F
:10518800AEF804463046FFF7E9FF044EAC4200D3C0
:1051980070BD3046FFF7E2FF0134F7E7D53503006D
:1051A8002DE9F84F044602216048FFF7E5FF1E216C
:1051B8002068FFF7E1FF63685868FFF7CFFF5C4896
:1051C800FFF7CCFF67683B7BFD2B12D8D7F8088028
:1051D8004FF0FF34404625F082F80646DFF84C9140
:1051E800DFF8A8A1DFF864B10C3717F8013BFF2BF3
:1051F80001D1BDE8F88F212B14D8212B14D8DFE872
:1052080003F0178C8884807C78741313131313139A
:105218001313706C6864605C5854131313131313DE
:105228001313504CFE2B34D006B10134414D02E02B
:1052380006B10134404D02214846FFF79DFF1E216B
:105248004846FFF799FF5046FFF788FF594628461A
:1052580025F029F83949002818BF29463848FFF7AA
:105268007DFF3B78202B02D12B201CF01DFC3548FC
:10527800FFF774FF4EB118F804301F2B05D018F84B
:1052880004001F2801D0B4424BDB2948FFF766FF12
:10529800ABE706B101342C4DCDE706B101342B4DF7
:1052A800C9E7002EA1D001349FE706B10134284D8B
:1052B800C1E706B10134274DBDE706B10134264DDB
:1052C800B9E706B10134254DB5E706B10134244DDF
:1052D800B1E706B10134234DADE706B10134224DE3
:1052E800A9E706B10134214DA5E706B10134204DE7
:1052F800A1E706B101341F4D9DE706B101341E4DEB
:1053080099E706B101341D4D95E706B101341C4DEE
:1053180091E706B101341B4D8DE706B101341A4DF2
:1053280089E71CF0C1FB0134A9E700BF5CC002009B
:105338008EC00200EEBF0200E8BF020045C00200B6
:1053480054230300A0370300F6BF0200FCBF02008D
:1053580005C002000CC0020017C0020021C00200F4
:105368002BC0020016C0020020C002002AC00200A2
:1053780033C0020037C002003FC00200E2BF020093
:10538800E9BF02003EC00200E1BF0200353603005B
:1053980010B50446236803B910BD237A13B9204613
:1053A800FFF7FEFE0C34F5E72DE9F04F00218346A8
:1053B800ADF5477D7C2207A8069124F06CFF58467E
:1053C80024F08DFF46AA019026A95846FFF748FD0C
:1053D8000446B0BB469824F082FFA0460546A14685
:1053E8002746DBF89C6086BBB8F1010F40F0D180FE
:1053F80006A824F074FF05EB040805F11803471B01
:1054080027EAE7750BEB08090DEB03042A4621464A
:10541800484624F023FF09F80560DBF89050A845BA
:10542800DBF8902000F3A580DBF894103A44394467
:10543800CBF89410CBF8902027443B1B002B00F3AB
:10544800A3800DF5477DBDE8F08FD6F808A0BAF126
:10545800000F61D05F4417F8012B202A14D00027D1
:105468000C2303FB07F20AEB020302935AF80230FB
:105478000093002B4AD0269B9945049346DC029B57
:105488001A7A1AB17A1C2FE00134E4E746AADBF84D
:10549800945052F829302D1B2A4618460099039338
:1054A80024F00BFF05900028ECD1009824F017FF9A
:1054B800029B01465868059A90F80CC0BCF1FE0F93
:1054C80016D1049B03F1FF3CE14527D0D0F800A09A
:1054D8000398009224F003FF0134009A04441BF857
:1054E800041019B109F101091746B9E70134F6E7C3
:1054F8008D42C7DC06A8029124F0F1FE0299084407
:105508007B2819D9734906A818F01CFA5A46019B3A
:1055180003EB0B018A4223D1366864E78D42E9DD4B
:1055280014464FF00C0A05680AFB04F2A95871B931
:10553800A0440D46019CE9E7009906A818F002FA74
:10554800654906A808F1010818F0FCF99AE706A8C9
:1055580018F0F8F9604906A818F0F4F90134E3E7FF
:1055680012F8010B0028D5D14FF0200302F8013CB6
:10557800D0E71BF802001CF097FADBF89020013501
:105588000132CBF890204AE714F8010B1CF08CFA92
:1055980053E77FF756AF26AF8022314638460DF5E0
:1055A8008C7A24F078FE4FF400723146504624F08D
:1055B80072FE06AB1A464FF0010912F8018BB8F1DA
:1055C800000F4AD118464AF82960009324F087FE54
:1055D800BC464246009B06A913F801EB0DF58C78F2
:1055E80058F8046B864242D1013291450CF801EB20
:1055F800F2DADBF89060AE4240DB384A06A95B4637
:105608003748FFF7ABFD384624F069FE02462C44C4
:105618002F44551B25EAE5720BEB040014440BEBF1
:1056280004060BF190018E424FD90BF19801884284
:105638004BD2791E4619321A002A39DD11F8012F8A
:1056480000F8012BDBF890200132CBF89020DBF832
:1056580094200132CBF89420EDE7B8F1200F06F141
:10566800010604BF4AF8296009F10109A5E70E44BB
:10567800B65C7645B4D00021B954BAE7DBF890207F
:1056880001361BF802001CF00FFADBF890200132FB
:10569800CBF89020AFE7DBF89010013A0131CBF856
:1056A8009010DBF894100131CBF89410002AF2DC4A
:1056B80000223D440BF80420EB1B002B7FF7C1AE02
:1056C80017F8010B1CF0F0F9F6E7394624F0C6FD8F
:1056D8002A46EBE747C00200D53503004CC002005C
:1056E8004FC002002DE9F843D0E9245604460F467E
:1056F800002294F89830012B07D10A2F07D10023F4
:1057080084F898300020BDE8F88300F29F801B2FB2
:1057180001D10223F4E70D2F0DD1012384F898302D
:105728000D201CF0C1F90A201CF0BEF9002301204D
:10573800C4E92433E7E74FF00008082F84F898807D
:1057480034D1454530DDB5420FD138461CF0ACF9AF
:1057580020201CF0A9F9013D38461CF0A5F9013EAE
:1057680004F80580C4E92456CCE7FBDA05F1FF39D3
:1057780038461CF099F904EB0903A6EB09026119F4
:10578800184624F0B4FD04F806800146013E484856
:10579800FFF7E4FC35464D4501DC4D46E2E70820BD
:1057A8001CF082F9013DF6E7ACD0DBE77F2F1CD176
:1057B800002EA7DDB542A5DA6319691C21441846F5
:1057C800721B24F094FD04F8068001463948FFF75F
:1057D800C5FC0820013E1CF067F9B542F9D1D4F8A0
:1057E8009430013BC4F894308CE70A2F98D0092FE5
:1057F80003D12046FFF7D8FD84E7D4F88C30013B6D
:10580800B3427FF77FAFB54204EB050805F1010904
:105818000CDB384688F80070D4F89430C4F89090BF
:105828000133C4F894301CF03FF96BE74146721B12
:1058380004EB090024F05BFD4046FFF78FFC0820CD
:10584800013E1CF031F9B542F9DDE2E7022B06D141
:105858005B2F01D1032353E784F8982049E7032BF2
:105868007FF450AF413F84F89820032F3FF64AAFAA
:10587800DFE807F002070A160121204600F01CF8AD
:1058880040E74FF0FF31F8E7B542BFF63BAF605D48
:105898001CF00AF9D4F890300133C4F8903031E79D
:1058A800002D7FF72FAF013D0820C4F89050BAE7CC
:1058B80058C00200F11D030073B50D460446FFF7FA
:1058C800BBFA6B1C25D1D4F8AC3213B1013BC4F838
:1058D800AC320025204624F002FDA84221D8002140
:1058E8002046D4F88C2024F0D6FC0023C4E92433C5
:1058F800D4F8AC325BB16A46204601A9FFF71CF820
:1059080028B1019D04F1AC06009BAB4214D802B04B
:1059180070BD012DFBD1D4F8AC328342F7D20133EC
:10592800D5E708201CF0C0F820201CF0BDF808209E
:105938001CF0BAF80135CDE7715D2046FFF7D2FEBD
:105948000135E1E72DE9F0470F4615460024DFF859
:10595800709002F1040899F8796302F1090A5FFA74
:1059680088F8A24505D8013689F879630020BDE892
:10597800F087052C11D8DFE804F01D08030A0C0E87
:10598800D1201BF093F90134EBE74046F9E70220F8
:10599800F7E70020F5E73046F3E7AB1D9C420BD054
:1059A800EB1D9C4208D005F108039C4206D0BB1FA2
:1059B800185DE6E75B20E4E75A20E2E75D20E0E7D0
:1059C800081000202DE9F743D0E9043404F17C07DE
:1059D800D0F80C900646013B102200213846D4F836
:1059E80074809DB224F057FC0B4BC5F30A0543EABB
:1059F8000513C4E91F39012394F8780084F88C3022
:105A0800C4F884803A46054B009604F164011CF002
:105A1800D5FA03B0BDE8F08300001030295A000021
:105A2800536910B514460022D3F8900083F88C20EF
:105A380028B10168C3F890100260FFF7C3FF6368DC
:105A48001BB100212046A2689847002010BD0346DC
:105A580093F89420084610B5FAB10A69B2F5006FB8
:105A68001DD8EFF31184302282F3118893F88C202B
:105A78004B617AB103F19002D3F890303BB90360DF
:105A8800106084F31188BFF36F8F002010BD1A4691
:105A98001B68F3E7FFF796FFF3E70E20F6E72120F0
:105AA800F4E7302337B5007D0DF10701434303F1D7
:105AB800A04303F58023DD6E1C6F26F0D9F89DF80E
:105AC800070040B9054B9D4203D184F00204C4F39A
:105AD800400003B030BD0120FBE700BFF4120020F6
:105AE80013B504460DF10701007D26F0C1F89DF8B5
:105AF800073043B1236DD4E912020244934218BF20
:105B0800184602B010BD3022237D534303F1A04351
:105B180003F58023DB6EEEE72DE9F04F044685B0F0
:105B2800007D04F13806FEF753FC002110223046B0
:105B380024F0B1FB4FF0300B4FF44473DFF80CA1A5
:105B4800207DDFF80C910AF53B7763870BFB009308
:105B5800C4E90F77DB6EBB4204D105B0BDE8F04F56
:105B6800FEF758BC0DF10F0126F082F89DF80F7072
:105B7800002F62D12046FFF7B3FF9AF868218046CC
:105B8800237DEAB1072B1BD80AEB031A9AF8782170
:105B9800B2B1EFF311818BF31188D9F834000BFB04
:105BA8000399D9F8642081F31188BFF36F8F01211D
:105BB80001FA03F3034204BFC2F30A135F183D4618
:105BC80004F11807102200213846D4F8109024F068
:105BD80062FB3022237D013D5343C5F30A052D01A5
:105BE80045F04075C4E9065903F1A043C4F8208084
:105BF80003F580231A6F94F82410520862F34101C8
:105C080084F82410196F94F8242027F0030761F30F
:105C1800000284F824201B6F626A9B0863F39F02CA
:105C280047F00207626267640094207D324621468D
:105C3800054B1CF0C3F9207D8FE794F844306FF3CF
:105C4800410384F84430EFE75D5C00000810002051
:105C58000000045092F8543037B5144633B1936DB0
:105C68000BB1D06D9847002384F8543094F89A30DB
:105C78001BB32046FFF715FFF8B1236E132120460A
:105C88005B6898471025236E20461B680DF10701B5
:105C9800984778B99DF8073003F0FD02112A05D11D
:105CA800A3F111025342534184F8A030013D15F08D
:105CB800FF05E8D12046FFF72FFF002084F85400A5
:105CC80003B030BD2DE9F04F9B460023044689B050
:105CD80005910392CBF80030DBF80050039B5E1B64
:105CE80000F0A180059B5D1900F09D80207DFEF7E6
:105CF8006FFB2046FEF794FE8146207DFEF78AFB67
:105D0800B9F1000F40F08F802046FFF7E9FE216DC2
:105D180094F89A8088429CBFD4E91203C018401AAC
:105D2800864228BF0646B8F1000F00F0AC80EFF3BA
:105D380011830493302383F311883746D4F850A095
:105D48002046FFF7AEFE0AEB06029245D4F89C10F7
:105D580072D1D4E912231344994208BFC4F89C2095
:105D6800049B83F31188BFF36F8F8046207DFEF775
:105D78002FFB0DF11F01207D25F07AFF2046FFF74C
:105D8800AFFED4F850A08146504540F28A80A36CFB
:105D9800B5B29A457DD123691022049304F12803F2
:105DA8000021184624F077FA3021049A013DC4E90D
:105DB8000B2A227DC5F30A054A432D0120F003036F
:105DC80002F1A04245F0407543F0020302F580223B
:105DD800A5621367236DD4E9121233440A4493422F
:105DE80008BF0B464B45236505D10123204684F89F
:105DF8005430FFF791FE207DFEF70CFB94F89A30A3
:105E08003BB1B8F1000F04D0236E112120465B6826
:105E18009847DBF8003037B1039A3B449342CBF8FC
:105E28000030FFF459AFDBF80030002B14BF00201E
:105E38001B2009B0BDE8F08F0AF1010A0AF1FF330F
:105E4800994210D1C4F89CA01AF8013C112B01D03A
:105E5800132B14D1013FA3F111014B424B41C14611
:105E680084F8A03071E71AF8013C03F0FD0111290C
:105E780006D1013FB9F1000F3FF467AFEBE7C14628
:105E880005F8013B61E73246284624F0E7F9374632
:105E98006CE7238DC3F30A12154465F30E132385AB
:105EA80098E79DF81F30207D93B93023434303F1D1
:105EB800A04303F58023596E5A6EC1F30A1122F4E8
:105EC800FF42314422F0700242EA01125A6681E729
:105ED800CDE900644A462369216819F0C5FB3022E0
:105EE800237D534303F1A04303F580235A6E22F424
:105EF8008012EBE713B504460090002104200C4BF8
:105F08000C4A06F0BDFD64B10B4C002104200B4A7D
:105F180006F0B6FD04F54E701AF0B4FB002384F8C1
:105F28001533074802B0BDE810401AF0ABBB00BFFC
:105F3800082E030048BF0200081000205DC00200C0
:105F4800FC120020034630B100201A5C02B97047E9
:105F580001308142F9D170474FF0FF307047FEE7BA
:105F680000207047002070470020704710B520B30C
:105F7800037803B3013BDBB2022B20D8114AD35C70
:105F88004278D340DB071AD5EFF31184302181F32F
:105F98001188037801224B4341F21001407803F144
:105FA800A043824003F570335A5084F31188BFF33D
:105FB8006F8F002010BD7F23E2E72220FAE721201F
:105FC800F8E700BF32FE020010B520B3037803B330
:105FD800013BDBB2022B20D8114AD35C4278D34074
:105FE800DB071AD5EFF31184302181F31188037888
:105FF80001224B4342F21001407803F1A043824052
:1060080003F570335A5084F31188BFF36F8F002063
:1060180010BD7F23E2E72220FAE72120F8E700BF3E
:1060280032FE020073B5054690F842601C463046C1
:106038000DF103031BF03CFDEB6B012E5B690DD1E9
:10604800324601A998479DF8033013B1BDF80630D0
:106058000193BDF80430236002B070BD01222146CF
:1060680002B0BDE87040184703460846EFF31081B8
:1060780072B6034ADB6BC2F88813DB68184700BFA7
:10608800081000202DE9F0410646406882B0C0B1F2
:106098000F4690460024336853F8345003EBC4038A
:1060A800C5F30752C5F31301013504F1010406D005
:1060B8005B683046CDF80080B84710B170688442FC
:1060C800E9D302B0BDE8F081036813F07E0F03D175
:1060D800406820F07C40704713F078001CBF03F044
:1060E8007F03D81F7047202A0B681EBF4FF0FF316F
:1060F80091408B43590801F055315B1A03F0333155
:106108009B0803F033330B44017803EB13130A4461
:106118004FF0013103F00F334B43A2EB13620270CF
:1061280070472DE9F041054600244868EB6B86B0BE
:106138000E4601225B69029402A908309847A046DE
:1061480095F84230012B40F08180632C03D90298E6
:1061580006B0BDE8F081612C08D805AB224631466F
:106168002846FFF75FFF9DF8143013B305AB2246AE
:10617800314628468DF81080FFF754FF95F84230D5
:10618800059F012B52D14FF6FF739F4200F091807B
:10619800082205A904A8FFF7A6FF9DF81020C7F359
:1061A80007239A4240F08580FFB2029B3B4402934A
:1061B8007FE095F84230012B2ED122463146284601
:1061C80003ABFFF72FFF3146284604AB621CFFF7ED
:1061D80029FF3146284605ABA21CFFF723FF1022F2
:1061E80008230DEB02010DF107008DF80730FFF7CA
:1061F8007AFF102205A9FFF776FF039BDAB2002A7F
:1062080050D19DF80720B2EB132F4BD1DDE90432B2
:1062180003EB0243029345E0302C29D942E09DF874
:106228000720B2EB134F3DD1049BF3E77B1C40D012
:10623800102205A90DEB0200FFF755FF9DF810206D
:10624800C7F307439A4234D1BFB2AEE7312C3FF6C9
:106258007EAF8BD005AB224631462846FFF7E2FEDB
:10626800BDF81430002B81D195F84230012BA4D011
:1062780022463146284603ABFFF7D4FE314628466E
:1062880004AB621CFFF7CEFE102320220DEB0301A6
:106298000DF107008DF80730FFF725FF039B9AB231
:1062A800002ABCD095F84230012B14BF01230223E9
:1062B8001C44013444E737B5044600251B22011D60
:1062C8000DF107008DF80750FFF70DFF63689DF883
:1062D8000720B2EBD36F03D123F0784003B030BD71
:1062E8001B2204F108018DF80750FFF7FCFEA06897
:1062F8009DF80730B3EBD06F0ABFC0434FF0FF30B3
:1063080020F07840EAE74BF29A22036810B5B2EB26
:10631800134F044613D19BB2012B15D1FFF7CBFFC6
:10632800013011D04FF6FF72E068B2EB104F4FEA20
:1063380010430BD180B2C01A18BF012010BD013321
:1063480014BF04200320F9E70420F7E70220F5E74B
:10635800F0B50546002687B0EC69013CB44203D885
:106368000C46204607B0F0BD01B14C1E6F6C286882
:10637800EB6B05225B6901A907FB0400984701A89C
:10638800FFF7C1FF0128ECD921460136E4E703688D
:10639800F0B5CC1A436C0646B4FBF3F4002587B07D
:1063A800F36937685A1E9542706C06D3736C30686F
:1063B80003FB0400143007B0F0BD0134B4FBF3F262
:1063C80003FB1244F36B05225B6901A900FB04700F
:1063D800984701A8FFF797FF0128E7D90135DFE7BC
:1063E80010B423F0030422449B070A44436C18BFEB
:1063F80004325B4282EA0104234202D05DF8044B76
:10640800C5E710465DF8044B70472DE9F04F144678
:1064180007460E468BB00393C36B01225B6907A93D
:1064280060689847FB6B01225B69304606A998476C
:10643800079B5D1C07D10022A360A275627500202E
:106448000BB0BDE8F08F0122A2750022217E069DC7
:1064580004EBC101CE610A846068C5F3D31CB04265
:1064680005F07F010CD14FF0FF33C4F800C021754F
:10647800A360237D043B022B26D80023A375DEE707
:1064880094F814E020688E4503D1A0EB0C0042423A
:10649800424103F07F0001288CBF00200120012920
:1064A8008CBF00210121884218BF002215F07E0F01
:1064B800A27503F07E0304D1002BDAD00023A37564
:1064C800D7E7002BD5D1F9E715F07E0F0FD1FB6B7D
:1064D800022230465B6908A9984708A8FFF7F4FD2F
:1064E800237D032B50D8DFE803F0140E045806A8C8
:1064F800F4E7CC22237E04EBC3031A840123634A06
:1065080013441B7F0AE0237E04EBC3031884002393
:10651800F5E7237E04EBC30318840123149A137050
:10652800069A12F07E094FEAD26A227E37D1FB6BB7
:1065380004EBC2020AF003055B69B2F8208082F816
:10654800225008A902223046984720220DF1170050
:106558000DEB02018DF81790FFF7C5FD1A2209A966
:10656800FFF7C1FD9DF81730099A4FF0080BB3EB00
:10657800926F0CBF012300236375637D33BB002337
:10658800A3754FF0000950E0227E013BDBB204EB1B
:10659800C202052B1084C0D8B1E70223AFE700255B
:1065A80004EBC202B2F8208082F8225006A91B220E
:1065B80008A88DF82050FFF796FD9DF820204FF091
:1065C800040BA2EB0A0253425341D5E794F8169004
:1065D800B9F1000FD5D0B8F1000F08D1D5B101231A
:1065E800627EE37552BB9D4218D1657614E07B6CE0
:1065F80006EB0B02594286EA020008421CBF002142
:10660800A175591E0A409B1A4345B8D3A37D002B98
:10661800E4D1B6E7E37D43B94FF0000943465A4653
:1066280031463846FFF7DCFEA060A27D237E5AB9CA
:10663800012B27D801332376A07D01E7012DF4D063
:10664800032DE9D1A376E7E72269012B42442261B1
:1066580018D801332376039B002BEDD0E37D002B64
:10666800EAD0B9F1000FE7D1032DE5D0A1684B1CA2
:10667800E2D0149B2246009338460123FFF7C5FE5B
:10668800A075D9E70023A375D6E700BF10FE020066
:1066980013B50C4600212176009361681346224603
:1066A800FFF7B3FE18B1E37D03B1A07EA075A07D0E
:1066B80002B010BD2DE9F743044616461F460D46A5
:1066C800DFF87480816AE36A8B421ED04B1C1CD0B1
:1066D800DFF860904846FEF7C9FA0122494620468D
:1066E8000DF10703FFF7D4FF30B13B4620469DF874
:1066F80007201049B04740B1D8F894134A1C07D076
:10670800012D0DD0E36A9942E4D103B0BDE8F083CE
:10671800D8F890132046FFF73AFE012D0146D2D152
:10672800D8F8903381EA0302636C5B421A42ECD1D9
:10673800C9E700BF94130020081000202DE9F0419C
:10674800D0E90A369E42044686B028D11422C3698D
:10675800456802FB1355284606B0BDE8F08120685D
:10676800676C331AB3FBF7F3E26B07FB0300D2F84D
:10677800148001A90522C04701A8FFF7C4FD01281C
:1067880004D0636C1D44013B3340ED1A314620466A
:10679800FFF7FDFD0646A36AB342E0D1DBE700251B
:1067A800F9E72DE9F04F0F469A46002389B00446D1
:1067B8004FF0FF31104690468DF80B30FEF756FA31
:1067C800B7F5801F20D2394603AA04F10800FDF767
:1067D8003DFF451C014605D1237CBBB92D2009B0DE
:1067E800BDE8F08F4046FEF741FA012241462046B7
:1067F8000DF10B03FFF74CFF0028EDD09DF80B308F
:106808008AF800300020EAE7B81CE5D1E66A711C76
:106818002CD12046616AFFF79BFD0646BB1C18BFBA
:106828000123DFF8C4B00093636A626C01932368A4
:1068380003A902FB0639E36B484605225B6909F1A7
:1068480014099847002549464B1C05D0636C81EA1A
:1068580009025B4213420FD031462046FFF778FD0C
:10686800019BB3422FD085BB0646DDE72368F61AA5
:10687800636CB6FBF3F6D1E71A48FEF7F7F9204642
:10688800009A18490DF10B03FFF702FF8446B8B1CF
:10689800BA1C03D0DBF8B833BB4211D145469DF88A
:1068A8000B30DFF840E08AF80030BEE80F000FC573
:1068B800BEE80F000FC59EE8070085E8070065469B
:1068C800DBF8C013C0E7002D88D0B7F5801F99D238
:1068D80039469AF80030D8F8042004F10800FDF78A
:1068E800E5FE8FE7C0130020081000202DE9F341D2
:1068F8001F4600230C46164605463B6058B390F8E1
:10690800343053B3B1F5801F29D2DFF85880012104
:10691800FFF7AAFB214628460DF1070308F579720F
:10692800FFF73FFF0446A0B99DF80730032B10D0AE
:10693800022B0AD10123336004233B60E86B1BF070
:106948001BFA204602B0BDE8F0813060D8F8F43375
:10695800F3E72D24F2E72124F3E71124F1E72924B2
:10696800EFE700BF0810002073B50D46D11E4A425C
:106978001C461B7E4A419A4228D1296823689942BD
:1069880024D36368994221D8124E0DF1070306F506
:106998008262FFF706FFC8B9D6F814246B689A42DA
:1069A80014D19DF80730DA1E53425341227E934298
:1069B8000CD1636901336361D4E90323934205D29F
:1069C8002968A26842F8231001332361012002B02C
:1069D80070BD00BF0810002070B50025044686B0C1
:1069E8000562E369AB4202D8206A06B070BD666CE6
:1069F8002068E36B05225B6906FB050001A998473F
:106A080001A8FFF780FC012898BF236A05F101055A
:106A18009CBF01332362E4E72DE9F04F97B0CDE93D
:106A280008230F460A69416CD31D1439B3FBF1F3EF
:106A3800013302EBC302036B04469342C0F00882A1
:106A48000023DFF880920C93E36A9C48194606936A
:106A5800FEF70CF9D7E903360393099B022B61D1A2
:106A6800CC2E40F0E081089B002B2DD039462046E3
:106A7800FFF757FB656C069A6B1E13401290ED1AD0
:106A8800E36B01225B69786814A99847149B13F09B
:106A98007E0F14BF04230823782E059351D90122B1
:106AA80000234FF0080A04923A68C9F8C863C9F885
:106AB800B823099A032A62D0022A14D0049A002A19
:106AC80014BF0022072212E0039B01221B684FF02B
:106AD800080A12933B680492C9F8B833082305934F
:106AE800089BC9F8C863049AC2F10202D2B289F8B5
:106AF800CC234FEA9A020E92069A019200220A9239
:106B08000D9207920B92606C019A411E1140421A35
:106B1800002E36D053449A423ED8236B1B1A0B449E
:106B2800236359E1656C069A6B1E1340782EA5EB1A
:106B3800030516D8FB7D7BB9089B002BA0D1042345
:106B48000593331DAB4212D9B6B1082DA7D804233B
:106B580000229A460492A7E7089B002B90D10823AD
:106B6800EEE7089B002B8BD10823059397E70023BA
:106B780004934FF0040A97E704230496F9E7099A67
:106B8800B5E75245C9D3B046019B53440293079BCE
:106B9800002B18BF032314E0A2EB0A02019B9642C4
:106BA800B046534428BF904696420293EFD901233A
:106BB800D9F8C82389F8CF33964243D1019AC9F846
:106BC800BC23079399F8CF33002B3DD099F8D023F5
:106BD8000199D31C09EBC303C3F8BC13079901320D
:106BE800A3F8C08383F8C21389F8D023B8F1000F43
:106BF80014D0099B022B2BD10A9B7BB90D9B4344D4
:106C0800032B0BD9E36B01229B69029812A99847C1
:106C18000546002840F01E8101230A9399F8CC33D9
:106C28003D68274A012B02EAC51528F07C4B40F243
:106C380090809A1E012A03D908F1070303F07F0305
:106C48001D438CE00223BCE7019BC9F8BC33CDE7A8
:106C5800089B002B38D1039BB8F1030F03EB080BFB
:106C680028D9DDE90201E36B4FEA98029B6998474E
:106C78000546002840F0D18018F0030266D0039B37
:106C880028F003052B440393029B1D444FF0FF3368
:106C9800039913A8139323F0E1FAE36B2846012222
:106CA8009B6913A998470546CDF80CB0002DB5D0BF
:106CB800029B76E04246029DE8E700BFC013002031
:106CC80080FFFF070810002007F12003DDF808B057
:106CD8000F93FB7D78689BB100233D7E0B9AD9B258
:106CE8008D4211D90F9903F1010C31F833109142FB
:106CF80026D9059907EBC303D8690A44104403E071
:106D08000B9B059A13441844E36B01225B6913A992
:106D18009847139B012211930B9B584604330B93FE
:106D2800E36B11A99B699847029B05464344A3EB73
:106D38000B03042B07D9002872D10BF1040BC8E709
:106D48006346521ACBE7CDF808B0AFE7CDF80CB0E0
:106D580064E7079A43EAC2632B4343F060454FF068
:106D680000038DF84C30049BCDE9145B002B49D00F
:106D7800202214A913A8FFF7B6F91A2215A9FFF7BC
:106D8800B2F99DF84C304BEA83631593E36B0E9A86
:106D98009B69019814A99847019A051E0C9B18BF76
:106DA800134652460C93204643460199FFF718FBB9
:106DB800236B08F10302A3EB0A0322F003029B1AD8
:106DC800C9F8C0032363002D44D10D9BA6EB080628
:106DD80043440D93029B019320460199FFF7D7FA8C
:106DE80000230190002E7FF48EAE494A3968D2F80C
:106DF800C03304F10800E362D2F8BC23099BFDF715
:106E080055FC11E01B2214A913A8FFF76CF99DF893
:106E18004C3045EAC3651495B8E7CDF80CB047E7A0
:106E2800CDF808B044E77026304617B0BDE8F08FBB
:106E3800002650E03A69616CD31D1439B3FBF1F3B5
:106E4800013302EBC302236B9342BFF4FDAD5DE057
:106E58001C26E9E73D2D59D104F108030193266862
:106E6800069B2046E16AD4F844A0A3EB060BFFF783
:106E78008EFAA26ABBFBFAFB8242DBD0616CD9F8BE
:106E8800C02301F1FF3C02EA0C0C226B0C9B521A46
:106E9800624422632268E0629A1AB2FBF1F8C345A1
:106EA800C6D10AFB0866069B06F1140BB3EB0B066A
:106EB80011D0E36BB20859469B6998478246E26A4B
:106EC800069B3244E262226B0198D21A5A4422632A
:106ED800FDF783FB56462368616CE06B01FB0831C4
:106EE800FDF756FC2046FFF777FD2046FFF726FC06
:106EF8002063002E9ED03A69616CD31D1439B3FB10
:106F0800F1F3013302EBC3029042A8D22E468BE77D
:106F1800081000202DE9F3471E4643690446B34292
:106F2800884617469DF8289074D300258DF8075099
:106F38002046FDF70EFBD4F830A082450AD2236A1A
:106F4800B5EB430F06D220460DF1070119F058F9A9
:106F580000285DD09DF80730012B04D120460DF1A3
:106F6800070119F04DF9B9F1030F06D03146204653
:106F7800FDF7DAFA256B85424ED3284D4FF0FF31E5
:106F880005F58260FDF772FE4B460022204605F5A6
:106F98008261C5F82064C5F81084C5F81C74FFF731
:106FA8003BFD236E06467BB32046FDF7D2FA636E9F
:106FB800256B03449D428CBF00230123854298BF63
:106FC800002584F85030237C88BF2D1A656584F825
:106FD800583073B1002120461AF0DAFE0121054627
:106FE80020461AF0D5FEE2682B18934294BF00237E
:106FF8009B1AE36594F8503013B994F858301BB1D4
:10700800236E04F150009847304602B0BDE8F0877F
:1070180001358DE76226F7E71C26F5E70810002002
:107028002DE9FF410F4690461E46054698B390F855
:10703800343093B3B1F5801F31D21A4C0221FFF7D7
:1070480013F8394628460DF10F0304F57972FFF756
:10705800A8FB78B1012342460093394633462846B7
:10706800FFF758FF0446E86B1AF086FE204604B086
:10707800BDE8F0819DF80F30012BEBD1D4F8F42353
:107088009642E7D132464146284619F07BF9044634
:107098000028DFD1E7E72124E8E71124E6E72924DF
:1070A800E4E700BF0810002007B51F4890F83C34FB
:1070B80003B9FEE70023694600F58860CDE900338F
:1070C80016F064FBE8B9194AD2F84031D2F84021E9
:1070D8001F2B4FF001030FD9203A9340019A1A430E
:1070E800019208236A4612491248FFF799FF124B8A
:1070F800124A1A60FDF7C3F89340009A1A430092A7
:10710800EFE72D28F3D1094AD2F84031D2F84021CF
:107118001F2B4FF0010385BF203A93409340019302
:1071280098BF0093DDE700BF0810002000800044EE
:107138000071080048140020000000200B020FF026
:1071480070B586B00E4605460392A0B390F8343069
:107158009BB3B1F5801F32D20221FEF785FF31467D
:107168002846184A0DF11703FFF71BFB044618B908
:107178009DF81730032B0ED1022331460093284681
:10718800CC2303AAFFF7C6FE0446E86B1AF0F4FD09
:10719800204606B070BD022B0BD10A492846FEF7DF
:1071A800C0FF039902468142EFD028461AF0E4FC5A
:1071B800EAE76124E9E72124EAE71124E8E729243A
:1071C800E6E700BFEC13002030B50C46054685B055
:1071D80028B390F8343023B3B1F5801F23D20221AD
:1071E800FEF742FF0DF10F03214628460F4AFFF72D
:1071F800D8FA034688B99DF80F20032A0DD0032238
:107208002146009202462846FFF784FE0446E86BB2
:107218001AF0B2FD204605B030BD2D24F7E7212431
:10722800F8E71124F6E72924F4E700BFEC1300205F
:107238002DE9F341089C032A1746266806D1237ACC
:10724800012B25D0012002B0BDE8F081DFF898803D
:1072580030460DF1070308F58262FFF7A2FA606075
:107268000028ECD12568D8F81434A96AD5F844C0A8
:107278004B40CCF100021340207AE0D1012809D11B
:10728800E068D8F8202402447069824202D9237445
:10729800207CD8E72868EB6A1B1A081AB3FBFCF3B2
:1072A800B0FBFCF083420BD1706CF36A421E1340B2
:1072B800326B121A134428463363FFF768F8E86202
:1072C800D8F82024E36808321344E36001223B46DF
:1072D80004492068FFF7A0FB60600028AFD00020B9
:1072E800B1E700BF1814002008100020032A2DE978
:1072F800F34106460D4617461C4606D1237A012B54
:1073080024D0012002B0BDE8F081DFF86080096870
:107318000DF1070308F58262FFF743FA6060002861
:10732800ECD19DF80720237A032AE7D0D8F8141463
:107338006A689142E2D1012B2969D4F80CC007D1BF
:1073480072690CEB0103934202D92074207CD9E7BF
:1073580008316144E1603B46012229463046FFF787
:107368005BFB60600028C9D00020CBE70810002034
:10737800F0B504460D46466CE36B006887B00522FD
:107388005B6901A906FB0500984701A8FEF7BBFF4A
:10739800012804D801A8FEF78EFF07B0F0BD2946E2
:1073A8002046FEF7D5FF0646676C2068E36B05228A
:1073B8005B6901A907FB0600984701A8FEF77BFF58
:1073C800431CEAD0B54238BF0130E6E72DE9F04367
:1073D8000646994689B0036908460F46904698477D
:1073E8000446002867D1D9F804305B0A012B2246ED
:1073F8004FEA530304F10104F8D899F8035099F8B7
:1074080002302D03DB0203F4006305F480551D43AD
:10741800B9F800304FF00009C3F30A0352032B44B4
:1074280092B29D18294B0DF107001B2228F07844D1
:1074380002A9039302948DF80790FEF754FE9DF875
:1074480007306FEA054544EAC36404946FEA080408
:107458001B2224F0784402A902948DF80790FEF7C5
:1074680042FE9DF807306FEA154544EAC3644FF0C1
:10747800FF3301220594069307A9B369079507F11D
:107488001000984701220446B36905A907F10800CE
:1074980098470122484518BF0446B36904A9381D16
:1074A80098470122484518BF0446B369384603A9DE
:1074B800984728B1044639463046FDF769F901E096
:1074C800002CF8D1204609B0BDE8F08301009AB23B
:1074D80038B50446456C006804F1400305FB01011A
:1074E800E06BFFF773FF05462046FFF775FA28465D
:1074F80038BD2DE9F04F4FF0FF334FF6FF720025EE
:10750800044600F10808C0E909238BB0C36205628C
:10751800056340468B46FDF760F82046FFF75CFAA6
:1075280050BB4FF6FF79676A00264F4514BF3D46AA
:107538000025E3699E4248D32046FFF74DFA18BB61
:107548005E200BB0BDE8F08F2368E26B606C566973
:1075580000FB0530052205A9B04705A8FEF7D3FEB4
:10756800012828D129462046FFF702FF421C294658
:107578002046FFF7ADFF0135E3699D42E4D320467D
:10758800FFF72AFA0028CCD000254FF0FF394FF634
:10759800FF734F462E46C4E90853E3699E423ED323
:1075A800A5EB0905012D5BD84FF6FF72636A93427C
:1075B80068D16720C5E70338C0B20128DBD829465F
:1075C8002046FFF7D5FE0246D1E7E26B2368606CE0
:1075D800D2F814C000FB0530052205A9E04705A82C
:1075E800FEF791FE022807D04F450DD10BF101029D
:1075F80029462046FFF76CFFE3690135B5FBF3F236
:10760800013603FB125594E729462046FFF7B0FEE2
:10761800B0F1FF3F14BF02465A460132E8E7E26B79
:107628002368606CD2F814C000FB0630052205A957
:10763800E04705A8FEF767FE01280FD805A8FEF762
:107648003AFEB84238BF6662814528BF8146854206
:1076580038BF05460746236A0133236201369CE793
:107668004FF6FF7300256362E3699D429CD2666C06
:107678002068E36B06FB050005225B6905A99847AE
:107688000135F1E7E26B666C2068556969460522A9
:1076980006FB0300A847626A616C23684E4D01FB34
:1076A80002331433A3624FF0FF336FF00101E3623A
:1076B800204605AB05F58262FFF773F8002851D123
:1076C800D5F8185429462046E562FCF752FF206396
:1076D80020B92046E16AFEF75AFEE06229462046B4
:1076E800FEF755FE0546A36A9D423DD16569626C69
:1076F800E91C143AB1FBF2F1002705EBC10503358B
:10770800B5FBF2F53E460235E3699E423ED3AF42F1
:1077180057D22046616AFEF71BFE4FF00008064666
:1077280004F1400A474512D8626C2368694602FB97
:107738000639E36B05225B69484698476846FEF7B9
:10774800BAFD534602464946E06BFFF73FFE314615
:107758002046FEF7FDFD08F10108A8450646E1D3DD
:107768006420EEE6A56AADE729462046FCF701FF4E
:10777800236B29460344064623632046FEF707FE8B
:107788000546002EAFD1C4E90B06ACE7626C23684E
:1077980005A902FB0639E36B05225B694846984751
:1077A80005A8FEF7B0FD012809D8204609F1140103
:1077B800FCF7DFFE636C143B984208BF01370136C3
:1077C800A2E74046FCF709FF002320461946034A72
:1077D800FEF770FF0020B4E60810002051470000B3
:1077E8002DE9F8430025DFF890810E46D8F8A894D3
:1077F8000446C8F8A85418B921252846BDE8F883D6
:1078080090F8347007B30A6803689A4240F0A98078
:107818004A6843689A4240F0A4808A6883689A421A
:1078280040F09F80CA68C3689A4240F09A800A690B
:1078380043699A4240F095808A69C36B9A4240F046
:1078480090804B698361D8E768223946856B22F0BE
:1078580022FD336804F1080023607368A563636040
:10786800336963617369A361D6E90223C4E902231A
:10787800FCF7B3FEB36904F14000E3639B689847E3
:1078880020B9676C17B16368B3FBF7F794F8433016
:10789800E761002BB0D00023656C2366002D68D00B
:1078A800002F66D02368B3FBF5F205FB1233002BDB
:1078B80059D16768B7FBF5F605FB1676002E52D14D
:1078C8002046FCF746FEA369043303449F424CD389
:1078D80040F634726369CC3B934248D8B5F5805F73
:1078E80047D303212046FEF7BFFBD4E90001E36B31
:1078F8001B6898470546E36B0220DB6898472DB163
:1079080084F83460E06B1AF037FA76E74946204687
:10791800FFF7EFFD6428054604D149462046FFF7E6
:10792800E8FD0546636C143BBDB9226A204602FB9C
:1079380003F6FCF70EFEA369043303449E4223BFFB
:10794800012384F83430D8F8AC3484F834502ABF92
:1079580001335A25C8F8AC34D4E7002384F834300E
:10796800D0E75D2549E7592547E75A2545E75F25CB
:1079780043E75B2541E700BF0810002001490248A2
:107988002EE700BF543900204814002030B40446C4
:10799800EFF3108072B6256885EA02030B406B404E
:1079A800236030BC24F08EB9F8B50D46214916463F
:1079B800D1F810236A1E0E2A07460478437829D97D
:1079C8006DB3002201204FF0300C98400CFB0411DD
:1079D80016B341F2100C41F80C0004EB4404072BD9
:1079E8004FF00F014FEA04141BD89B0012489A402D
:1079F80099402044FFF7CAFF5DB9012230207B7807
:107A080039789A400B4B00FB013386B141F21001E3
:107A18005A50F8BD2A46D5E742F2100CDBE72A4651
:107A2800DBE7083B9B0005489A409940E1E742F2B2
:107A38001001EDE700C0035004C003500CC0035010
:107A480038B510B30F2922D80378E3B1013BDBB274
:107A5800022B1CD8104C234493F822304478E3407E
:107A6800DB0714D50D4BD3F8104394B9EFF3118508
:107A7800302383F31188FFF797FF85F31188BFF34D
:107A88006F8F204638BD7F23E8E72224F9E72124B9
:107A9800F7E70224F5E700BF10FE020000C003501C
:107AA8007FB504680022A3880121054602A8ADF825
:107AB8000830FFF7C5FF0DF1070102A81AF02AF9EF
:107AC8009DF8073083F001032370A379022B6AD154
:107AD8004FF0FF339DF808200393002A66D0D3188F
:107AE800DBB2022B04D9FF2A09D02B46042256E028
:107AF800404AD35C9DF80920D340DB07F5D5EFF366
:107B08001186302383F311889DF80840FF2C6CD030
:107B1800394BD3F81033002C4CD19DF80930052B84
:107B280063D10122032102A8FFF73EFF0123324A55
:107B380004F11000D2F83014834021EA0301C2F89E
:107B48003014D2F83014C2F83014D2F82C14194377
:107B5800C2F82C142949CA6E02F03002202A1FBF2D
:107B6800CA6E22F0300242F01002CA66244AC2F8F5
:107B780020340C22234B02FB0433234AC3E92E256D
:107B88009DF80830FF2B04D00123204A8340C2F817
:107B9800243486F31188BFF36F8F01222B4603A983
:107BA80002A81AF029FA002004B070BD7F239DF8BE
:107BB8000920A1E7012C05D19DF80930012B14D12A
:107BC8000324AEE7022C06D19DF809305BB1052BE2
:107BD8000BD10724A5E7032C07D19DF80930022B08
:107BE80003D109249DE706249BE786F31188BFF398
:107BF8006F8F7AE732FE020000C003500040005049
:107C080000E0035008100020FB4F000000D0035094
:107C180003681A78022A02D100225A8040E7704786
:107C2800F8B504460D461F4616464AB101238B4057
:107C38003021184A01FB0022F7B141F210015350DC
:107C480004EB4403072D4FF00F014FEA031316D836
:107C5800A80006FA00F281400F481844FFF796FE84
:107C68004EB9012330210B4AAB4001FB042277B106
:107C780041F210015350F8BD42F21001DFE7A5F1BF
:107C88000800800006FA00F281400448E5E742F265
:107C98001001EFE700C0035004C003500CC00350AC
:107CA80010B50446D0F8A42093695906FCD50023E2
:107CB80094F8AA101A4694F8A900FFF7B1FF002318
:107CC80094F8AC101A4694F8AB00FFF7A9FF94F8A3
:107CD800B130DA0707D5002394F8AE101A4694F8A5
:107CE800AD00FFF79DFF94F8B1309B0707D500233F
:107CF80094F8B0101A4694F8AF00FFF791FF0122EC
:107D0800D4F8A43003F5005103F58050CA644260EA
:107D18000A205861002058614A6010BD831E012B5B
:107D28002DE9F0410C463DD801290ED82E4B0422EE
:107D38001B6905210020C3F34013FFF771FF34B11D
:107D48002A4BD3F8B004002849D1BDE8F08127496F
:107D5800D1F8B054002DF8D030272C7D244E204681
:107D6800FCF736FB07FB0463DB6E01F53B718B42C6
:107D780013D12846FDF795FE40B3EFF3118187F341
:107D8800118801231B4AA3405365A2F580529362D0
:107D9800536381F31188BFF36F8F2046BDE8F0412C
:107DA800FCF738BB8B1E012B0BD80128CDD8BDE8BA
:107DB800F04100220C4B05211B691046C3F3401308
:107DC8002EE70029C3D00129BAD0BEE72846FCF720
:107DD80027FE0028E1D10123A340B364DDE7BDE815
:107DE800F041FDF799BE00BF00C003500810002005
:107DF8000000045000200450002307B500932528F4
:107E080053D8DFE800F0135B172229344E6A767ADC
:107E18008996ABB9525B565252765B222922345B63
:107E28006A22B94E4E4E4E2222227A8922F0EAFA6E
:107E380000903AE022F0E6FA534BD3F89030C3F3BF
:107E480004630133B0FBF3F0F2E722F0F9FA4E4B8A
:107E58001B6FC3F38023F4E722F0F2FA4A4B1B6F3F
:107E6800C3F380230133B0FBF3F04008E0E701934C
:107E7800454BD3F8803103F00303022B0AD0032BC0
:107E88000CD0012B03D1002101A8FCF794FC019B25
:107E980000930AE022F04AFA0190F8E73B4B01937D
:107EA800F5E700216846FCF786FC009803B05DF80A
:107EB80004FB4FF0E0231B695A0702D522F0C0FAF1
:107EC800B6E7314BD3F8400100F0030003282DD06A
:107ED800003818BF0120C003AAE72B4BD3F8403164
:107EE80003F00303032B4BD0003B18BF0123DB0334
:107EF800CEE7254BD3F86031F2E7234BD3F80032B5
:107F080003F00700032811D05B0709D401380128C2
:107F18008CBF00200120DEE71B4BD3F80832EFE7C7
:107F2800042824D122F08CFA800A81E74FF47A7071
:107F38007EE7154BD3F8003103F00303022B06D07C
:107F4800032B07D0012B07D1114B5B68A0E74FF437
:107F580000439DE70F4B9BE7002399E70A4BD3F8B3
:107F6800803003F00303022BA8D0032B01D000209C
:107F78005EE722F0DBF95BE7034BD3F84032AFE76B
:107F88004FF47A7384E700BF00800050002D310160
:107F98004439002080D5430238B5184CFF28A26A1E
:107FA8002AD8A36D13F4803F18BF0121144B18BFC2
:107FB800996202219962A56D15F08045FBD111499E
:107FC800A36991F9D81423F47F03014423F47F4370
:107FD80081F3080143EA002343EA0143A361022134
:107FE8000948FFF7D3FCA36DDB0303D5012106483D
:107FF800FFF7CCFC284638BD2125FBE700C0005020
:1080080000D000500810002028C0005038B50F4C90
:10801800A26AA36D13F4803F18BF01210C4B18BF4F
:10802800996202219962A36D5900FCD40221094882
:10803800A569FFF7ABFCA36DC5F30725DB0303D5E3
:1080480001210448FFF7A2FC284638BD00C00050B3
:1080580000D0005028C00050014B83F8D804704766
:1080680008100020014B93F9D8047047081000202D
:10807800012312481249826A8B62836D03F003035D
:10808800032BFAD102238B620C498B6D5800FCD468
:108098000C488B6D30EA0303FBD10121084B1965AD
:1080A800A3F58053996D8907FCD4996D8807FCD591
:1080B800996D8907FCD50321034867E400C0005087
:1080C80000D000500300010028C000500123F0B583
:1080D800C4B21F4DD1F800C0A3408F7ACC7A0E7B72
:1080E8002B6505F5005545F820C030256843240563
:1080F80091F80DC044EA074400F1A04000F5802043
:1081080044EA465422F00302C0F860C0C46502671E
:10811800EFF3118485F311880E4A087A536500B18C
:108128001364487A00B1936308798A7942EA004275
:10813800074882614D79CA79064942EA05428A614F
:10814800054A4363936484F31188BFF36F8FF0BDCE
:108158000020045000100450000004500123C0B255
:108168008340EFF31180302282F31188054A516D64
:1081780021EA03015165936280F31188BFF36F8F81
:10818800704700BF000004500123C0B28340EFF3E2
:108198001181302282F31188074AD06A184209D126
:1081A800526B93430CBF0120002081F31188BFF369
:1081B8006F8F70470020F8E70000045070B59400F6
:1081C800224605460E4623F0B3FE431C0AD058B992
:1081D80022463146284622F04EF8002814BF3D209A
:1081E800002070BD6E20FCE77120FAE7114321F0F2
:1081F800F8014904034B490C41F44021063043F887
:108208002010704700800350021E30B54FF0000068
:108218000CBF0C25042547F60774084952B9831D7D
:1082280051F82330234023B101308542F6D14FF075
:10823800FF3030BD00F11203F2E700BF00800350A9
:108248003AB122F0030202F1A04202F5603209B904
:10825800106070470002FBE74FF0B0435A6812B154
:108268009A6A002AFAD17047054B5B69C3F38512F5
:10827800827003F03F021B0B42700370704700BF0F
:1082880000C0075007B5014601A8FFF7EDFF9DF8AC
:10829800063001220B804FF4807300204B80054B81
:1082A8009B680A3303F01F0302FA03F34B6003B021
:1082B8005DF804FB0080E00F0020704747F6FF736D
:1082C8009A42F0B577D0022977D83D4B0B4493F802
:1082D8002530022B71D83B4DDE0005EBC30393F824
:1082E800DE7493F8DC04012F394638BF01210128D8
:1082F80018D1002493F8DF04401A844205D3012FD3
:108308002CBFC0190130C0B2F0BD011BD3F8E05436
:10831800A0EB510135F911509542D4BF0C4601F13B
:10832800FF30EAE7D3F8E0040028EDD0B0F90040C8
:10833800A24204DCB0F902409442B8BF14468388D4
:108348003544FF2B19BFC8232827B0F90630B0F9E8
:108358000870A3EB04030CBF0122002293FBF7F380
:1083680095F8DD6413441BB29E4201DD002B01DA4F
:10837800731E1BB24FF47A7C00EBC305EA88AD6824
:108388005F1C14FB02521D4622EAE2723BB25C32C9
:108398009E42B2FBFCF204DD00EBC307BF88BA4281
:1083A800EAD900EBC5039888904228BF1046884256
:1083B80038BF0846A7E7FF20A6E70020A4E700BFCC
:1083C80010FE0200081000200229F0B567D8354BCE
:1083D8000B4493F82510022961D8334B03EBC103F2
:1083E80093F8DC14012917D193F8DE4493F8DF04DD
:1083F800012C214638BF0121904294BFC1EB0001F6
:10840800C1EB0201001BCAB28242C8BF0022D3F8E6
:10841800E03433F91200F0BD002A3ED0D3F8E0145E
:1084280000293CD093F8DE04904202D3B1F902004F
:10843800F1E793F8DF44B1F900009442EBD993F8DF
:10844800DD448B88013CA3F1FF06734201F104056A
:10845800E4B2734101F10C07DEB2B44216D805EB61
:10846800C3034FF47A756A43B3F902405B68D21AC2
:1084780004EBD47302EB630292FBF4F29042CADB82
:10848800B1F902009042C6DC10B2C4E737F833C035
:108498005E1C9445E3D33346DEE70448BBE7044853
:1084A800B9E700BF10FE0200081000200CFEFFFF15
:1084B8000080FFFF436813B9416070475B685A68E2
:1084C800012AFBD159607047C3681944836853F87F
:1084D800210030F8023B13607047002807DB0123B6
:1084E8004109034A00F01F00834042F821307047D9
:1084F80000E100E008B5284B83F30A886FF001011A
:10850800264B274A9A60D3F8882042F47002C3F8B1
:108518008820244A116641F2FF7151660221C3F88E
:10852800D010BFF34F8FBFF36F8F08214FF4403443
:10853800A3F54063C3F880110320D460FFF7CDFF93
:10854800194B1A481C611A4BC01A801014F0ACFF62
:10855800184B19498B4212D30020184B18498B42EB
:1085680018D30EF0FDFC186850F82240586840F8FF
:108578002240013298688242F5D30C33EAE70022A0
:10858800F8E71C6844F8220001325C68A242F8D37C
:108598000833E4E70022F8E70800002000ED00E0D7
:1085A8000040000000A00044008000443842000061
:1085B80034410000A46D0300B06D0300B06D0300EA
:1085C800B06D030008B5EFF3108072B6034BD3F813
:1085D800FC3423F077FB184608BD00BF08100020C4
:1085E8002DE9F0410468054694F89420002A5CD1EE
:1085F800EFF31183302181F31188C4E9162283F344
:108608001188BFF36F8FFFF7DDFF854202D1104657
:1086180019F0A8FB236E264F93F910603046FBF73C
:108628001BFE3046FCF7BAF9236E93F91160304609
:10863800FBF712FE3046FCF7B1F997F86831207D58
:1086480043B1072806D807EB001393F878310BB12C
:10865800FFF784FD207D19F043FBEFF311883023E9
:1086680083F311880023134A167B76B90133082B4C
:1086780002F11002F8D11520FCF790F9FF220E4BF9
:108688005E659A625E6087F8686188F31188BFF357
:108698006F8F0023C5E90033C5E90533EB60236E0E
:1086A8002046BDE8F041DB6818470F20BDE8F0819F
:1086B80008100020741100200000045013B5FFF7C3
:1086C80081FF40B1C46834B10122006801AB0DF1EB
:1086D8000301A04718B14FF0FF3002B010BD9DF85C
:1086E8000300FAE707B58DF8071030B9FFF76AFFFE
:1086F80018B9232003B05DF804FB4368002BF8D0B9
:1087080001220DF1070100689847F3E70B4601467F
:108718001846E7E708B5302383F311884FF20F02B4
:10872800034B18805A80BFF35F8FFBF7A8FD00BF8B
:10873800983700206C4A2DE9F0416C4B55686C4C19
:108748009D65516AD9656B49D1F800021866D1F860
:108758000412986B5966916A10F0040F9966D16AF1
:108768004FF00000D966116B1967516B5967D26BCE
:1087780018659A67D3E90F1218BF11465E4A9142ED
:108788005A655DD301F12000A04259D88869C5F324
:1087980008055864CE69062D9E6455D1574DA842E8
:1087A80052D3574DA8424FD205884DF642608542B4
:1087B8004AD15868C3F894009868C3F8980040F202
:1087C8000170A242154604D22E680432B6F1CD3F9C
:1087D800F7D00022C3E91F22C3E92122C3E92322DB
:1087E800641BDFF818C1424DDFF814E1DC648D42E8
:1087F8002DD8D3E91FC7D3E92165D3E923414FF029
:10880800000E013AD2B2FF2A3BD1BEF1000F05D0CB
:10881800C3E91FC7C3E92165C3E92341B3F8583049
:10882800C3F308030C2B3AD8022B53D9DA1E092AB2
:1088380050D8DFE802F030563F424F4F4F4F4F4C71
:108848000021C3E911112C494FF42060B9E755F80C
:10885800044D6445CBD37445C9D2E607C7D5002675
:10886800284F57F8048FA045C1D00136062EF8D1FD
:108878002AB1013AD2B203EB8206F467B7E70522C0
:10888800F9E7E0464FF0010EBC4637462E4625462E
:108898000C464146B5E740F60120BDE8F0813B2B88
:1088A80018D1194B9B6913F0020F40F2025318BFFD
:1088B8001846F2E740F60320EFE740F2017240F66F
:1088C8000423B0F5206F14BF10461846E5E740F6BC
:1088D8000520E2E740F60722013B4B2B98BF1046E4
:1088E800DBE740F60220D8E700ED00E098370020EB
:1088F8000810002000E100E00800002038420000D5
:1089080020BF0200103800200080015A0B4AB2F93B
:1089180008301089002BB8BF80F06200B2F90A1045
:108928004300138153890029BCBF83F4805383F02B
:108938000B03590051815840704700BF443900204B
:10894800FEE7002307B5084601A9019314F00CFDC2
:10895800019803B05DF804FB0148FCF7A1B800BF1B
:1089680010150020002313B501936AB161B102FB11
:1089780001F401A9204614F0F7FC014620B901983A
:1089880010B1224621F087FC019802B010BD0023E7
:1089980003604360704730B5D0E9054553B394424E
:1089A8000FD0E2B9046974B9036983B3002918BF09
:1089B8000D462B78DB0714D5AB8843B3A5EBC3056D
:1089C800F7E704698CB141B904682378DB070CD553
:1089D800E3884BB104EBC304F7E70C46F5E795428F
:1089E800E2D0C0E9054530BD1C469542DCD0002ADE
:1089F800DAD0F6E7944208D08C4228BF0C4695425C
:108A080007D08D4238BF0D46EBE70C46F7E71D4609
:108A1800E7E70D46E5E700232DE9F3478C4E019380
:108A2800D6F80C350C469A42104604D239B912B120
:108A380001A914F099FC019802B0BDE8F08722B9A9
:108A480006F5A160FCF72CF8F5E7EFF31187302362
:108A580083F3118834F8063C07304FEAC30820F046
:108A68000705A845A1F108017FD234F8020C0028B7
:108A780068D0C21A012A65D101EBC00211F8300092
:108A8800C0075FD4B2F802C0A8EB050919EBCC09FE
:108A980058D4B9F11F0F38DDC5F3CF03611924F895
:108AA800063C0133084624F8023CFFF770FF34F80F
:108AB800020C4FEAD9038880D0884B8010B3B2F8F3
:108AC80002C0A0EB0C0C1CFA83F39BB202EBC000B3
:108AD800CB80838000235F48FFF75DFF1046FFF7D8
:108AE80056FFD6F81035D6F814252B44A3EB080307
:108AF80093420194C6F8103534D887F31188BFF330
:108B08006F8F98E70023CB80E4E7D6F81805013388
:108B18000138C6F81805D088634424F8063C68B1C3
:108B2800B2F802C0A0EB0C0C1CFA83F39BB202EB68
:108B3800C00024F8023C83800123CCE7002324F8FA
:108B4800023CF9E7284601A914F00EFC0028D4D10C
:108B580021464246019821F081FB21463D48FBF71A
:108B68009FFFCAE7C6F81435C7E76ED934F8020C78
:108B7800A8EB050900F1FF3AAAEB030A002839D04F
:108B880011F8303001EBC002DB0734D4BAF1000F22
:108B980031D1C5F3CF03611924F8063C01330846E7
:108BA80024F8023CFFF7F3FE508800EBD90334F8B1
:108BB800020C4B808880D088D0B1B2F802C0A0EBFC
:108BC8000C0C1CFA83F39BB202EBC000CB808380B1
:108BD80020480023FFF7DFFE1046FFF7D8FED6F83F
:108BE800103501941D44A5EB0805C6F8105584E717
:108BF800C880EDE70246B9F1270FF0D9C5F3CF03D6
:108C0800611924F8063C0133084624F8023CFFF7B2
:108C1800BEFE34F8020C09F1FF33DB084B80888074
:108C28008AB10AF1010A1AFA83F39BB2CB809380C6
:108C3800D6F8183507480133C6F8183500231A4600
:108C4800FFF7A9FECBE7CA80F2E7019455E700BF1A
:108C5800081000201015002003464160EFF3108033
:108C680072B6044AD2F8F0121960C2F8F03223F052
:108C780029B800BF0810002038B50F4CD4F830359B
:108C88007BB901234FF06042C4F83035D2F8003E7A
:108C98000A4943F48073C2F8003E04F23450FFF7E7
:108CA800DBFF0025064B0748C4F84035C4F8485593
:108CB80019F058F8284638BD0810002070390020EF
:108CC8004D590000441500200146EFF3108072B69C
:108CD800084AD2F8F03202F53C722BB1994205D11C
:108CE8000B68136000230B6022F0ECBF1A461B6868
:108CF800F3E700BF0810002070470122014B83F8FA
:108D080084237047081000201A4B2DE9F041D3F84E
:108D1800B044D4F8A4309A6CD20728D5012503F5BD
:108D2800005295649B699B0621D5EFF31187302388
:108D380083F3118894F8953003F0FF069BB9236EEE
:108D4800314620469B68984784F89550EFF3108881
:108D580072B62846314621F065FC0223404622F0CF
:108D6800B1FF84F8A13087F31188BFF36F8FBDE896
:108D7800F08100BF08100020C6E7F8B504460D468C
:108D8800EFF31186302383F3118890F89630A9B158
:108D98007BB990F8983063B1EFF3108572B6012172
:108DA800084621F03FFC0123284622F08BFF84F877
:108DB800963086F31188BFF36F8FF8BD002BF8D07B
:108DC800EFF3108772B6012021F02CFC384622F010
:108DD80079FF84F89650ECE72DE9F04F00264FF420
:108DE800802B9FB0CDE90B66CDE90666DFF8B8A306
:108DF8000D96CDF828B00FAC0AAD08960FCDCDF87A
:108E080014A00FC405AD14AC0FCD0FC4C84CC94D88
:108E180004F294584646C84BC84F6B63C84BDFF8FA
:108E28008C93AB63C74B9022EB63C74B04F5B560DB
:108E38000E972B64CDF8249021F02DFA1397CDF8D6
:108E48003CB00DF13C0CBCE80F000FC6CDF850A0AB
:108E58003760CDF8609004F5BF6614AF0FCF0FC62A
:108E68000121202204F5C963C4F8DC35C4F8E435CF
:108E7800C4F8303605F13403C4F8F435B34BC6F8FA
:108E88000090C4F8B434B24BC4F8E02584F8341622
:108E980084F8E81584F82C16C4F8B084C4F8B834FB
:108EA800AC4BC4F8BC34AC4BC4F8C434AB4BC4F8BA
:108EB800C834AB4BC4F8C034EFF31182302383F3CA
:108EC800118894F86831C3B182F31188BFF36F8FAA
:108ED80094F868317BB103A8FBF7FCFA58B9039BF7
:108EE80003A884F8A835FBF7F5FA002836D094F8DB
:108EF800A80518F0F5FE10250EE184F8681182F334
:108F08001188BFF36F8F974A84F8783184F88831D5
:108F180084F8983184F8A83184F8B83184F8C831D5
:108F280084F8D83184F8E8315160FF219360936167
:108F38009162936313644FF0004353654FF0FF321F
:108F4800894B15201A654FF40012884BC3F880210D
:108F5800802283F81523FFF7C0FAB9E70127039B9E
:108F6800394684F80C36824B84F82A06C4F8D4347F
:108F7800804B8148C4F8CC34804B84F83576C4F8EB
:108F8800D03484F82976FFF7F8FE95F94560304625
:108F9800FBF762F93046FFF7A0FA94F8A805FBF74B
:108FA80017FA0028A7D1CDF80480D4F8E03500934B
:108FB800D4F8A435D4F8DC25D4F8941594F8A80589
:108FC80016F052FB0646002895D1302294F8A835B1
:108FD8004FF48011534342F2640203F1A04303F5B6
:108FE8008023995095F944502846FBF735F92846CF
:108FF800FFF773FA6248C4F8246618F0B3FE5E48B7
:10900800FCF78AFD94F8A805FBF704FA0546002842
:109018007FF471AF5B4B5C4EC4F83C365B4B04226B
:109028000521C4F840363B46C4F8386684F84476CF
:10903800FEF7F6FD06213B4602222846FEF7F0FD24
:1090480040F6AA63DFF86881DFF868B1C8F80470F1
:10905800736141F205034E4AB5600320F565F3607C
:109068003561F561F564CBF84820B56535657565FA
:10907800CBF80470C8F80470F360FEF7BDFE4FF437
:10908800E112430103F56123B3FBF2F3414A203BAC
:1090980002EAC30360224FF00209CBF8082004213A
:1090A8001422C8F80850DFF810A1F3613A4BB565EF
:1090B800CAF8AC95C8F85C107561C3F8AC254FF4D4
:1090C800A022C3F8C4254FF4C0220320C3F8BC254E
:1090D80049462B464A4684F84506FEF7A1FD2F4B24
:1090E8000422CAF8B43504233946C8F85C30484627
:1090F8002B46FEF795FD2A4BCAF8AC95CAF8B83549
:109108000523234A84F83D5684F83E36CBF8482098
:10911800C8F80470756173610122224B03A8CDE978
:10912800032317F0DFFD28461FB0BDE8F08F00BF0E
:1091380008100020443900203B42000024800550DC
:109148005D4A00006D4A0000A97C0000F5AD0000F2
:10915800575A0000CD5C00004F4200005542000005
:10916800E9850000000004500020045000E100E000
:10917800D7490000838D00009C1500205B42000049
:10918800B8140020210005000080055006030202E3
:10919800FFFF0100F8FF7F0000C00350030002003A
:1091A8000200010000C201C0020004003C8005501A
:1091B8000090055000A0055000D0035000232DE971
:1091C800F04FB448B44AB54DA1B0121AC5F8080515
:1091D800C5F80C2585F82435C5F82C35C5F81C05C7
:1091E800C5F82005FFF7D3FB0123013AD2084280D6
:1091F800C5F8183508230EA8C5F81035C5F8143574
:10920800FFF732F89DF83930012B27D1A44A936D26
:10921800DE0313D4536B23F4FF0323F4FE4343F418
:10922800BC1343F4A0635363136B23F4704343F4F8
:1092380040431363136B43F4E06313639DF83830C2
:1092480063B94FF000531B68964B1B68964B1B681D
:10925800964B1B68964B1B68964B1B68964AD2F830
:10926800803043F00303C2F88030EFF311833022DB
:1092780082F3118895F86826002A40F09C83012221
:1092880085F8682683F31188BFF36F8F6FF00403A6
:1092980050218A488A4C13F0800F03F1010240F0F4
:1092A800838323443D2A83F800131346F3D1854A68
:1092B800D2F84C3113F4802300F082834FF07E62A1
:1092C80092F89C3092F99C20002AB8BF3F234FF4B3
:1092D800D15102207C4A4F2B51627C4928BF4F2331
:1092E8004860012001F58051DBB24860116911F432
:1092F8008031FBD143F48073536140F201439360A2
:10930800704B5160D3F84C21140340F15C83A3F5F2
:10931800FE431C88B4F5807F28BF8C246C4B6D4EAF
:1093280095F9D8747360644B27441B6F87F308075B
:1093380003F00703032B01D121F082F814F0E2F9BE
:10934800032842D045F60E030221554AC2F8803060
:10935800614B9962012103F580539962936DD8039B
:10936800FCD45E4B5E491361936903F0004343EA02
:10937800074343EA042343F0407343F03C039361FB
:10938800136A23F00D031362936A23F0330343F047
:1093980001039362424A936D31EA0303FBD1022130
:1093A8004D4B9962936D5900FCD4136923F47003F3
:1093B80043F4001313614FF00042474B9A610222B5
:1093C80003F580539A6201229A623E4BD3F8984083
:1093D800444B5A68012A00F0FA8214F093F90428E1
:1093E80007D1414814F0A4F9334A136F43F480635A
:1093F80013673E4A24F04073D16811F006010591C5
:10940800FAD1916893609068434013F4F81F0ABF3B
:10941800354B9160336014F075F9042812D121F0AE
:109428000FF814F085F90120FEF7E6FC3049224ACE
:10943800884294BF00200120136F23F4806343EA1D
:10944800802313671F4B2B4AD3F8C0301A4C23F0E4
:1094580040739360276F2448C7F380277B1C85F8E7
:10946800693614F065F9236F43F480632367236F2B
:1094780023F0070343F00203236720F0E1FF14F011
:1094880057F9236F23F4806343EA87232367236F05
:1094980032E000BF783D0020008001200810002045
:1094A80000C00050004000200080002000C00020C4
:1094B80000000120004001200080005000ED00E085
:1094C80000E100E00080E00F0000025000100250B0
:1094D80000F049024439002000D000502008B00BA9
:1094E8000300014000C0015000B4C4040000015052
:1094F80080F0FA020040015A23F450532367CA4B04
:10950800D3F8FC20D70140F16882D3F8FC2022F080
:109518008072C3F8FC20D4F8802022F0030242F0C5
:109528000202C4F88020D3F8FC2042F08072C3F80D
:10953800FC20BE4BD3F8202122F0070242F00102A2
:10954800C3F82021D3F8802122F0030242F001025F
:10955800C3F88021D3F8402122F0030242F002022E
:10956800C3F84021D3F8602122F0030242F002023E
:10957800C3F86021D3F8402222F0030242F002022D
:10958800C3F84022D3F8002222F0070242F0020278
:10959800C3F80022D3F8082222F0070242F00202A0
:1095A800C3F80822A24A536A23F0010353624FF01A
:1095B800E022136943F004031361EFF3108872B6D5
:1095C80095F86A36002B40F0228203F01DF9002836
:1095D80000F00C82404622F075FB03F015F9726D1D
:1095E8004FF40031501C04BF924BD3F894204FF035
:1095F800502308BF72651967D10700F196820121CF
:109608000C46084604FA00F3134001F1010100F08A
:109618008E82894B03EB4003B3F82431DFF85CA258
:10962800062BBAF80020BAF8021040F087824FF2F1
:109638000F03994240F07F82B2F5406F28BF4FF484
:10964800C0624CF23C33A5F87C26AAF80230764A70
:10965800536A43F470235362EFF308834FF0CD311C
:10966800764A043B934280F07A820222714B1A6751
:1096780003F0CAF818B16A21714820F015FF17F0F5
:1096880003FB4FF480501FF05FFF4FF48053C5F881
:109698008006C5F88436002800F06482D5F8803644
:1096A8001BB9DE21674820F0FFFED5F88436D5F8CF
:1096B800802623F001031344C5F88826C5F88C36A4
:1096C800C5F89026002A40F05882F8215D4820F01D
:1096D800EBFE40F20333002204210EA8ADF8383027
:1096E800FEF7AEF900239B6A574CB3F5804F63D25F
:1096F8001A68564B9A425FD195F8947617F0FD0791
:109708005AD195F83C34002B00F05A82022385F890
:109718003C3408224FF480384D4B0320C3F8802195
:109728004C4BC3F80C80FEF7D8FE4B4BC3F81080A7
:1097380000239B6ADB69984795F83C348046012BE7
:1097480040F0DA82FBF731FC013040F0C682D5F8F0
:10975800A826424B1A66D5F8AC265A66D5F8B02624
:10976800C3F87021D5F8B426D00700F1C282B36DD2
:10977800013313D194F8943683B9394A5268D20721
:1097880048BFB365374B5B68D80744BF0123B3654F
:10979800354B5B68D90744BF0223B365D4F89836C4
:1097A80083F31188BFF36F8F85F83C74B8F1000F0D
:1097B80002D1012385F89436FEF7E0F84FF44073A0
:1097C800012204210EA8ADF83830FEF739F901223C
:1097D800264BC3F84424EFF31187302383F3118811
:1097E8000C20FEF709FB87F31188BFF36F8F0E4B30
:1097F80000F5D520D3F8F02000F2FC4042F0010239
:10980800C3F8F020D3F8FC20114F42F08072C3F85F
:10981800FC20174AA3F55D431A60164B0222B0FBE1
:10982800F3F0154B01382BE000ED00E0008000500C
:1098380000C007500040005010FE02000800002041
:1098480090C0020044C102000810002007B0CD5E9D
:1098580000E100E000A000440090004400800044C3
:109868000080055000C005500000065000D003508D
:10987800FF030040F8590D00000004E0983700206D
:109888001861C3F8F0204FF48072C3F804234FF036
:109898006043BD4AC3F8B02FBC4AC3F8802ED3F842
:1098A800002E42F48072C3F8002EFF2283F8202095
:1098B800D3F8002E22F48072C3F8002E3B689A0178
:1098C80006D44FF000731920C7F88031FEF705FE63
:1098D8003B685B0106D44FF080631A20C7F88031DB
:1098E800FEF7FBFD4FF06047A948FEF7D9F84FF0A7
:1098F800020CD7F8003E0EA843F48073C7F8003E68
:10990800A44BCDE90EC317F0EDF9D7F8003E0421BA
:1099180023F48073C7F8003E40F2033301220EA8F7
:10992800ADF83830FEF78CF895F8B916022903D14E
:1099380095F8B836072B1BD095F8B836DF0703D44F
:1099480043F0010385F8B83695F8B83698075FBF35
:10995800012243F0020385F8B83685F87C2A95F889
:10996800B82611B9D10700F19787530740F19C87B2
:10997800FFF782F988498948FFF76EF9FFF72CFA53
:1099880096F86C2096F87C30022A00F2B781002AFB
:1099980040F0BA81022B00F2D181002B00F0D18176
:1099A800736FC5F8CC36CCE103F00F03043B0344D6
:1099B800197613466FE483F31188BFF36F8F76E44B
:1099C800D2F8502183E4D3F85041E4B2A6E47449B4
:1099D8004A609A699207FCD1FFE4D4F8803023F0FA
:1099E800030343F00203C4F88030A2E5D5F8043538
:1099F800C5F86C06C5F870366A4BC5F8F0025A6FA0
:109A080042F001025A67DA6E22F03002DA666648DE
:109A1800664AD0F80031036F03F00703C5F87C33BA
:109A28009169032B01F00202C1F3400185F8741615
:109A38000AD0D0F8203103F00703022B04D0D0F865
:109A4800803213F001035FD0012385F884334FF48B
:109A5800C874D5F87076564B7C4304F5742404F228
:109A68003F24B4FBF3F40023D5F860155148C5F83A
:109A78004C450133DBB20A2B40F8044BF9D104EB17
:109A8800C40321440B44C5F860354AB3464BD3F8A8
:109A9800003103F00303022B42D0032B43D0012BE8
:109AA8001ED17268E2B1414BDFF80491DB68501EA9
:109AB800C3F30B0C002319460CF1010C0CEB8C0CB6
:109AC800ECFB09011EF034FD784300F5742000F228
