:10400000081000202D860000ED21020085420000EE
:1040100085420000F5210200FD21020085420000DA
:104020008542000085420000854200008542000074
:1040300001220200A41E0300854200008542000008
:10404000854200008542000085420000BD710000ED
:104050008542000085420000854200008542000044
:104060008542000085420000D1C500008991000012
:104070001991000085420000854200008542000041
:104080008542000085420000854200008542000014
:104090008542000001450000854200008542000085
:1040A00085420000B94300009943000085420000AA
:1040B00085420000854200008542000049830200DD
:1040C00029A1020025A10200AD7A02003FA1020051
:1040D0002DA102000983020031A102004166020005
:1040E000898302008542000085420000854200006D
:1040F00085420000854200008542000085420000A4
:104100008542000085420000854200008542000093
:104110008542000085420000854200008542000083
:104120008542000085420000854200008542000073
:0441300085420000C4
:10413400F0B5114A114C124E00F00105E3695F0716
:1041440013D40DB9334213D103EA00078F4207D1C8
:104154000B4A1A40002A0CBF00206FF00100F0BD8A
:10416400013AEBD16FF00200F9E74FF0FF30F6E7C8
:104174006FF00100F3E700BF809698000000035041
:10418400020001002DE9F84F264D1646EB69012285
:1041940003F4803841F671330746EB63224BDFF8B2
:1041A4009090DA600EB9304629E007F5005404EA2D
:1041B40009046F61E41BEB69B44228BF34465B0712
:1041C4002DD48B465BF8043B01EB040AAB61D34569
:1041D4000ED10423002121202B61FFF7A9FF70B920
:1041E4002120FFF7A5FF50B959462744361BD9E7CC
:1041F40008210846FFF79CFF68B104232B610122C4
:104204000A4BDA60B8F1000F03D00022A3F5005383
:10421400DA63BDE8F88F5BF8043BAB61D7E74FF096
:10422400FF30ECE70000035000100350002003505F
:0442340000E0FFFFA8
:104238007047D0F8A4309A69120643BF5B6A002021
:104248000B701B20704780F89910704790F8990000
:10425800704790F896007047002808DB0122430950
:10426800034900F01F008240603341F82320704763
:1042780000E100E07047704770477047FEE7BFF302
:104288004F8F0549054BCA6802F4E0621343CB60BF
:10429800BFF34F8F00BFFDE700ED00E00400FA0513
:1042A80070B50D4E451E013915F8014F2346325D94
:1042B80002F00302012A11F8012F08BF04F12003BC
:1042C800B05C00F00300012808BF2032981A01D121
:1042D800002CE9D170BD00BF056803000368187899
:1042E800704710B503681A78022A1ED09A79022AF4
:1042F80019D159790F2916DCEFF31184302282F392
:104308001188012209488A40C0F82024C0F82424D2
:104318000C20074A00FB01220021C2E9011184F3A5
:104328001188BFF36F8F02221A7010BD00E003508E
:10433800081000202DE9F04104460C264FF0010832
:10434800124D0CB314F001000BD0002024F001042E
:1043580006FB00525768002FF3D09168C0B2B847E7
:10436800EFE72246013020284FEA520201D0D30756
:10437800F8D508FA00F20F2824EA0204E8D9103820
:1043880006FB0052B432E5E7BDE8F08108100020D2
:10439800064BD3F82404D3F8202403F50053104027
:1043A80000F05530C3F82004C4E700BF00C0035034
:1043B800064BD3F82404D3F8202403F50053104007
:1043C80000F0AA30C3F82004B4E700BF00C00350CF
:1043D80010B50378EBB15A1ED2B2022A18D80E498A
:1043E8008A5C4078C240D20712D5EFF3118430219D
:1043F80081F3118801224B4343F2100103F1A043DA
:10440800824003F570335A5084F31188BFF36F8FDD
:1044180010BD7F22E5E700BFE8FF020002461378DF
:10442800002030B503B3591EC9B2022917D80F4C62
:10443800615C5478E140C90711D5EFF3118530214B
:1044480081F311884B4303F1A04303F570331B69D3
:10445800E34003F0010085F31188BFF36F8F937871
:104468000BB980F0010030BD7F21E2E7E8FF0200D0
:104478000B4B93F8682162B107280CD803EB0013A3
:1044880093F878314BB10123064A83401364002026
:10449800704705487047054870470548704700BF92
:1044A8000810002000100450028000F0018000F085
:1044B800078000F00B4B93F8682162B107280CD8ED
:1044C80003EB001393F878314BB10123064A83407C
:1044D8001364002070470548704705487047054831
:1044E800704700BF0810002000200450028000F030
:1044F800018000F0078000F01A4B2DE9F0411F6D94
:104508005B6D1F4000D5FEE701260025164CDFF83D
:10451800608037421CD0C8F850602368C3B1A168D6
:10452800284601316268A1609847637B012B0FD14F
:1045380070B90E4B03EB451393F8F82160F3410271
:1045480083F8F82193F8082260F3410283F80822DF
:104558000135082D4FEA460604F11004D9D1BDE80B
:10456800F08100BF000004507411002008100020E2
:104578000020045010B5EFF31184302383F3118821
:1045880000220E490B7B73B90D49026001EB021240
:104598000121C2F86C3182F8781184F31188BFF3D5
:1045A8006F8F184610BD0132082A01F11001E9D1B8
:1045B80084F31188BFF36F8F0248F3E7741100206A
:1045C80008100020048000F04369406CDA1C14389D
:1045D800B2FBF0F203EBC203CA1DB2FBF0F20333E5
:1045E800B3FBF0F30132023301EBC20100FB03100D
:1045F800704738B5054644692146FFF7E5FF6A6C00
:10460800E31D143AB3FBF2F3013304EBC304204473
:1046180038BD73B506460D460024F36B01225B696D
:1046280001A928199847019B013309D1736C0434F7
:1046380062196A405B421A42EFD0204602B070BD50
:104648000024FAE7D01E009B42424241187E824273
:1046580011D11A688A420ED85A688A420BD35A690D
:1046680001325A61D3E9030282423FBF986840F899
:10467800221001321A610120704700234FF0FF32E7
:1046880030B544689C4202D10023037230BD0168F2
:1046980001EBC30541F833206A600133F2E70023D8
:1046A800F0B545689D4210D00468DF0054F8332007
:1046B80004EBC306B2F1FF3F08D0C2F313029142E4
:1046C80004D14FF0FF33E3517360F0BD0133E9E7E4
:1046D80010B5032A029C07D1A26A5340626C524269
:1046E800134201D1FFF7DBFF012010BD0023F0B515
:1046F80045689D4202D14FF0FF300EE00468DE00AD
:1047080054F83340671C09D0C4F31307B94205D1E4
:10471800240D1470036833445868F0BD0133E8E78A
:1047280073B5164600F108040D46204609680DF1D8
:104738000702FFF7DBFF032E05D16B68834202D126
:104748002046FFF7ACFF012002B070BD2DE9F04311
:10475800466886B3056898464FF0000CA946AE46F1
:1047680055F83C400CF1010CC4F31307013401D097
:10477800B94217D066450EF1080EF1D12F46002434
:1047880003E0A64207F1080712D055F83430013487
:104798000133F6D1C1F3130141EA0851C7E9001208
:1047A800BDE8F08341EA0851CEE90012BDE8F08384
:1047B800B8F1030F03D101230372BDE8F08300238E
:1047C80003E09E4209F10809F5D055F8334001335A
:1047D800C4F30754032CF4D1C1F3130343EA085379
:1047E800C9E90032BDE8F08308B508301346D1E9BD
:1047F8000012FFF7ABFF012008BD41F67132044BF0
:104808000020DA63012203F50053DA60704700BF25
:104818000000035041F671320121044BDA6303F5BD
:104828000052D1600022DA63704700BF00000350D5
:1048380037B5054601F10C04436901A90122204658
:104848009847BDF804300122009369462046AB69B9
:10485800984703B030BD134B10B50446D3F8200178
:1048680000F00700042816D8DFE800F003090D114E
:104878001800012304B1206001B10B6010BD0A4B80
:1048880018680423F6E7084B58680323F2E725F075
:1048980085FD0523EEE700231846EBE702230348CE
:1048A800E8E700BF0080005034390020002D3101B6
:1048B8002DE9F84341F671334FF001081E4D0446C7
:1048C800EF69EB631D4B0021C3F80C80022368617C
:1048D80021202B6127F05CFBDFF86890064607F47F
:1048E800803740B1C9F80C8007B1E96301360CD1B3
:1048F8006E20BDE8F883212027F04AFBC9F80C8018
:1049080007B1EE63431CF3D008B17120F1E70C4BFB
:104918009A6801230A3202F01F02934023F003032E
:1049280023449C4201D10020E3E754F8042B0132D0
:10493800F7D03E20DDE700BF000003500010035011
:104948000080E00F002003502DE9F04F80460F460D
:1049580015469A46044685B0DDF83CB0DDF844902B
:10496800206808B3DBF80060DAF800108E421BDA22
:104978000E9B53F8261059B3FFF792FC40BB6168B1
:104988000136CBF80060087BFE281CD1109B086814
:10499800CDE901B30E9B2A46009301215346CDF879
:1049A8000C90FFF7D1FF04462B7843B999F80030F3
:1049B8002BB97FB10123444689F800302B7020467B
:1049C80005B0BDE8F08F0123109A13702B70EBE748
:1049D8000C34C5E73C46F2E70023F0B50B601360E2
:1049E8000646D0F8AC0278B196F8AC0060B1012464
:1049F80006F1AC07D6F8AC02844210D306F1AC003D
:104A0800B3F5007F10D30120F0BD0D6801350D60AE
:104A1800156801351560F85C01330A2802D0B3F532
:104A2800007FF2D30134E5E7C15C0A29EBD0002905
:104A3800E9D01168013301311160E1E700280CDB8E
:104A480001220649430900F01F008240203341F843
:104A58002320BFF34F8FBFF36F8F704700E100E053
:104A68004FF06042D2F8803E1B02FBD470470146EB
:104A780038B508B9012038BD047D2046FFF7F8FC99
:104A88003023634303F1A04303F580232046DD6E02
:104A9800FFF710FD094B9D421CBF042381F8A1308C
:104AA80091F8953091F8A1002BB1022803D1012388
:104AB80081F8A130DFE70428DCD1F8E7F412002000
:104AC8003021037D02464B4303F1A04303F58023C5
:104AD800D86E07491B6F884208D113F0020006D030
:104AE800106A136D1B1A58425841704700207047CE
:104AF800F4120020D0F8A4309A695206FCD50020A0
:104B0800D96370470122D0F8A43019B103F5805356
:104B1800DA64704703F50053DA649A6470474BF619
:104B2800EF6283B2002B08BF1346044A000C1381BE
:104B38004FF6CE2308BF18465081704734390020FD
:104B48002DE9F74F002900F0DF80D0E9054EEFF39B
:104B5800118B302383F3118811F8086C31F806CCD7
:104B6800F30702D5BCF1000F07D18BF31188BFF30F
:104B78006F8F012003B0BDE8F08F8368D0F81090E4
:104B8800A3EBCC0331F8048C0093836009F1010393
:104B9800A1F108050CF101020361B8F1000F3AD048
:104BA800A5EBC803DF88B3F802A001971F7806F0C9
:104BB8000206FF0724D426BB019EA6EB0A06012E97
:104BC80029D1009E0CF10202A6F108075244C0F850
:104BD8001090876031F8028CB8F1000F1DD111F8E0
:104BE800085C21F8068C68F3000501F8085C013AB6
:104BF8005A801A7868F300021A700022DA803FE0BF
:104C08004EB111F8086C42446FF3410601F8086C84
:104C180000269E80DEE72B46DCE705EBC809D0E9D5
:104C280000673744B9450ED311F8085C013A6FF3B1
:104C3800000501F8085C002521F8065C5A801A78FE
:104C480065F30002D8E715F838504E4615F001050F
:104C580030D011F8085C013A6FF3000501F8085CE0
:104C6800002592B221F8065C5A801A7865F3000292
:104C78001A70C3F107023244C2F3CF02DA80B2805D
:104C8800002C3FD0A3423DD36288002A08BF1C46AF
:104C9800BEF1000F06D0734504D8BEF80220002AE2
:104CA80018BF7346C0E905438BF31188BFF36F8FB4
:104CB80000205FE7A8EB0C08B8F1010FC9D1B9F8DB
:104CC8000270A9F802501744B9F80620C2B109EBDE
:104CD800C20600250269013A02618268083A8260C8
:104CE80011F8082C21F8065C6FF3000201F8082C73
:104CF8001A785F8065F300021A70002EB9D17CE73C
:104D08001646E6E71C46C3E7222033E738B52022DB
:104D180004460D460C30002125F0F5FA4FF0FF331C
:104D2800C4E90035A36038BD10B50A4C04F53D70E0
:104D38001AF024FA94F8143353B10748FFF748FBE4
:104D480004F53D704FF47A61BDE810401AF025BAB9
:104D580010BD00BF081000204039002008B51148D8
:104D68001AF00CFA012104200F4B104A08F07AF8C7
:104D78000F4A1049138A042003F5FA731BB2B3F5DE
:104D8800FA5FC8BF0B46012113820B4A08F06AF884
:104D98000A481AF0FAF9BDE808404FF4FA610148E8
:104DA8001AF0FBB920130020EEFF0200D7250300FC
:104DB8003439002018FCFFFFA8BF02004013002070
:104DC80030B5144887B01AF0D9F906F089FE0228E0
:104DD8001DD129230025012002930F4B2A46CDE936
:104DE800005340F202414023CDE9030519F07AFF50
:104DF800044628B1034629460420084A08F032F838
:104E080000210420064B074A009408F02BF807B04D
:104E180030BD00BF4013002044390020CDBF020040
:104E2800F1BF020009C0020037B51B4C04F55670EB
:104E38001AF0A4F994F8783303F00F03022B19D170
:104E480014F030FE154B0021154A0090042008F09C
:104E580009F8FF224FF6FF71002010F0B5FD002180
:104E68000346104A042007F0FDFF002384F814339A
:104E780003B030BD94F81453002DF9D109F0C0FFE8
:104E880029460346084A042007F0ECFF04F53D7064
:104E98001AF07BF90123E9E7081000201CC0020082
:104EA80031C0020039C002004EC0020010B54C1CCF
:104EB8000B460119045D222C03D07B2C01D05C2CFD
:104EC80005D1D21A184425F04AFA012010BD002055
:104ED800FCE710B5044644EA010313F0030308464F
:104EE80009D1934201D1002010BD54F8231040F895
:104EF80023100133F5E72146920025F0E7F9F2E7A0
:104F080010B50446AC3025F022FA04F1AB031A18A8
:104F18000020934200D110BD13F8011F0029FAD0D8
:104F28000A2908BF0130F4E72DE9F0470546914604
:104F3800884625F00CFA2A460646134619780132A7
:104F48002029FAD0C9F800305C1B01236FF0404AD1
:104F5800C8F80030A64201D8002014E02F5D2919B6
:104F68007B2F12D0222F2ED1D8F80030621C534448
:104F78002A4449F82320012C09D911F8013C13F0DF
:104F8800DF0F04D02120BDE8F0877D27F3E7013447
:104F98002B5DBB4209D12B195B7813F0DF03F1D1EC
:104FA800222F00D12B550134D4E75C2B07D1324690
:104FB80021462846FFF77AFF0028E3D0013E013456
:104FC800A642E5D8DEE75C2F08D1324621462846BE
:104FD800FFF76CFF0028D5D0013EE4E7202FE2D18F
:104FE8000022631C9E420A70DDD9EA18EB5C202B74
:104FF800D9D0D8F800300F2B05DC49F8232001332D
:10500800C8F80030CFE71E20BDE7012307B50246E8
:105018008DF804300221032001AB18F0C1FA03B067
:105028005DF804FB022307B502468DF80430002121
:10503800032001AB18F0B4FA03B05DF804FB024694
:1050480000230121032018F0ABBA002302461946B9
:10505800184618F0A5BA40F2011307B50246ADF894
:1050680004304021032001AB18F09AFA03B05DF830
:1050780004FB1FB500239A6AB2F5804F19D2146B4E
:10508800B4F5804F15D201A8CDE9023318F022FCFF
:10509800039BDB030DD5029B1A0E0AD0012A03D10C
:1050A800C3F307430A2B04D9236C04B0BDE81040AE
:1050B800184740F2011004B010BD37B50D680C4612
:1050C800AB88ADF804302B78022B13D00DF1030117
:1050D80001A81CF057FE9DF8033083F001032B70E4
:1050E800054B9C4206D12046FFF7F8F810B9034853
:1050F8001AF04BF803B030BD0C0003006013002019
:1051080013B50468A388ADF804302378022B15D0B2
:105118000DF1030101A81CF035FEA2799DF80330BA
:10512800012A13D1618843EA41034FF6E07163F025
:105138003F039BB28B4203D12270638002B010BD43
:105148004FF6DF729342F8D10022F5E7002AF5D135
:1051580083F001032370F1E7F8B50B780446302B90
:105168000D46164604D14B7803F0DF03582B10D0B8
:10517800264F6A1E12F8011F91BB28460A2224F006
:10518800E7F9202C03460D462FD1B1FA81F04009EA
:105198001BE04A1C1D4912F8013F93B9284625F027
:1051A800D6F804F00303032BA0F1020012D1013456
:1051B800A41084420AD1A87837288CBF0020012087
:1051C80003E0CB5C13F04400E5D1F8BDCCBF01206F
:1051D8000020FAE7B0EBA40FD4BF01200020F4E7C9
:1051E8007B5C13F00400C5D1EFE726B1084302D079
:1051F800013B61F100050122A240013A1A40002D4D
:1052080008BF9A420CBF01200020DEE705680300B2
:105218000A7801382D2A0ABF0122002289189BE743
:105228000FB407B504A951F8040B019119F0BEFF9A
:10523800002003B05DF804EB04B0704770B5064673
:105248000D4625F084F804463046FFF7E9FF044E82
:10525800AC4200D370BD3046FFF7E2FF0134F7E7F8
:105268002B3703002DE9F84F044602216048FFF769
:10527800E5FF1E212068FFF7E1FF63685868FFF724
:10528800CFFF5C48FFF7CCFF67683B7BFD2B12D84C
:10529800D7F808804FF0FF34404625F058F8064606
:1052A800DFF84C91DFF8A8A1DFF864B10C3717F8E4
:1052B800013BFF2B01D1BDE8F88F212B14D8212BFE
:1052C80014D8DFE803F0178C8884807C7874131373
:1052D800131313131313706C6864605C585413131E
:1052E800131313131313504CFE2B34D006B101348F
:1052F800414D02E006B10134404D02214846FFF716
:105308009DFF1E214846FFF799FF5046FFF788FF8B
:105318005946284624F0FFFF3949002818BF294676
:105328003848FFF77DFF3B78202B02D12B201CF05B
:10533800F3FB3548FFF774FF4EB118F804301F2B04
:1053480005D018F804001F2801D0B4424BDB2948C7
:10535800FFF766FFABE706B101342C4DCDE706B188
:1053680001342B4DC9E7002EA1D001349FE706B1C7
:105378000134284DC1E706B10134274DBDE706B118
:105388000134264DB9E706B10134254DB5E706B11C
:105398000134244DB1E706B10134234DADE706B120
:1053A8000134224DA9E706B10134214DA5E706B124
:1053B8000134204DA1E706B101341F4D9DE706B128
:1053C80001341E4D99E706B101341D4D95E706B12C
:1053D80001341C4D91E706B101341B4D8DE706B130
:1053E80001341A4D89E71CF097FB0134A9E700BF87
:1053F800E3C0020037C1020075C002006FC002009E
:10540800CCC00200D7250300F63803007DC0020097
:1054180083C002008CC0020093C002009EC002003C
:10542800A8C00200B2C002009DC00200A7C00200CE
:10543800B1C00200BAC00200BEC00200C6C002006D
:1054480069C0020070C00200C5C0020068C0020046
:105458008B37030010B50446236803B910BD237ABF
:1054680013B92046FFF7FEFE0C34F5E72DE9F04F9F
:1054780000218346ADF5477D7C2207A8069124F0DC
:1054880042FF584624F063FF46AA019026A95846D1
:10549800FFF74AFD0446B0BB469824F058FFA046E3
:1054A8000546A1462746DBF89C6086BBB8F1010F8C
:1054B80040F0D18006A824F04AFF05EB040805F166
:1054C8001803471B27EAE7750BEB08090DEB0304E4
:1054D8002A462146484624F0F9FE09F80560DBF81B
:1054E8009050A845DBF8902000F3A580DBF89410D5
:1054F8003A443944CBF89410CBF8902027443B1B0E
:10550800002B00F3A3800DF5477DBDE8F08FD6F89A
:1055180008A0BAF1000F61D05F4417F8012B202AC8
:1055280014D000270C2303FB07F20AEB02030293B3
:105538005AF802300093002B4AD0269B99450493D1
:1055480046DC029B1A7A1AB17A1C2FE00134E4E790
:1055580046AADBF8945052F829302D1B2A461846E3
:105568000099039324F0E1FE05900028ECD10098FF
:1055780024F0EDFE029B01465868059A90F80CC08D
:10558800BCF1FE0F16D1049B03F1FF3CE14527D087
:10559800D0F800A00398009224F0D9FE0134009AB4
:1055A80004441BF8041019B109F101091746B9E7B9
:1055B8000134F6E78D42C7DC06A8029124F0C7FE45
:1055C800029908447B2819D9734906A818F028FAC3
:1055D8005A46019B03EB0B018A4223D1366864E7E4
:1055E8008D42E9DD14464FF00C0A05680AFB04F207
:1055F800A95871B9A0440D46019CE9E7009906A88D
:1056080018F00EFA654906A808F1010818F008FA1A
:105618009AE706A818F004FA604906A818F000FAF4
:105628000134E3E712F8010B0028D5D14FF020032D
:1056380002F8013CD0E71BF802001CF06DFADBF819
:10564800902001350132CBF890204AE714F8010B7D
:105658001CF062FA53E77FF756AF26AF8022314637
:1056680038460DF58C7A24F04EFE4FF40072314620
:10567800504624F048FE06AB1A464FF0010912F8CE
:10568800018BB8F1000F4AD118464AF829600093F7
:1056980024F05DFEBC464246009B06A913F801EBC8
:1056A8000DF58C7858F8046B864242D10132914549
:1056B8000CF801EBF2DADBF89060AE4240DB384AD6
:1056C80006A95B463748FFF7ABFD384624F03FFE96
:1056D80002462C442F44551B25EAE5720BEB0400C7
:1056E80014440BEB04060BF190018E424FD90BF1D9
:1056F800980188424BD2791E4619321A002A39DDA0
:1057080011F8012F00F8012BDBF890200132CBF8BB
:105718009020DBF894200132CBF89420EDE7B8F123
:10572800200F06F1010604BF4AF8296009F10109B2
:10573800A5E70E44B65C7645B4D00021B954BAE763
:10574800DBF8902001361BF802001CF0E5F9DBF8C5
:1057580090200132CBF89020AFE7DBF89010013AA7
:105768000131CBF89010DBF894100131CBF894108C
:10577800002AF2DC00223D440BF80420EB1B002B2E
:105788007FF7C1AE17F8010B1CF0C6F9F6E73946EA
:1057980024F09CFD2A46EBE7CEC002002B3703001D
:1057A800D3C00200D6C002002DE9F843D0E9245640
:1057B80004460F46002294F89830012B07D10A2F8F
:1057C80007D1002384F898300020BDE8F88300F260
:1057D8009F801B2F01D10223F4E70D2F0DD1012348
:1057E80084F898300D201CF097F90A201CF094F9E1
:1057F80000230120C4E92433E7E74FF00008082F0D
:1058080084F8988034D1454530DDB5420FD138460B
:105818001CF082F920201CF07FF9013D38461CF06D
:105828007BF9013E04F80580C4E92456CCE7FBDA8D
:1058380005F1FF3938461CF06FF904EB0903A6EBB4
:1058480009026119184624F08AFD04F80680014609
:10585800013E4848FFF7E4FC35464D4501DC4D461E
:10586800E2E708201CF058F9013DF6E7ACD0DBE789
:105878007F2F1CD1002EA7DDB542A5DA6319691C5C
:1058880021441846721B24F06AFD04F8068001467C
:105898003948FFF7C5FC0820013E1CF03DF9B54228
:1058A800F9D1D4F89430013BC4F894308CE70A2F2E
:1058B80098D0092F03D12046FFF7D8FD84E7D4F804
:1058C8008C30013BB3427FF77FAFB54204EB05084C
:1058D80005F101090CDB384688F80070D4F89430DB
:1058E800C4F890900133C4F894301CF015F96BE7B4
:1058F8004146721B04EB090024F031FD4046FFF7D6
:105908008FFC0820013E1CF007F9B542F9DDE2E7FB
:10591800022B06D15B2F01D1032353E784F898208B
:1059280049E7032B7FF450AF413F84F89820032FB9
:105938003FF64AAFDFE807F002070A1601212046C2
:1059480000F01CF840E74FF0FF31F8E7B542BFF62A
:105958003BAF605D1CF0E0F8D4F890300133C4F838
:10596800903031E7002D7FF72FAF013D0820C4F8B4
:105978009050BAE7DFC002007420030073B50D46EB
:105988000446FFF7BDFA6B1C25D1D4F8AC3213B12D
:10599800013BC4F8AC320025204624F0D8FCA842CC
:1059A80021D800212046D4F88C2024F0ACFC002318
:1059B800C4E92433D4F8AC325BB16A46204601A965
:1059C800FFF70AF828B1019D04F1AC06009BAB4231
:1059D80014D802B070BD012DFBD1D4F8AC3283428B
:1059E800F7D20133D5E708201CF096F820201CF0E8
:1059F80093F808201CF090F80135CDE7715D20463A
:105A0800FFF7D2FE0135E1E72DE9F0470F461546CD
:105A18000024DFF8709002F1040899F8796302F124
:105A2800090A5FFA88F8A24505D8013689F879632A
:105A38000020BDE8F087052C11D8DFE804F01D0828
:105A4800030A0C0ED12019F079FE0134EBE7404629
:105A5800F9E70220F7E70020F5E73046F3E7AB1D4A
:105A68009C420BD0EB1D9C4208D005F108039C42D8
:105A780006D0BB1F185DE6E75B20E4E75A20E2E7A3
:105A88005D20E0E7081000202DE9F743D0E9043451
:105A980004F17C07D0F80C900646013B1022002147
:105AA8003846D4F874809DB224F02DFC0B4BC5F316
:105AB8000A0543EA0513C4E91F39012394F878005D
:105AC80084F88C30C4F884803A46054B009604F17B
:105AD80064011CF0ABFA03B0BDE8F083000010309D
:105AE800ED5A0000536910B514460022D3F890000F
:105AF80083F88C2028B10168C3F890100260FFF782
:105B0800C3FF63681BB100212046A26898470020A4
:105B180010BD034693F89420084610B5FAB10A69F7
:105B2800B2F5006F1DD8EFF31184302282F311888B
:105B380093F88C204B617AB103F19002D3F890303E
:105B48003BB90360106084F31188BFF36F8F0020A6
:105B580010BD1A461B68F3E7FFF796FFF3E70E2020
:105B6800F6E72120F4E7302337B5007D0DF1070172
:105B7800434303F1A04303F58023DD6E1C6F26F039
:105B8800B1F89DF8070040B9054B9D4203D184F058
:105B98000204C4F3400003B030BD0120FBE700BF9E
:105BA800F412002013B504460DF10701007D26F01C
:105BB80099F89DF8073043B1236DD4E912020244E5
:105BC800934218BF184602B010BD3022237D5343BC
:105BD80003F1A04303F58023DB6EEEE72DE9F04FD8
:105BE800044685B0007D04F13806FEF741FC00212B
:105BF8001022304624F087FB4FF0300B4FF44473EB
:105C0800DFF80CA1207DDFF80C910AF53B7763875C
:105C18000BFB0093C4E90F77DB6EBB4204D105B0E0
:105C2800BDE8F04FFEF746BC0DF10F0126F05AF81B
:105C38009DF80F70002F62D12046FFF7B3FF9AF846
:105C480068218046237DEAB1072B1BD80AEB031A8B
:105C58009AF87821B2B1EFF311818BF31188D9F852
:105C680034000BFB0399D9F8642081F31188BFF342
:105C78006F8F012101FA03F3034204BFC2F30A1331
:105C88005F183D4604F11807102200213846D4F861
:105C9800109024F038FB3022237D013D5343C5F397
:105CA8000A052D0145F04075C4E9065903F1A043E2
:105CB800C4F8208003F580231A6F94F82410520842
:105CC80062F3410184F82410196F94F8242027F016
:105CD800030761F3000284F824201B6F626A9B08A3
:105CE80063F39F0247F00207626267640094207DB5
:105CF80032462146054B1CF099F9207D8FE794F830
:105D080044306FF3410384F84430EFE7215D00002D
:105D1800081000200000045092F8543037B514469B
:105D280033B1936D0BB1D06D9847002384F854308C
:105D380094F89A301BB32046FFF715FFF8B1236E8D
:105D4800132120465B6898471025236E20461B6860
:105D58000DF10701984778B99DF8073003F0FD0267
:105D6800112A05D1A3F111025342534184F8A030FE
:105D7800013D15F0FF05E8D12046FFF72FFF002071
:105D880084F8540003B030BD2DE9F04F9B46002342
:105D9800044689B005910392CBF80030DBF8005037
:105DA800039B5E1B00F0A180059B5D1900F09D80A0
:105DB800207DFEF75DFB2046FEF782FE8146207DB2
:105DC800FEF778FBB9F1000F40F08F802046FFF70F
:105DD800E9FE216D94F89A8088429CBFD4E91203A9
:105DE800C018401A864228BF0646B8F1000F00F0D6
:105DF800AC80EFF311830493302383F31188374683
:105E0800D4F850A02046FFF7AEFE0AEB06029245F2
:105E1800D4F89C1072D1D4E912231344994208BFD4
:105E2800C4F89C20049B83F31188BFF36F8F8046CE
:105E3800207DFEF71DFB0DF11F01207D25F052FF8F
:105E48002046FFF7AFFED4F850A08146504540F2F7
:105E58008A80A36CB5B29A457DD123691022049338
:105E680004F128030021184624F04DFA3021049A41
:105E7800013DC4E90B2A227DC5F30A054A432D01D9
:105E880020F0030302F1A04245F0407543F00203FD
:105E980002F58022A5621367236DD4E912123344F8
:105EA8000A44934208BF0B464B45236505D101239D
:105EB800204684F85430FFF791FE207DFEF7FAFA69
:105EC80094F89A303BB1B8F1000F04D0236E112139
:105ED80020465B689847DBF8003037B1039A3B44AB
:105EE8009342CBF80030FFF459AFDBF80030002BB9
:105EF80014BF00201B2009B0BDE8F08F0AF1010A89
:105F08000AF1FF33994210D1C4F89CA01AF8013C59
:105F1800112B01D0132B14D1013FA3F111014B42D6
:105F28004B41C14684F8A03071E71AF8013C03F0F0
:105F3800FD01112906D1013FB9F1000F3FF467AF08
:105F4800EBE7C14605F8013B61E73246284624F0F5
:105F5800BDF937466CE7238DC3F30A12154465F380
:105F68000E13238598E79DF81F30207D93B93023C1
:105F7800434303F1A04303F58023596E5A6EC1F3DE
:105F88000A1122F4FF42314422F0700242EA01125F
:105F98005A6681E7CDE900644A462369216817F00B
:105FA8007DFE3022237D534303F1A04303F5802374
:105FB8005A6E22F48012EBE713B5044600900021D4
:105FC80004200B4B0B4A06F04DFF3CB10420002186
:105FD800094A06F047FF094819F0D0F8084800F0C8
:105FE80095F8084802B0BDE8104019F0C7B800BFDE
:105FF8005E2F0300E4C0020006C102004013002027
:1060080040390020FC120020034630B100201A5C01
:1060180002B9704701308142F9D170474FF0FF3023
:106028007047FEE700207047002070470020704747
:1060380010B520B3037803B3013BDBB2022B20D8A1
:10604800114AD35C4278D340DB071AD5EFF31184A9
:10605800302181F31188037801224B4341F210016A
:10606800407803F1A043824003F570335A5084F31B
:106078001188BFF36F8F002010BD7F23E2E7222035
:10608800FAE72120F8E700BFE8FF020010B520B3C7
:10609800037803B3013BDBB2022B20D8114AD35C4F
:1060A8004278D340DB071AD5EFF31184302181F30E
:1060B8001188037801224B4342F21001407803F122
:1060C800A043824003F570335A5084F31188BFF31C
:1060D8006F8F002010BD7F23E2E72220FAE72120FE
:1060E800F8E700BFE8FF020007B503788DF8043031
:1060F80043788DF80530837801A823B9FFF7C6FFE8
:1061080003B05DF804FBFFF793FFF9E707B50378E1
:106118008DF8043043788DF80530837801A823B9C9
:10612800FFF786FF03B05DF804FBFFF7AFFFF9E761
:1061380073B5054690F842601C4630460DF10303DE
:106148001BF0EEFCEB6B012E5B690DD1324601A909
:1061580098479DF8033013B1BDF806300193BDF898
:106168000430236002B070BD0122214602B0BDE8B0
:106178007040184703460846EFF3108172B6034A89
:10618800DB6BC2F88813DB68184700BF08100020D3
:106198002DE9F0410646406882B0C0B10F469046EE
:1061A8000024336853F8345003EBC403C5F3075293
:1061B800C5F31301013504F1010406D05B683046CC
:1061C800CDF80080B84710B170688442E9D302B0B6
:1061D800BDE8F081036813F07E0F03D1406820F01A
:1061E8007C40704713F078001CBF03F07F03D81F72
:1061F8007047202A0B681EBF4FF0FF3191408B4338
:10620800590801F055315B1A03F033319B0803F04C
:1062180033330B44017803EB13130A444FF0013175
:1062280003F00F334B43A2EB1362027070472DE962
:10623800F041054600244868EB6B86B00E46012203
:106248005B69029402A908309847A04695F8423045
:10625800012B40F08180632C03D9029806B0BDE879
:10626800F081612C08D805AB224631462846FFF755
:106278005FFF9DF8143013B305AB2246314628461C
:106288008DF81080FFF754FF95F84230059F012BD9
:1062980052D14FF6FF739F4200F09180082205A962
:1062A80004A8FFF7A6FF9DF81020C7F307239A421A
:1062B80040F08580FFB2029B3B4402937FE095F853
:1062C8004230012B2ED122463146284603ABFFF738
:1062D8002FFF3146284604AB621CFFF729FF3146E1
:1062E800284605ABA21CFFF723FF102208230DEB5D
:1062F80002010DF107008DF80730FFF77AFF102231
:1063080005A9FFF776FF039BDAB2002A50D19DF862
:106318000720B2EB132F4BD1DDE9043203EB024324
:10632800029345E0302C29D942E09DF80720B2EBD2
:10633800134F3DD1049BF3E77B1C40D0102205A9E5
:106348000DEB0200FFF755FF9DF81020C7F3074338
:106358009A4234D1BFB2AEE7312C3FF67EAF8BD034
:1063680005AB224631462846FFF7E2FEBDF8143059
:10637800002B81D195F84230012BA4D0224631461A
:10638800284603ABFFF7D4FE3146284604AB621C0F
:10639800FFF7CEFE102320220DEB03010DF10700BD
:1063A8008DF80730FFF725FF039B9AB2002ABCD06F
:1063B80095F84230012B14BF012302231C440134F9
:1063C80044E737B5044600251B22011D0DF10700DF
:1063D8008DF80750FFF70DFF63689DF80720B2EBB3
:1063E800D36F03D123F0784003B030BD1B2204F1F2
:1063F80008018DF80750FFF7FCFEA0689DF80730EC
:10640800B3EBD06F0ABFC0434FF0FF3020F07840A5
:10641800EAE74BF29A22036810B5B2EB134F044631
:1064280013D19BB2012B15D1FFF7CBFF013011D04F
:106438004FF6FF72E068B2EB104F4FEA10430BD1F2
:1064480080B2C01A18BF012010BD013314BF042048
:106458000320F9E70420F7E70220F5E7F0B5054641
:10646800002687B0EC69013CB44203D80C462046AC
:1064780007B0F0BD01B14C1E6F6C2868EB6B0522AC
:106488005B6901A907FB0400984701A8FFF7C1FF52
:106498000128ECD921460136E4E70368F0B5CC1AA7
:1064A800436C0646B4FBF3F4002587B0F3693768FC
:1064B8005A1E9542706C06D3736C306803FB040057
:1064C800143007B0F0BD0134B4FBF3F203FB1244FF
:1064D800F36B05225B6901A900FB0470984701A8CA
:1064E800FFF797FF0128E7D90135DFE710B423F05C
:1064F800030422449B070A44436C18BF04325B42DE
:1065080082EA0104234202D05DF8044BC5E7104635
:106518005DF8044B70472DE9F04F144607460E46C8
:106528008BB00393C36B01225B6907A96068984726
:10653800FB6B01225B69304606A99847079B5D1CE7
:1065480007D10022A360A275627500200BB0BDE8D8
:10655800F08F0122A2750022217E069D04EBC10165
:10656800CE610A846068C5F3D31CB04205F07F0190
:106578000CD14FF0FF33C4F800C02175A360237D10
:10658800043B022B26D80023A375DEE794F814E019
:1065980020688E4503D1A0EB0C004242424103F033
:1065A8007F0001288CBF0020012001298CBF002119
:1065B8000121884218BF002215F07E0FA27503F052
:1065C8007E0304D1002BDAD00023A375D7E7002B74
:1065D800D5D1F9E715F07E0F0FD1FB6B02223046BB
:1065E8005B6908A9984708A8FFF7F4FD237D032BEA
:1065F80051D8DFE803F0150F045906A8F4E7CC22B8
:10660800237E04EBC3031A840123634A134493F8DB
:106618003C300AE0237E04EBC30318840023F4E72C
:10662800237E04EBC30318840123149A1370069A7B
:1066380012F07E094FEAD26A227E37D1FB6B04EB57
:10664800C2020AF003055B69B2F8208082F8225082
:1066580008A902223046984720220DF117000DEBB9
:1066680002018DF81790FFF7C4FD1A2209A9FFF758
:10667800C0FD9DF81730099A4FF0080BB3EB926FE5
:106688000CBF012300236375637D33BB0023A3750F
:106698004FF0000950E0227E013BDBB204EBC2025E
:1066A800052B1084C0D8B0E70223AEE7002504EB21
:1066B800C202B2F8208082F8225006A91B2208A83C
:1066C8008DF82050FFF795FD9DF820204FF0040B22
:1066D800A2EB0A0253425341D5E794F81690B9F158
:1066E800000FD5D0B8F1000F08D1D5B10123627ED3
:1066F800E37552BB9D4218D1657614E07B6C06EBBE
:106708000B02594286EA020008421CBF0021A1750B
:10671800591E0A409B1A4345B8D3A37D002BE4D1E8
:10672800B6E7E37D43B94FF0000943465A46314680
:106738003846FFF7DBFEA060A27D237E5AB9012B05
:1067480027D801332376A07D00E7012DF4D0032D4F
:10675800E9D1A376E7E72269012B4244226118D8E0
:1067680001332376039B002BEDD0E37D002BEAD089
:10677800B9F1000FE7D1032DE5D0A1684B1CE2D099
:10678800149B2246009338460123FFF7C4FEA075E8
:10679800D9E70023A375D6E7E8FF020013B50C4636
:1067A800002121760093616813462246FFF7B3FE65
:1067B80018B1E37D03B1A07EA075A07D02B010BD25
:1067C8002DE9F743044616461F460D46DFF8748048
:1067D800816AE36A8B421ED04B1C1CD0DFF86090A4
:1067E8004846FEF793FA0122494620460DF1070371
:1067F800FFF7D4FF30B13B4620469DF807201049EB
:10680800B04740B1D8F894134A1C07D0012D0DD0D9
:10681800E36A9942E4D103B0BDE8F083D8F8901355
:106828002046FFF73AFE012D0146D2D1D8F8903321
:1068380081EA0302636C5B421A42ECD1C9E700BFEC
:1068480094130020081000202DE9F041D0E90A3601
:106858009E42044686B028D11422C369456802FBCB
:106868001355284606B0BDE8F0812068676C331AD6
:10687800B3FBF7F3E26B07FB0300D2F8148001A91E
:106888000522C04701A8FFF7C4FD012804D0636CA6
:106898001D44013B3340ED1A31462046FFF7FDFD0C
:1068A8000646A36AB342E0D1DBE70025F9E72DE904
:1068B800F04F0F469A46002389B004464FF0FF3147
:1068C800104690468DF80B30FEF720FAB7F5801F7A
:1068D80020D2394603AA04F10800FDF707FF451C3A
:1068E800014605D1237CBBB92D2009B0BDE8F08F46
:1068F8004046FEF70BFA0122414620460DF10B03F4
:10690800FFF74CFF0028EDD09DF80B308AF80030D7
:106918000020EAE7B81CE5D1E66A711C2CD12046B4
:10692800616AFFF79BFD0646BB1C18BF0123DFF811
:10693800C4B00093636A626C0193236803A902FBE5
:106948000639E36B484605225B6909F11409984743
:10695800002549464B1C05D0636C81EA09025B425D
:1069680013420FD031462046FFF778FD019BB34212
:106978002FD085BB0646DDE72368F61A636CB6FBA5
:10698800F3F6D1E71A48FEF7C1F92046009A1849EC
:106998000DF10B03FFF702FF8446B8B1BA1C03D010
:1069A800DBF8B833BB4211D145469DF80B30DFF810
:1069B80040E08AF80030BEE80F000FC5BEE80F00BF
:1069C8000FC59EE8070085E807006546DBF8C01399
:1069D800C0E7002D88D0B7F5801F99D239469AF8BC
:1069E8000030D8F8042004F10800FDF7AFFE8FE767
:1069F800C0130020081000202DE9F3411F46002392
:106A08000C46164605463B6058B390F8343053B3ED
:106A1800B1F5801F29D2DFF858800121FFF7AAFBC2
:106A2800214628460DF1070308F57972FFF73FFF65
:106A38000446A0B99DF80730032B10D0022B0AD1C9
:106A48000123336004233B60E86B1BF0CDF920463B
:106A580002B0BDE8F0813060D8F8F433F3E72D24B4
:106A6800F2E72124F3E71124F1E72924EFE700BF37
:106A78000810002073B50D46D11E4A421C461B7EE5
:106A88004A419A4228D129682368994224D36368E5
:106A9800994221D8124E0DF1070306F58262FFF7DD
:106AA80006FFC8B9D6F814246B689A4214D19DF829
:106AB8000730DA1E53425341227E93420CD1636958
:106AC80001336361D4E90323934205D22968A2689C
:106AD80042F8231001332361012002B070BD00BFCA
:106AE8000810002070B50025044686B00562E369E9
:106AF800AB4202D8206A06B070BD666C2068E36BB2
:106B080005225B6906FB050001A9984701A8FFF764
:106B180080FC012898BF236A05F101059CBF013359
:106B28002362E4E72DE9F04F97B0CDE908230F463B
:106B38000A69416CD31D1439B3FBF1F3013302EB3D
:106B4800C302036B04469342C0F008820023DFF8B7
:106B580080920C93E36A9C4819460693FEF7D6F890
:106B6800D7E903360393099B022B61D1CC2E40F061
:106B7800E081089B002B2DD039462046FFF757FBB4
:106B8800656C069A6B1E13401290ED1AE36B012296
:106B98005B69786814A99847149B13F07E0F14BF9B
:106BA80004230823782E059351D9012200234FF09E
:106BB800080A04923A68C9F8C863C9F8B823099A58
:106BC800032A62D0022A14D0049A002A14BF002291
:106BD800072212E0039B01221B684FF0080A129358
:106BE8003B680492C9F8B83308230593089BC9F891
:106BF800C863049AC2F10202D2B289F8CC234FEAE0
:106C08009A020E92069A019200220A920D92079217
:106C18000B92606C019A411E1140421A002E36D028
:106C280053449A423ED8236B1B1A0B44236359E101
:106C3800656C069A6B1E1340782EA5EB030516D8D3
:106C4800FB7D7BB9089B002BA0D104230593331D42
:106C5800AB4212D9B6B1082DA7D8042300229A4610
:106C68000492A7E7089B002B90D10823EEE7089B26
:106C7800002B8BD10823059397E7002304934FF04B
:106C8800040A97E704230496F9E7099AB5E75245F9
:106C9800C9D3B046019B53440293079B002B18BFEE
:106CA800032314E0A2EB0A02019B9642B046534428
:106CB80028BF904696420293EFD90123D9F8C823FA
:106CC80089F8CF33964243D1019AC9F8BC23079378
:106CD80099F8CF33002B3DD099F8D0230199D31CD4
:106CE80009EBC303C3F8BC1307990132A3F8C083A7
:106CF80083F8C21389F8D023B8F1000F14D0099B88
:106D0800022B2BD10A9B7BB90D9B4344032B0BD938
:106D1800E36B01229B69029812A99847054600284F
:106D280040F01E8101230A9399F8CC333D68274A25
:106D3800012B02EAC51528F07C4B40F290809A1E80
:106D4800012A03D908F1070303F07F031D438CE0F0
:106D58000223BCE7019BC9F8BC33CDE7089B002B95
:106D680038D1039BB8F1030F03EB080B28D9DDE9F1
:106D78000201E36B4FEA98029B6998470546002891
:106D880040F0D18018F0030266D0039B28F0030579
:106D98002B440393029B1D444FF0FF33039913A820
:106DA800139323F093FAE36B284601229B6913A9F6
:106DB80098470546CDF80CB0002DB5D0029B76E07B
:106DC8004246029DE8E700BFC013002080FFFF078E
:106DD8000810002007F12003DDF808B00F93FB7DB1
:106DE80078689BB100233D7E0B9AD9B28D4211D9A8
:106DF8000F9903F1010C31F83310914226D9059906
:106E080007EBC303D8690A44104403E00B9B059AB7
:106E180013441844E36B01225B6913A99847139B39
:106E2800012211930B9B584604330B93E36B11A972
:106E38009B699847029B05464344A3EB0B03042B2D
:106E480007D9002872D10BF1040BC8E76346521A20
:106E5800CBE7CDF808B0AFE7CDF80CB064E7079AF8
:106E680043EAC2632B4343F060454FF000038DF8BB
:106E78004C30049BCDE9145B002B49D0202214A987
:106E880013A8FFF7B6F91A2215A9FFF7B2F99DF86A
:106E98004C304BEA83631593E36B0E9A9B69019818
:106EA80014A99847019A051E0C9B18BF1346524611
:106EB8000C93204643460199FFF718FB236B08F112
:106EC8000302A3EB0A0322F003029B1AC9F8C003CA
:106ED8002363002D44D10D9BA6EB080643440D9374
:106EE800029B019320460199FFF7D7FA00230190EE
:106EF800002E7FF48EAE494A3968D2F8C03304F1C7
:106F08000800E362D2F8BC23099BFDF71FFC11E0DF
:106F18001B2214A913A8FFF76CF99DF84C3045EA19
:106F2800C3651495B8E7CDF80CB047E7CDF808B0BD
:106F380044E77026304617B0BDE8F08F002650E0D1
:106F48003A69616CD31D1439B3FBF1F3013302EBD9
:106F5800C302236B9342BFF4FDAD5DE01C26E9E755
:106F68003D2D59D104F1080301932668069B20465C
:106F7800E16AD4F844A0A3EB060BFFF78EFAA26AE5
:106F8800BBFBFAFB8242DBD0616CD9F8C02301F16C
:106F9800FF3C02EA0C0C226B0C9B521A62442263DF
:106FA8002268E0629A1AB2FBF1F8C345C6D10AFB1F
:106FB8000866069B06F1140BB3EB0B0611D0E36BC6
:106FC800B20859469B6998478246E26A069B324452
:106FD800E262226B0198D21A5A442263FDF74DFBF4
:106FE80056462368616CE06B01FB0831FDF720FC15
:106FF8002046FFF777FD2046FFF726FC2063002E8A
:107008009ED03A69616CD31D1439B3FBF1F3013397
:1070180002EBC3029042A8D22E468BE7081000204C
:107028002DE9F3471E4643690446B342884617468E
:107038009DF8289074D300258DF807502046FDF759
:10704800D8FAD4F830A082450AD2236AB5EB430FA8
:1070580006D220460DF1070117F068FD00285DD023
:107068009DF80730012B04D120460DF1070117F0D8
:107078005DFDB9F1030F06D031462046FDF7A4FAAD
:10708800256B85424ED3284D4FF0FF3105F58260C0
:10709800FDF73CFE4B460022204605F58261C5F807
:1070A8002064C5F81084C5F81C74FFF73BFD236EF7
:1070B80006467BB32046FDF79CFA636E256B0344B6
:1070C8009D428CBF00230123854298BF002584F888
:1070D8005030237C88BF2D1A656584F8583073B109
:1070E800002120461AF08CFE0121054620461AF0A0
:1070F80087FEE2682B18934294BF00239B1AE3652E
:1071080094F8503013B994F858301BB1236E04F139
:1071180050009847304602B0BDE8F08701358DE74A
:107128006226F7E71C26F5E7081000202DE9FF4145
:107138000F4690461E46054698B390F8343093B3F0
:10714800B1F5801F31D21A4C0221FFF713F83946E6
:1071580028460DF10F0304F57972FFF7A8FB78B103
:10716800012342460093394633462846FFF758FF25
:107178000446E86B1AF038FE204604B0BDE8F081FA
:107188009DF80F30012BEBD1D4F8F4239642E7D1C8
:1071980032464146284617F0D7FE04460028DFD17C
:1071A800E7E72124E8E71124E6E72924E4E700BF1C
:1071B8000810002007B51F4890F83C3403B9FEE7D3
:1071C8000023694600F58860CDE9003316F04CFBD2
:1071D800E8B9194AD2F84031D2F840211F2B4FF0B4
:1071E80001030FD9203A9340019A1A4301920823C8
:1071F8006A4612491248FFF799FF124B124A1A6061
:10720800FDF73DF89340009A1A430092EFE72D28C6
:10721800F3D1094AD2F84031D2F840211F2B4FF060
:10722800010385BF203A93409340019398BF009390
:10723800DDE700BF0810002000800044007108004E
:1072480048140020000000200B020FF070B586B033
:107258000E4605460392A0B390F834309BB3B1F5BF
:10726800801F32D20221FEF785FF31462846184A90
:107278000DF11703FFF71BFB044618B99DF81730EB
:10728800032B0ED10223314600932846CC2303AAB0
:10729800FFF7C6FE0446E86B1AF0A6FD204606B0C6
:1072A80070BD022B0BD10A492846FEF7C0FF03998F
:1072B80002468142EFD028461AF096FCEAE761249C
:1072C800E9E72124EAE71124E8E72924E6E700BFF3
:1072D800EC13002030B50C46054685B028B390F86D
:1072E800343023B3B1F5801F23D20221FEF742FFC9
:1072F8000DF10F03214628460F4AFFF7D8FA034637
:1073080088B99DF80F20032A0DD003222146009248
:1073180002462846FFF784FE0446E86B1AF064FD2F
:10732800204605B030BD2D24F7E72124F8E71124C5
:10733800F6E72924F4E700BFEC1300202DE9F34118
:10734800089C032A1746266806D1237A012B25D0E4
:10735800012002B0BDE8F081DFF8988030460DF1D9
:10736800070308F58262FFF7A2FA60600028ECD1F3
:107378002568D8F81434A96AD5F844C04B40CCF134
:1073880000021340207AE0D1012809D1E068D8F83A
:10739800202402447069824202D92374207CD8E7F1
:1073A8002868EB6A1B1A081AB3FBFCF3B0FBFCF065
:1073B80083420BD1706CF36A421E1340326B121A6F
:1073C800134428463363FFF768F8E862D8F82024A6
:1073D800E36808321344E36001223B46044920680D
:1073E800FFF7A0FB60600028AFD00020B1E700BF26
:1073F8001814002008100020032A2DE9F34106463E
:107408000D4617461C4606D1237A012B24D00120AD
:1074180002B0BDE8F081DFF8608009680DF107036C
:1074280008F58262FFF743FA60600028ECD19DF806
:107438000720237A032AE7D0D8F814146A689142FF
:10744800E2D1012B2969D4F80CC007D172690CEB81
:107458000103934202D92074207CD9E708316144A2
:10746800E1603B46012229463046FFF75BFB60603E
:107478000028C9D00020CBE708100020F0B504464A
:107488000D46466CE36B006887B005225B6901A96D
:1074980006FB0500984701A8FEF7BBFF012804D8A2
:1074A80001A8FEF78EFF07B0F0BD29462046FEF77B
:1074B800D5FF0646676C2068E36B05225B6901A966
:1074C80007FB0600984701A8FEF77BFF431CEAD09C
:1074D800B54238BF0130E6E72DE9F0430646994644
:1074E80089B0036908460F46904698470446002825
:1074F80067D1D9F804305B0A012B22464FEA5303BF
:1075080004F10104F8D899F8035099F802302D03D2
:10751800DB0203F4006305F480551D43B9F800301D
:107528004FF00009C3F30A0352032B4492B29D188B
:10753800294B0DF107001B2228F0784402A9039378
:1075480002948DF80790FEF754FE9DF807306FEA15
:10755800054544EAC36404946FEA08041B2224F036
:10756800784402A902948DF80790FEF742FE9DF830
:1075780007306FEA154544EAC3644FF0FF33012230
:107588000594069307A9B369079507F11000984772
:1075980001220446B36905A907F1080098470122AA
:1075A800484518BF0446B36904A9381D9847012205
:1075B800484518BF0446B369384603A9984728B117
:1075C800044639463046FDF733F901E0002CF8D17E
:1075D800204609B0BDE8F08301009AB238B50446E8
:1075E800456C006804F1400305FB0101E06BFFF7FF
:1075F80073FF05462046FFF775FA284638BD2DE982
:10760800F04F4FF0FF334FF6FF720025044600F1AC
:107618000808C0E909238BB0C362056205634046C8
:107628008B46FDF72AF82046FFF75CFA50BB4FF669
:10763800FF79676A00264F4514BF3D460025E36978
:107648009E4248D32046FFF74DFA18BB5E200BB088
:10765800BDE8F08F2368E26B606C566900FB05306B
:10766800052205A9B04705A8FEF7D3FE012828D1B1
:1076780029462046FFF702FF421C29462046FFF70D
:10768800ADFF0135E3699D42E4D32046FFF72AFAAE
:107698000028CCD000254FF0FF394FF6FF734F4636
:1076A8002E46C4E90853E3699E423ED3A5EB09057B
:1076B800012D5BD84FF6FF72636A934268D1672049
:1076C800C5E70338C0B20128DBD829462046FFF7B2
:1076D800D5FE0246D1E7E26B2368606CD2F814C08D
:1076E80000FB0530052205A9E04705A8FEF791FE35
:1076F800022807D04F450DD10BF10102294620463B
:10770800FFF76CFFE3690135B5FBF3F2013603FBC4
:10771800125594E729462046FFF7B0FEB0F1FF3F27
:1077280014BF02465A460132E8E7E26B2368606CF0
:10773800D2F814C000FB0630052205A9E04705A8C9
:10774800FEF767FE01280FD805A8FEF73AFEB842F3
:1077580038BF6662814528BF8146854238BF0546E5
:107768000746236A0133236201369CE74FF6FF730D
:1077780000256362E3699D429CD2666C2068E36BD6
:1077880006FB050005225B6905A998470135F1E765
:10779800E26B666C206855696946052206FB0300A2
:1077A800A847626A616C23684E4D01FB02331433AB
:1077B800A3624FF0FF336FF00101E362204605AB8F
:1077C80005F58262FFF773F8002851D1D5F81854EF
:1077D80029462046E562FCF71CFF206320B92046B5
:1077E800E16AFEF75AFEE06229462046FEF755FE9A
:1077F8000546A36A9D423DD16569626CE91C143A4D
:10780800B1FBF2F1002705EBC1050335B5FBF2F535
:107818003E460235E3699E423ED3AF4257D22046E8
:10782800616AFEF71BFE4FF00008064604F1400AA5
:10783800474512D8626C2368694602FB0639E36B38
:1078480005225B69484698476846FEF7BAFD5346E5
:1078580002464946E06BFFF73FFE31462046FEF7F9
:10786800FDFD08F10108A8450646E1D36420EEE6CF
:10787800A56AADE729462046FCF7CBFE236B2946CF
:107888000344064623632046FEF707FE0546002EFE
:10789800AFD1C4E90B06ACE7626C236805A902FB0B
:1078A8000639E36B05225B694846984705A8FEF749
:1078B800B0FD012809D8204609F11401FCF7A9FEFA
:1078C800636C143B984208BF01370136A2E7404673
:1078D800FCF7D3FE002320461946034AFEF770FF43
:1078E8000020B4E608100020F14700002DE9F84315
:1078F8000025DFF890810E46D8F8A8940446C8F809
:10790800A85418B921252846BDE8F88390F83470A2
:1079180007B30A6803689A4240F0A9804A68436836
:107928009A4240F0A4808A6883689A4240F09F8017
:10793800CA68C3689A4240F09A800A6943699A42C1
:1079480040F095808A69C36B9A4240F090804B69F9
:107958008361D8E768223946856B22F0D4FC336806
:1079680004F1080023607368A56363603369636189
:107978007369A361D6E90223C4E90223FCF77DFEFB
:10798800B36904F14000E3639B68984720B9676CCA
:1079980017B16368B3FBF7F794F84330E761002B3E
:1079A800B0D00023656C2366002D68D0002F66D008
:1079B8002368B3FBF5F205FB1233002B59D1676836
:1079C800B7FBF5F605FB1676002E52D12046FCF7DC
:1079D80010FEA369043303449F424CD340F634722B
:1079E8006369CC3B934248D8B5F5805F47D3032100
:1079F8002046FEF7BFFBD4E90001E36B1B689847FC
:107A08000546E36B0220DB6898472DB184F83460A3
:107A1800E06B1AF0E9F976E749462046FFF7EFFDF3
:107A28006428054604D149462046FFF7E8FD054687
:107A3800636C143BBDB9226A204602FB03F6FCF7CF
:107A4800D8FDA369043303449E4223BF012384F86D
:107A58003430D8F8AC3484F834502ABF01335A256E
:107A6800C8F8AC34D4E7002384F83430D0E75D2577
:107A780049E7592547E75A2545E75F2543E75B2549
:107A880041E700BF08100020014902482EE700BF67
:107A9800483900204814002030B40446EFF3108021
:107AA80072B6256885EA02030B406B40236030BC40
:107AB80024F042B9F8B50D4621491646D1F81023ED
:107AC8006A1E0E2A07460478437829D96DB3002226
:107AD80001204FF0300C98400CFB041116B341F212
:107AE800100C41F80C0004EB4404072B4FF00F0175
:107AF8004FEA04141BD89B0012489A40994020442E
:107B0800FFF7CAFF5DB9012230207B7839789A40A7
:107B18000B4B00FB013386B141F210015A50F8BDFE
:107B28002A46D5E742F2100CDBE72A46DBE7083B9A
:107B38009B0005489A409940E1E742F21001EDE7C1
:107B480000C0035004C003500CC0035038B500B344
:107B58000F2920D80378D3B1013BDBB2022B1AD806
:107B68000F4CE35C4478E340DB0714D50D4BD3F8A6
:107B7800104394B9EFF31185302383F31188FFF78D
:107B880099FF85F31188BFF36F8F204638BD7F2397
:107B9800E8E72224F9E72124F7E70224F5E700BF04
:107BA800E8FF020000C003507FB504680022A388E4
:107BB8000121054602A8ADF80830FFF7C7FF0DF10F
:107BC800070102A81AF0DEF89DF8073083F00103D8
:107BD8002370A379022B6AD14FF0FF339DF8082058
:107BE8000393002A66D0D318DBB2022B04D9FF2AEC
:107BF80009D02B46042256E0404AD35C9DF8092060
:107C0800D340DB07F5D5EFF31186302383F31188D2
:107C18009DF80840FF2C6CD0394BD3F81033002C5A
:107C28004CD19DF80930052B63D10122032102A80C
:107C3800FFF740FF0123324A04F11000D2F8301454
:107C4800834021EA0301C2F83014D2F83014C2F894
:107C58003014D2F82C141943C2F82C142949CA6ECE
:107C680002F03002202A1FBFCA6E22F0300242F012
:107C78001002CA66244AC2F820340C22234B02FBA5
:107C88000433234AC3E92E259DF80830FF2B04D07E
:107C98000123204A8340C2F8243486F31188BFF3B5
:107CA8006F8F01222B4603A902A81AF0DDF90020E4
:107CB80004B070BD7F239DF80920A1E7012C05D1F0
:107CC8009DF80930012B14D10324AEE7022C06D10C
:107CD8009DF809305BB1052B0BD10724A5E7032CD0
:107CE80007D19DF80930022B03D109249DE706240A
:107CF8009BE786F31188BFF36F8F7AE7E8FF0200EE
:107D080000C003500040005000E00350081000205D
:107D1800C350000000D0035003681A78022A02D129
:107D280000225A8040E7704707B582780421B2FAEA
:107D380082F2037852098DF8043043780DEB010084
:107D48008DF80530FFF702FF002003B05DF804FB53
:107D5800F8B504460D461F4616464AB101238B4026
:107D68003021184A01FB0022F7B141F210015350AB
:107D780004EB4403072D4FF00F014FEA031316D805
:107D8800A80006FA00F281400F481844FFF784FE65
:107D98004EB9012330210B4AAB4001FB042277B1D5
:107DA80041F210015350F8BD42F21001DFE7A5F18E
:107DB8000800800006FA00F281400448E5E742F234
:107DC8001001EFE700C0035004C003500CC003507B
:107DD80010B50446D0F8A42093695906FCD50023B1
:107DE80094F8AA101A4694F8A900FFF7B1FF0023E7
:107DF80094F8AC101A4694F8AB00FFF7A9FF94F872
:107E0800B130DA0707D5002394F8AE101A4694F873
:107E1800AD00FFF79DFF94F8B1309B0707D500230D
:107E280094F8B0101A4694F8AF00FFF791FF0122BA
:107E3800D4F8A43003F5005103F58050CA644260B9
:107E48000A205861002058614A6010BD831E012B2A
:107E58002DE9F0410C463DD801290ED82E4B0422BD
:107E68001B6905210020C3F34013FFF771FF34B1EC
:107E78002A4BD3F8B004002849D1BDE8F08127493E
:107E8800D1F8B054002DF8D030272C7D244E204650
:107E9800FCF7EEFA07FB0463DB6E01F53B718B42DE
:107EA80013D12846FDF75FFE40B3EFF3118187F346
:107EB800118801231B4AA3405365A2F5805293629F
:107EC800536381F31188BFF36F8F2046BDE8F041FB
:107ED800FCF7F0BA8B1E012B0BD80128CDD8BDE8D2
:107EE800F04100220C4B05211B691046C3F34013D7
:107EF8002EE70029C3D00129BAD0BEE72846FCF7EF
:107F0800DFFD0028E1D10123A340B364DDE7BDE82C
:107F1800F041FDF763BE00BF00C003500810002009
:107F28000000045000200450002307B500932528C2
:107F380053D8DFE800F0135B172229344E6A767AAB
:107F48008996ABB9525B565252765B222922345B32
:107F58006A22B94E4E4E4E2222227A8922F08CFA9B
:107F680000903AE022F088FA534BD3F89030C3F3EC
:107F780004630133B0FBF3F0F2E722F09BFA4E4BB7
:107F88001B6FC3F38023F4E722F094FA4A4B1B6F6C
:107F9800C3F380230133B0FBF3F04008E0E701931B
:107FA800454BD3F8803103F00303022B0AD0032B8F
:107FB8000CD0012B03D1002101A8FCF74CFC019B3C
:107FC80000930AE022F0EAF90190F8E73B4B0193AD
:107FD800F5E700216846FCF73EFC009803B05DF821
:107FE80004FB4FF0E0231B695A0702D522F062FA1E
:107FF800B6E7314BD3F8400100F0030003282DD039
:10800800003818BF0120C003AAE72B4BD3F8403132
:1080180003F00303032B4BD0003B18BF0123DB0302
:10802800CEE7254BD3F86031F2E7234BD3F8003283
:1080380003F00700032811D05B0709D40138012891
:108048008CBF00200120DEE71B4BD3F80832EFE796
:10805800042824D122F02EFA800A81E74FF47A709E
:108068007EE7154BD3F8003103F00303022B06D04B
:10807800032B07D0012B07D1114B5B68A0E74FF406
:1080880000439DE70F4B9BE7002399E70A4BD3F882
:10809800803003F00303022BA8D0032B01D000206B
:1080A8005EE722F07BF95BE7034BD3F84032AFE79A
:1080B8004FF47A7384E700BF00800050002D31012F
:1080C8003439002080D5430238B5184CFF28A26AFD
:1080D8002AD8A36D13F4803F18BF0121144B18BF91
:1080E800996202219962A56D15F08045FBD111496D
:1080F800A36991F9D81423F47F03014423F47F433F
:1081080081F3080143EA002343EA0143A361022102
:108118000948FFF7C1FCA36DDB0303D5012106481D
:10812800FFF7BAFC284638BD2125FBE700C0005000
:1081380000D000500810002028C0005038B50F4C5F
:10814800A26AA36D13F4803F18BF01210C4B18BF1E
:10815800996202219962A36D5900FCD40221094851
:10816800A569FFF799FCA36DC5F30725DB0303D5C4
:1081780001210448FFF790FC284638BD00C0005094
:1081880000D0005028C00050014B83F8D804704735
:1081980008100020014B93F9D804704708100020FC
:1081A800012312481249826A8B62836D03F003032C
:1081B800032BFAD102238B620C498B6D5800FCD437
:1081C8000C488B6D30EA0303FBD10121084B19657C
:1081D800A3F58053996D8907FCD4996D8807FCD560
:1081E800996D8907FCD50321034855E400C0005068
:1081F80000D000500300010028C000500123F0B552
:10820800C4B21F4DD1F800C0A3408F7ACC7A0E7B40
:108218002B6505F5005545F820C030256843240531
:1082280091F80DC044EA074400F1A04000F5802011
:1082380044EA465422F00302C0F860C0C4650267ED
:10824800EFF3118485F311880E4A087A536500B15B
:108258001364487A00B1936308798A7942EA004244
:10826800074882614D79CA79064942EA05428A611E
:10827800054A4363936484F31188BFF36F8FF0BD9D
:108288000020045000100450000004500123C0B224
:108298008340EFF31180302282F31188054A516D33
:1082A80021EA03015165936280F31188BFF36F8F50
:1082B800704700BF000004500123C0B28340EFF3B1
:1082C8001181302282F31188074AD06A184209D1F5
:1082D800526B93430CBF0120002081F31188BFF338
:1082E8006F8F70470020F8E70000045070B59400C5
:1082F800224605460E4623F04FFE431C0AD058B9C5
:1083080022463146284621F0EEFF002814BF3D20C2
:10831800002070BD6E20FCE77120FAE7114321F0C0
:10832800F8014904034B490C41F44021063043F855
:108338002010704700800350021E30B54FF0000037
:108348000CBF0C25042547F60774084952B9831D4C
:1083580051F82330234023B101308542F6D14FF044
:10836800FF3030BD00F11203F2E700BF0080035078
:108378003AB122F0030202F1A04202F5603209B9D3
:10838800106070470002FBE74FF0B0435A6812B123
:108398009A6A002AFAD17047054B5B69C3F38512C4
:1083A800827003F03F021B0B42700370704700BFDE
:1083B80000C0075007B5014601A8FFF7EDFF9DF87B
:1083C800063001220B804FF4807300204B80054B50
:1083D8009B680A3303F01F0302FA03F34B6003B0F0
:1083E8005DF804FB0080E00F0020704747F6FF733C
:1083F8009A42F0B577D0022977D83D4B0B4493F8D1
:108408004230022B71D83B4DDE0005EBC30393F8D5
:10841800DE7493F8DC04012F394638BF01210128A6
:1084280018D1002493F8DF04401A844205D3012FA1
:108438002CBFC0190130C0B2F0BD011BD3F8E05405
:10844800A0EB510135F911509542D4BF0C4601F10A
:10845800FF30EAE7D3F8E0040028EDD0B0F9004097
:10846800A24204DCB0F902409442B8BF14468388A3
:108478003544FF2B19BFC8232827B0F90630B0F9B7
:108488000870A3EB04030CBF0122002293FBF7F34F
:1084980095F8DD6413441BB29E4201DD002B01DA1E
:1084A800731E1BB24FF47A7C00EBC305EA88AD68F3
:1084B8005F1C14FB02521D4622EAE2723BB25C3298
:1084C8009E42B2FBFCF204DD00EBC307BF88BA4250
:1084D800EAD900EBC5039888904228BF1046884225
:1084E80038BF0846A7E7FF20A6E70020A4E700BF9B
:1084F800E8FF0200081000200229F0B567D8354BC4
:108508000B4493F84210022961D8334B03EBC103A3
:1085180093F8DC14012917D193F8DE4493F8DF04AB
:10852800012C214638BF0121904294BFC1EB0001C4
:10853800C1EB0201001BCAB28242C8BF0022D3F8B5
:10854800E03433F91200F0BD002A3ED0D3F8E0142D
:1085580000293CD093F8DE04904202D3B1F902001E
:10856800F1E793F8DF44B1F900009442EBD993F8AE
:10857800DD448B88013CA3F1FF06734201F1040539
:10858800E4B2734101F10C07DEB2B44216D805EB30
:10859800C3034FF47A756A43B3F902405B68D21A91
:1085A80004EBD47302EB630292FBF4F29042CADB51
:1085B800B1F902009042C6DC10B2C4E737F833C004
:1085C8005E1C9445E3D33346DEE70448BBE7044822
:1085D800B9E700BFE8FF0200081000200CFEFFFF0B
:1085E8000080FFFF436813B9416070475B685A68B1
:1085F800012AFBD159607047C3681944836853F84E
:10860800210030F8023B13607047002807DB012384
:108618004109034A00F01F00834042F821307047A7
:1086280000E100E008B5284B83F30A886FF00101E8
:10863800264B274A9A60D3F8882042F47002C3F880
:108648008820244A116641F2FF7151660221C3F85D
:10865800D010BFF34F8FBFF36F8F08214FF4403412
:10866800A3F54063C3F880110320D460FFF7CDFF62
:10867800194B1A481C611A4BC01A801014F082FF5B
:10868800184B19498B4212D30020184B18498B42BA
:1086980018D30EF0E9FC186850F82240586840F8E2
:1086A8002240013298688242F5D30C33EAE700226F
:1086B800F8E71C6844F8220001325C68A242F8D34B
:1086C8000833E4E70022F8E70800002000ED00E0A6
:1086D8000040000000A00044008000443842000030
:1086E80034410000906E03009C6E03009C6E0300F2
:1086F8009C6E030008B5EFF3108072B6034BD3F8F5
:10870800FC3423F019FB184608BD00BF08100020F0
:108718002DE9F0410468054694F89420002A5CD1BC
:10872800EFF31183302181F31188C4E9162283F312
:108738001188BFF36F8FFFF7DDFF854202D1104626
:1087480019F048FB236E264F93F910603046FBF76B
:1087580083FD3046FCF772F9236E93F911603046B9
:10876800FBF77AFD3046FCF769F997F86831207D08
:1087780043B1072806D807EB001393F878310BB1FB
:10878800FFF784FD207D19F0E3FAEFF31188302319
:1087980083F311880023134A167B76B90133082B1B
:1087A80002F11002F8D11520FCF748F9FF220E4B10
:1087B8005E659A625E6087F8686188F31188BFF326
:1087C8006F8F0023C5E90033C5E90533EB60236EDD
:1087D8002046BDE8F041DB6818470F20BDE8F0816E
:1087E80008100020741100200000045013B5FFF792
:1087F80081FF40B1C46834B10122006801AB0DF1BA
:108808000301A04718B14FF0FF3002B010BD9DF82A
:108818000300FAE707B58DF8071030B9FFF76AFFCC
:1088280018B9232003B05DF804FB4368002BF8D087
:1088380001220DF1070100689847F3E70B4601464E
:108848001846E7E708B5302383F311884FF20F0283
:10885800034B18805A80BFF35F8FFBF710FD00BFF2
:10886800843700206C4A2DE9F0416C4B55686C4CFC
:108878009D65516AD9656B49D1F800021866D1F82F
:108888000412986B5966916A10F0040F9966D16AC0
:108898004FF00000D966116B1967516B5967D26B9D
:1088A80018659A67D3E90F1218BF11465E4A9142BC
:1088B8005A655DD301F12000A04259D88869C5F3F3
:1088C80008055864CE69062D9E6455D1574DA842B7
:1088D80052D3574DA8424FD205884DF64260854283
:1088E8004AD15868C3F894009868C3F8980040F2D1
:1088F8000170A242154604D22E680432B6F1CD3F6B
:10890800F7D00022C3E91F22C3E92122C3E92322A9
:10891800641BDFF818C1424DDFF814E1DC648D42B6
:108928002DD8D3E91FC7D3E92165D3E923414FF0F7
:10893800000E013AD2B2FF2A3BD1BEF1000F05D09A
:10894800C3E91FC7C3E92165C3E92341B3F8583018
:10895800C3F308030C2B3AD8022B53D9DA1E092A81
:1089680050D8DFE802F030563F424F4F4F4F4F4C40
:108978000021C3E911112C494FF42060B9E755F8DB
:10898800044D6445CBD37445C9D2E607C7D5002644
:10899800284F57F8048FA045C1D00136062EF8D1CC
:1089A8002AB1013AD2B203EB8206F467B7E705228F
:1089B800F9E7E0464FF0010EBC4637462E462546FD
:1089C8000C464146B5E740F60120BDE8F0813B2B57
:1089D80018D1194B9B6913F0020F40F2025318BFCC
:1089E8001846F2E740F60320EFE740F2017240F63E
:1089F8000423B0F5206F14BF10461846E5E740F68B
:108A08000520E2E740F60722013B4B2B98BF1046B2
:108A1800DBE740F60220D8E700ED00E084370020CD
:108A28000810002000E100E00800002038420000A3
:108A380080BF0200FC3700200080015A0B4AB2F9BF
:108A480008301089002BB8BF80F06200B2F90A1014
:108A58004300138153890029BCBF83F4805383F0FA
:108A68000B03590051815840704700BF343900202A
:108A78004FF6FF732DE9F0479F4D0446A5F80835DA
:108A8800A5F80A35A5F80C3540F61D4398428EB076
:108A980008D8B0F5416F37D2182859D8152800F2F0
:108AA8009D805BD023460020944A954905F020FA22
:108AB80095F81035002B40F0C28007A809F034F86B
:108AC800022303A907A88DF81C300AF033FE0028FA
:108AD80040F0AA808B4907A80AF00CFF002800F094
:108AE800A380152C40F09880FFF7A8FF47F2315378
:108AF800B0FBF3F202FB130101F51C51103182485F
:108B080089B216F04AFB93E0A0F541630D2BC9D852
:108B180001A252F823F000BF9B8B00009B8B000042
:108B2800AD8A0000AD8A0000AD8A0000AD8A000061
:108B3800AD8A0000AD8A0000118C0000178C00007F
:108B4800618B0000618B0000618B0000618B00006D
:108B580040F606439842A5D16C4942E002F0D0FFA6
:108B68006B490246002005F0C3F9B5F80E35002B15
:108B780098D00026B146DFF8CC8198F8047008F147
:108B88000808C7B9FF22634BA5F80E7583F8302093
:108B980088E702F0B5FF5E490246002005F0A8F913
:108BA8005D4A5E4B5E49B4F5416F18BF1A46002016
:108BB80005F09EF976E758F808ACCDF800903246F3
:108BC8003B46B5F80E1507A823F078F93E443A4617
:108BD800504607A919F0C2F9F6B2CEE71628BBD15C
:108BE8005049002005F084F995F87833332B3FF489
:108BF80059AF03F0EF02432A3FF454AF19077FF44B
:108C080051AF03F0DFFF4DE700224749CFE70020CF
:108C1800464905F06DF945E7162C02D13A4816F099
:108C2800ADFA0EB0BDE8F087162CF7D0152CF8D1A8
:108C380003F019FE0EB0BDE8F04703F05DBE152C39
:108C480028D100202D4A3A4905F052F995F81035F7
:108C5800042B13D0082B11D095F83435DA070DD42E
:108C680007A810F04FFC18B9BDF81C309B0705D4B5
:108C780095F8103543F0100385F81035FFF7DEFE40
:108C88004FF4FA63B0FBF3F202FB1300C11889B288
:108C9800284836E795F8782302F00F02022AC0D058
:108CA800013B092B20D800202349144A05F020F95C
:108CB80095F8580521490130C0B285F858050BF0E0
:108CC80091FF60B100201E4905F012F905F09EFCE5
:108CD8000028A6D10EB0BDE8F04705F077BD0EB06C
:108CE800BDE8F04705F0CCBD40F61C400EB0BDE82D
:108CF800F04705F031BC00BF0810002080000300D9
:108D08003CC202008D0003001C150020DFC10200D8
:108D18008CC1020034390020E3C0020087C1020080
:108D2800A8C10200C8C10200F4C102001CC20200AE
:108D380053C202004015002066C2020062150020DE
:108D48007EC2020030000300FEE7002307B5084694
:108D580001A9019314F076FB019803B05DF804FBB8
:108D68000148FBF7EDBE00BF78150020002313B5BE
:108D780001936AB161B102FB01F401A9204614F024
:108D880061FB014620B9019810B1224621F0BBFAD7
:108D9800019802B010BD002303604360704730B5EE
:108DA800D0E9054553B394420FD0E2B9046974B9C8
:108DB800036983B3002918BF0D462B78DB0714D548
:108DC800AB8843B3A5EBC305F7E704698CB141B998
:108DD80004682378DB070CD5E3884BB104EBC304A4
:108DE800F7E70C46F5E79542E2D0C0E9054530BD06
:108DF8001C469542DCD0002ADAD0F6E7944208D027
:108E08008C4228BF0C46954207D08D4238BF0D468C
:108E1800EBE70C46F7E71D46E7E70D46E5E70023D5
:108E28002DE9F3478C4E0193D6F874350C469A42D7
:108E3800104604D239B912B101A914F003FB019804
:108E480002B0BDE8F08722B906F5AE60FBF778FE00
:108E5800F5E7EFF31187302383F3118834F8063CE4
:108E680007304FEAC30820F00705A845A1F108011B
:108E78007FD234F8020C002868D0C21A012A65D1C2
:108E880001EBC00211F83000C0075FD4B2F802C08D
:108E9800A8EB050919EBCC0958D4B9F11F0F38DD37
:108EA800C5F3CF03611924F8063C0133084624F8BA
:108EB800023CFFF770FF34F8020C4FEAD9038880B0
:108EC800D0884B8010B3B2F802C0A0EB0C0C1CFA8F
:108ED80083F39BB202EBC000CB80838000235F4802
:108EE800FFF75DFF1046FFF756FFD6F87835D6F83E
:108EF8007C252B44A3EB080393420194C6F87835EC
:108F080034D887F31188BFF36F8F98E70023CB809D
:108F1800E4E7D6F8800501330138C6F88005D08823
:108F2800634424F8063C68B1B2F802C0A0EB0C0C0C
:108F38001CFA83F39BB202EBC00024F8023C838046
:108F48000123CCE7002324F8023CF9E7284601A9CD
:108F580014F078FA0028D4D121464246019821F02D
:108F6800B5F921463D48FBF7EBFDCAE7C6F87C3565
:108F7800C7E76ED934F8020CA8EB050900F1FF3AEF
:108F8800AAEB030A002839D011F8303001EBC002EF
:108F9800DB0734D4BAF1000F31D1C5F3CF0361191F
:108FA80024F8063C0133084624F8023CFFF7F3FE98
:108FB800508800EBD90334F8020C4B808880D088A5
:108FC800D0B1B2F802C0A0EB0C0C1CFA83F39BB230
:108FD80002EBC000CB80838020480023FFF7DFFE30
:108FE8001046FFF7D8FED6F8783501941D44A5EB56
:108FF8000805C6F8785584E7C880EDE70246B9F158
:10900800270FF0D9C5F3CF03611924F8063C0133C3
:10901800084624F8023CFFF7BEFE34F8020C09F1BA
:10902800FF33DB084B8088808AB10AF1010A1AFAFB
:1090380083F39BB2CB809380D6F880350748013301
:10904800C6F8803500231A46FFF7A9FECBE7CA8089
:10905800F2E7019455E700BF0810002078150020BA
:1090680003464160EFF3108072B6044AD2F8F0125A
:109078001960C2F8F03222F05FBE00BF081000206D
:1090880038B50F4CD4F898357BB901234FF06042BE
:10909800C4F89835D2F8003E0A4943F48073C2F800
:1090A800003E04F29C50FFF7DBFF0025064B074803
:1090B800C4F8A835C4F8B05518F08CFE284638BD59
:1090C8000810002068390020115A0000AC15002053
:1090D8000146EFF3108072B6084AD2F8F03202F572
:1090E8003C722BB1994205D10B68136000230B60C9
:1090F80022F022BE1A461B68F3E700BF08100020C2
:1091080070470122014B83F8842370470810002020
:109118001A4B2DE9F041D3F8B044D4F8A4309A6C36
:10912800D20728D5012503F5005295649B699B0653
:1091380021D5EFF31187302383F3118894F8953004
:1091480003F0FF069BB9236E314620469B6898477B
:1091580084F89550EFF3108872B62846314621F00E
:109168009BFA0223404622F0E7FD84F8A13087F3FA
:109178001188BFF36F8FBDE8F08100BF0810002091
:10918800C6E7F8B504460D46EFF31186302383F39E
:10919800118890F89630A9B17BB990F8983063B1EE
:1091A800EFF3108572B60121084621F075FA012304
:1091B800284622F0C1FD84F8963086F31188BFF363
:1091C8006F8FF8BD002BF8D0EFF3108772B601202F
:1091D80021F062FA384622F0AFFD84F89650ECE7A9
:1091E8002DE9F04F00264FF4802B9FB0CDE90B6698
:1091F800CDE90666DFF8B8A30D96CDF828B00FAC18
:109208000AAD08960FCDCDF814A00FC405AD14AC67
:109218000FCD0FC4C84CC94D04F2FC584646C84B84
:10922800C84FEB63C84BDFF88C932B64C74B902275
:109238006B64C74B04F5C2600E97AB64CDF82490FD
:1092480021F061F81397CDF83CB00DF13C0CBCE867
:109258000F000FC6CDF850A03760CDF8609004F528
:10926800CC6614AF0FCF0FC60121202204F5D663B8
:10927800C4F84436C4F84C36C4F8983605F13C03B3
:10928800C4F85C36B34BC6F80090C4F8B434B24B9B
:10929800C4F8482684F89C1684F8501684F8941666
:1092A800C4F8B084C4F8B834AC4BC4F8BC34AC4B84
:1092B800C4F8C434AB4BC4F8C834AB4BC4F8C0349E
:1092C800EFF31182302383F3118894F86831C3B126
:1092D80082F31188BFF36F8F94F868317BB103A8CC
:1092E800FBF748F958B9039B03A884F81036FBF735
:1092F80041F9002836D094F8100618F029FD1025F9
:109308000EE184F8681182F31188BFF36F8F974AD2
:1093180084F8783184F8883184F8983184F8A83151
:1093280084F8B83184F8C83184F8D83184F8E83141
:109338005160FF21936093619162936313644FF0CE
:10934800004353654FF0FF32894B15201A654FF4DF
:109358000012884BC3F88021802283F81523FFF779
:1093680054F9B9E70127039B394684F87436824BD0
:1093780084F89206C4F8D434804B8148C4F8CC34BD
:10938800804B84F89D76C4F8D03484F89176FFF742
:10939800F8FE95F94D603046FAF75EFF3046FFF764
:1093A80034F994F81006FBF763F80028A7D1CDF834
:1093B8000480D4F848360093D4F80C36D4F8442600
:1093C800D4F8FC1594F8100614F068FC064600283A
:1093D80095D1302294F810364FF48011534342F25D
:1093E800640203F1A04303F58023995095F94C508A
:1093F8002846FAF731FF2846FFF707F96248C4F80C
:109408008C6618F0E7FC5E48FCF7E8FB94F8100659
:10941800FBF750F8054600287FF471AF5B4B5C4EB4
:10942800C4F8A4365B4B04220521C4F8A8363B4691
:10943800C4F8A06684F8AC76FEF78AFC06213B46A1
:1094480002222846FEF784FC40F6AA63DFF868810A
:10945800DFF868B1C8F80470736141F205034E4A39
:10946800B5600320F565F3603561F561F564CBF807
:109478004820B56535657565CBF80470C8F8047083
:10948800F360FEF751FD4FF4E112430103F5612348
:10949800B3FBF2F3414A203B02EAC30360224FF0D8
:1094A8000209CBF8082004211422C8F80850DFF874
:1094B80010A1F3613A4BB565CAF8AC95C8F85C10D1
:1094C8007561C3F8AC254FF4A022C3F8C4254FF446
:1094D800C0220320C3F8BC2549462B464A4684F8D7
:1094E800AD06FEF735FC2F4B0422CAF8B435042329
:1094F8003946C8F85C3048462B46FEF729FC2A4B0B
:10950800CAF8AC95CAF8B8350523234A84F8A55695
:1095180084F8A636CBF84820C8F8047075617361E2
:109528000122224B03A8CDE9032316F023F928468C
:109538001FB0BDE8F08F00BF0810002034390020AC
:109548003B42000024800550FD4A00000D4B0000FE
:10955800D97D0000E1B100001B5B0000915D0000B7
:109568004F420000554200001987000000000450D7
:109578000020045000E100E0774A00008B910000D1
:10958800041600205B420000B814002021000500EA
:109598000080055006030202FFFF0100F8FF7F006C
:1095A80000C00350030002000200010000C201C015
:1095B800020004003C8005500090055000A00550B2
:1095C80000D0035000232DE9F04FB448B44AB54DFC
:1095D800A1B0121AC5F87005C5F8742585F88C3540
:1095E800C5F89435C5F88405C5F88805FFF7D3FB99
:1095F8000123013AD2084280C5F8803508230EA815
:10960800C5F87835C5F87C35FEF7C6FE9DF83930C3
:10961800012B27D1A44A936DDE0313D4536B23F493
:10962800FF0323F4FE4343F4BC1343F4A0635363E2
:10963800136B23F4704343F440431363136B43F4F5
:10964800E06313639DF8383063B94FF000531B682B
:10965800964B1B68964B1B68964B1B68964B1B6872
:10966800964B1B68964AD2F8803043F00303C2F841
:109678008030EFF31183302282F3118895F8D026D9
:10968800002A40F09F83012285F8D02683F31188B1
:10969800BFF36F8F6FF0040350218A488A4C13F090
:1096A800800F03F1010240F0868323443D2A83F8AA
:1096B80000131346F3D1854AD2F84C3113F48023B2
:1096C80000F085834FF07E6292F89C3092F99C20DE
:1096D800002AB8BF3F234FF4D15102207C4A4F2BB8
:1096E80051627C4928BF4F234860012001F5805111
:1096F800DBB24860116911F48031FBD143F4807307
:10970800536140F201439360704B5160D3F84C2190
:10971800140340F15F83A3F5FE431C88B4F5807FF2
:1097280028BF8C246C4B6D4E95F9D8747360644BCC
:1097380027441B6F87F3080703F00703032B01D1A6
:1097480020F0B8FE14F04CF8032842D045F60E037A
:109758000221554AC2F88030614B9962012103F514
:1097680080539962936DD803FCD45E4B5E491361B4
:10977800936903F0004343EA074343EA042343F0B1
:10978800407343F03C039361136A23F00D031362A3
:10979800936A23F0330343F001039362424A936DC3
:1097A80031EA0303FBD102214D4B9962936D5900B5
:1097B800FCD4136923F4700343F4001313614FF0CE
:1097C8000042474B9A61022203F580539A620122B4
:1097D8009A623E4BD3F89840444B5A68012A00F0ED
:1097E800FD8213F0FDFF042807D1414814F00EF85C
:1097F800334A136F43F4806313673E4A24F040737F
:10980800D16811F006010591FAD1916893609068CA
:10981800434013F4F81F0ABF354B9160336013F0CF
:10982800DFFF042812D120F045FE13F0EFFF0120DE
:10983800FEF77AFB3049224A884294BF0020012073
:10984800136F23F4806343EA802313671F4B2B4A6B
:10985800D3F8C0301A4C23F040739360276F244824
:10986800C7F380277B1C85F8D13613F0CFFF236F11
:1098780043F480632367236F23F0070343F0020355
:10988800236720F017FE13F0C1FF236F23F48063D2
:1098980043EA87232367236F32E000BF703D00202F
:1098A800008001200810002000C000500040002067
:1098B8000080002000C0002000000120004001209E
:1098C8000080005000ED00E000E100E00080E00FC3
:1098D800000002500010025000F049023439002004
:1098E80000D000502008B00B0300014000C0015018
:1098F80000B4C4040000015080F0FA020040015A8C
:1099080023F450532367CA4BD3F8FC20D70140F106
:109918006B82D3F8FC2022F08072C3F8FC20D4F8C4
:10992800802022F0030242F00202C4F88020D3F81B
:10993800FC2042F08072C3F8FC20BE4BD3F82021F3
:1099480022F0070242F00102C3F82021D3F8802157
:1099580022F0030242F00102C3F88021D3F840212B
:1099680022F0030242F00202C3F84021D3F860213A
:1099780022F0030242F00202C3F86021D3F8402229
:1099880022F0030242F00202C3F84022D3F8002278
:1099980022F0070242F00202C3F80022D3F808229C
:1099A80022F0070242F00202C3F80822A24A536AD0
:1099B80023F0010353624FF0E022136943F00403DC
:1099C8001361EFF3108872B695F8D236002B40F089
:1099D800258203F00BF9002800F00F82404622F0A0
:1099E800ABF903F003F9F26D4FF40031501C04BFDA
:1099F800924BD3F894204FF0502308BFF2651967B3
:109A0800D10700F1998201210C46084604FA00F3B7
:109A1800134001F1010100F09182894B03EB4003EF
:109A2800B3F8B231DFF85CA2062BBAF80020BAF816
:109A3800021040F08A824FF20F03994240F082826E
:109A4800B2F5406F28BF4FF4C0624CF23C33A5F822
:109A5800E426AAF80230764A536A43F47023536224
:109A6800EFF308834FF0CD31764A043B934280F000
:109A78007D820222714B1A6703F0B8F818B16A2187
:109A8800714820F04BFD15F047FE4FF480501FF051
:109A980093FD4FF48053C5F8E806C5F8EC36002866
:109AA80000F06782D5F8E8361BB9DE21674820F058
:109AB80035FDD5F8EC36D5F8E82623F00103134434
:109AC800C5F8F026C5F8F436C5F8F826002A40F09F
