S01800007A69676265655F656E645F6465766963652E73333701
S214004000081000205D830000014E0200834200007D
S21400401083420000094E0200114E02008342000057
S2140040208342000083420000834200008342000077
S214004030154E0200CC43030083420000834200007A
S2140040408342000083420000834200008971000022
S2140040508342000083420000834200008342000047
S2140040608342000083420000A5CA0000A18E000023
S214004070318E00008342000083420000834200002D
S2140040808342000083420000834200008342000017
S21400409083420000A94400008342000083420000DF
S2140040A08342000061430000414300008342000059
S2140040B08342000083420000834200005DAF02009E
S2140040C03DCD020039CD0200C1A6020053CD02004C
S2140040D041CD02001DAF020045CD02005592020000
S2140040E09DAF02008342000083420000834200002E
S2140040F083420000834200008342000083420000A7
S2140041008342000083420000834200008342000096
S2140041108342000083420000834200008342000086
S2140041208342000083420000834200008342000076
S20800413083420000C1
S214004134F0B5114A114C124E00F00105E3695F0711
S21400414413D40DB9334213D103EA00078F4207D1C3
S2140041540B4A1A40002A0CBF00206FF00100F0BD85
S214004164013AEBD16FF00200F9E74FF0FF30F6E7C3
S2140041746FF00100F3E700BF80969800000003503C
S214004184020001002DE9F84F264D1646EB69012280
S21400419403F4803841F671330746EB63224BDFF8AD
S2140041A49090DA600EB9304629E007F5005404EA28
S2140041B409046F61E41BEB69B44228BF34465B070D
S2140041C42DD48B465BF8043B01EB040AAB61D34564
S2140041D40ED10423002121202B61FFF7A9FF70B91B
S2140041E42120FFF7A5FF50B959462744361BD9E7C7
S2140041F408210846FFF79CFF68B104232B610122BF
S2140042040A4BDA60B8F1000F03D00022A3F500537E
S214004214DA63BDE8F88F5BF8043BAB61D7E74FF091
S214004224FF30ECE70000035000100350002003505A
S20800423400E0FFFFA3
S2140042387047D0F8A4309A69120643BF5B6A00201C
S2140042480B701B20704780F89910704790F89900FB
S214004258704790F896007047002808DB012243094B
S214004268034900F01F008240603341F8232070475E
S21400427800E100E0704770477047FEE7BFF34F8FD6
S2140042880549064BCA6802F4E0621343CB60BFF3E5
S2140042984F8F00BFFDE700BF00ED00E00400FA0501
S2140042A870B50D4E451E013915F8014F2346325D8F
S2140042B802F00302012A11F8012F08BF04F12003B7
S2140042C8B05C00F00300012808BF2032981A01D11C
S2140042D8002CE9D170BD00BFCD8A03002DE9F0415E
S2140042E804460C264FF00108124D0CB314F00100DA
S2140042F80BD0002024F0010406FB00525768002F5C
S214004308F3D09168C0B2B847EFE7224601302028BC
S2140043184FEA520201D0D307F8D508FA00F20F2860
S21400432824EA0204E8D9103806FB0052B432E5E75E
S214004338BDE8F08108100020064BD3F82404D3F813
S214004348202403F50053104000F05530C3F820042D
S214004358C4E700BF00C00350064BD3F82404D3F8C4
S214004368202403F50053104000F0AA30C3F82004B8
S214004378B4E700BF00C0035010B50378EBB15A1E6F
S214004388D2B2022A18D80E498A5C4078C240D207B0
S21400439812D5EFF31184302181F3118801224B43A3
S2140043A843F2100103F1A043824003F570335A50DC
S2140043B884F31188BFF36F8F10BD7F22E5E700BF37
S2140043C81428030002461378002030B503B3591E9C
S2140043D8C9B2022917D80F4C615C5478E140C90766
S2140043E811D5EFF31185302181F311884B4303F182
S2140043F8A04303F570331B69E34003F0010085F31F
S2140044081188BFF36F8F93780BB980F0010030BD29
S2140044187F21E2E7142803000B4B93F8682162B16A
S21400442807280CD803EB001393F878314BB1012317
S214004438064A8340136400207047054870470548BD
S21400444870470548704700BF081000200010045049
S214004458028000F0018000F0078000F00B4B93F814
S214004468682162B107280CD803EB001393F878315B
S2140044784BB10123064A8340136400207047054861
S2140044887047054870470548704700BF0810002069
S21400449800200450028000F0018000F0078000F041
S2140044A81A4B2DE9F0411F6D5B6D1F4000D5FEE7E6
S2140044B801260025164CDFF8608037421CD0C8F865
S2140044C850602368C3B1A168284601316268A160BC
S2140044D89847637B012B0FD170B90E4B03EB45133E
S2140044E893F8F82160F3410283F8F82193F808223C
S2140044F860F3410283F808220135082D4FEA460684
S21400450804F11004D9D1BDE8F08100BF00000450C2
S21400451874110020081000200020045010B5EFF396
S2140045281184302383F3118800220E490B7B73B95C
S2140045380D49026001EB02120121C2F86C3182F8C3
S214004548781184F31188BFF36F8F184610BD0132B7
S214004558082A01F11001E9D184F31188BFF36F8F9F
S2140045680248F3E77411002008100020048000F0C9
S2140045784369406CDA1C1438B2FBF0F203EBC20352
S214004588CA1DB2FBF0F20333B3FBF0F30132023379
S21400459801EBC20100FB0310704738B505464469B5
S2140045A82146FFF7E5FF6A6CE31D143AB3FBF2F306
S2140045B8013304EBC304204438BD73B506460D46E4
S2140045C80024F36B01225B6901A928199847019B0F
S2140045D8013309D1736C043462196A405B421A428B
S2140045E8EFD0204602B070BD0024FAE7D01E009B2C
S2140045F842424241187E824211D11A688A420ED837
S2140046085A688A420BD35A6901325A61D3E90302BF
S21400461882423FBF986840F8221001321A61012092
S214004628704700234FF0FF3230B544689C4202D1F1
S2140046380023037230BD016801EBC30541F833203F
S2140046486A600133F2E70023F0B545689D4210D052
S2140046580468DF0054F8332004EBC306B2F1FF3FCA
S21400466808D0C2F31302914204D14FF0FF33E3514E
S2140046787360F0BD0133E9E710B5032A029C07D141
S214004688A26A5340626C5242134201D1FFF7DBFF25
S214004698012010BD0023F0B545689D4202D14FF0B9
S2140046A8FF300EE00468DE0054F83340671C09D07B
S2140046B8C4F31307B94205D1240D147003683344B4
S2140046C85868F0BD0133E8E773B5164600F10804EC
S2140046D80D46204609680DF10702FFF7DBFF032E9B
S2140046E805D16B68834202D12046FFF7ACFF012054
S2140046F802B070BD2DE9F043466886B30568984653
S2140047084FF0000CA946AE4655F83C400CF1010C9B
S214004718C4F31307013401D0B94217D066450EF129
S214004728080EF1D12F46002403E0A64207F1080739
S21400473812D055F8343001340133F6D1C1F31301E1
S21400474841EA0851C7E90012BDE8F08341EA08517A
S214004758CEE90012BDE8F083B8F1030F03D10123B8
S2140047680372BDE8F083002303E09E4209F10809BE
S214004778F5D055F833400133C4F30754032CF4D16D
S214004788C1F3130343EA0853C9E90032BDE8F083CE
S21400479808B508301346D1E90012FFF7ABFF012031
S2140047A808BD41F67132044B0020DA63012203F596
S2140047B80053DA60704700BF0000035041F67132BC
S2140047C80121044BDA6303F50052D1600022DA6354
S2140047D8704700BF0000035037B5054601F10C04CA
S2140047E8436901A9012220469847BDF804300122F2
S2140047F8009369462046AB69984703B030BD134B13
S21400480810B50446D3F8200100F00700042816D88F
S214004818DFE800F003090D111800012304B1206039
S21400482801B10B6010BD0A4B18680423F6E7084B65
S21400483858680323F2E728F0BBFB0523EEE70023BE
S2140048481846EBE702230348E8E700BF008000505D
S2140048581C3B0020002D31012DE9F84341F6713349
S2140048684FF001081E4D0446EF69EB631D4B00210F
S214004878C3F80C800223686121202B612AF06CFAA9
S214004888DFF86890064607F4803740B1C9F80C8010
S21400489807B1E96301360CD16E20BDE8F883212004
S2140048A82AF05AFAC9F80C8007B1EE63431CF3D015
S2140048B808B17120F1E70C4B9A6801230A3202F01E
S2140048C81F02934023F0030323449C4201D1002097
S2140048D8E3E754F8042B0132F7D03E20DDE700BFAB
S2140048E800000350001003500080E00F0020035023
S2140048F82DE9F04F80460F4615469A46044685B081
S214004908DDF83CB0DDF84490206808B3DBF80060BA
S214004918DAF800108E421BDA0E9B53F8261059B3AD
S214004928FFF7BEFC40BB61680136CBF80060087B29
S214004938FE281CD1109B0868CDE901B30E9B2A46B9
S214004948009301215346CDF80C90FFF7D1FF04469B
S2140049582B7843B999F800302BB97FB10123444628
S21400496889F800302B70204605B0BDE8F08F01238B
S214004978109A13702B70EBE70C34C5E73C46F2E749
S2140049880023F0B50B6013600646D0F8AC0278B189
S21400499896F8AC0060B1012406F1AC07D6F8AC0274
S2140049A8844210D306F1AC00B3F5007F10D3012083
S2140049B8F0BD0D6801350D60156801351560F85CA9
S2140049C801330A2802D0B3F5007FF2D30134E5E7B5
S2140049D8C15C0A29EBD00029E9D0116801330131FE
S2140049E81160E1E700280CDB01220649430900F0C4
S2140049F81F008240203341F82320BFF34F8FBFF3B8
S214004A086F8F704700E100E04FF06042D2F8803EBA
S214004A181B02FBD47047014638B508B9012038BDDB
S214004A28047D2046FFF7F8FC3023634303F1A043D8
S214004A3803F580232046DD6EFFF710FD094B9D42E7
S214004A481CBF042381F8A13091F8953091F8A10095
S214004A582BB1022803D1012381F8A130DFE704280F
S214004A68DCD1F8E7F41200203021037D02464B43E0
S214004A7803F1A04303F58023D86E07491B6F8842CD
S214004A8808D113F0020006D0106A136D1B1A58429C
S214004A985841704700207047F4120020D0F8A43020
S214004AA89A695206FCD50020D96370470122D0F8CF
S214004AB8A43019B103F58053DA64704703F5005340
S214004AC8DA649A6470474BF6EF6283B2002B08BF2D
S214004AD81346044A000C13814FF6CE2308BF184627
S214004AE8508170471C3B00202DE9F74F002900F045
S214004AF8DF80D0E9054EEFF3118B302383F311885E
S214004B0811F8086C31F806CCF30702D5BCF1000F93
S214004B1807D18BF31188BFF36F8F012003B0BDE870
S214004B28F08F8368D0F81090A3EBCC0331F8048C90
S214004B380093836009F10103A1F108050CF1010255
S214004B480361B8F1000F3AD0A5EBC803DF88B3F8C5
S214004B5802A001971F7806F00206FF0724D426BB9A
S214004B68019EA6EB0A06012E29D1009E0CF1020230
S214004B78A6F108075244C0F81090876031F8028CF6
S214004B88B8F1000F1DD111F8085C21F8068C68F3FF
S214004B98000501F8085C013A5A801A7868F30002A2
S214004BA81A700022DA803FE04EB111F8086C4244D1
S214004BB86FF3410601F8086C00269E80DEE72B4658
S214004BC8DCE705EBC809D0E900673744B9450ED3DA
S214004BD811F8085C013A6FF3000501F8085C002537
S214004BE821F8065C5A801A7865F30002D8E715F8AB
S214004BF838504E4615F0010530D011F8085C013AD9
S214004C086FF3000501F8085C002592B221F8065CEF
S214004C185A801A7865F300021A70C3F10702324404
S214004C28C2F3CF02DA80B280002C3FD0A3423DD335
S214004C386288002A08BF1C46BEF1000F06D07345DE
S214004C4804D8BEF80220002A18BF7346C0E90543F8
S214004C588BF31188BFF36F8F00205FE7A8EB0C0873
S214004C68B8F1010FC9D1B9F80270A9F80250174473
S214004C78B9F80620C2B109EBC20600250269013A56
S214004C8802618268083A826011F8082C21F8065CEE
S214004C986FF3000201F8082C1A785F8065F30002AB
S214004CA81A70002EB9D17CE71646E6E71C46C3E71D
S214004CB8222033E738B5202204460D460C30002162
S214004CC828F02BF94FF0FF33C4E90035A36038BD50
S214004CD810B54C1C0B460119045D222C03D07B2C06
S214004CE801D05C2C05D1D21A184428F042F90120CC
S214004CF810BD0020FCE710B50446AC3028F031F9AA
S214004D0804F1AB031A180020934200D110BD13F823
S214004D18011F0029FAD00A2908BF0130F4E72DE957
S214004D28F04705469146884628F01BF92A46064667
S214004D381346197801322029FAD0C9F800305C1BCE
S214004D4801236FF0404AC8F80030A64201D8002078
S214004D5814E02F5D29197B2F12D0222F2ED1D8F8D8
S214004D680030621C53442A4449F82320012C09D9F0
S214004D7811F8013C13F0DF0F04D02120BDE8F087BE
S214004D887D27F3E701342B5DBB4209D12B195B78ED
S214004D9813F0DF03F1D1222F00D12B550134D4E7CD
S214004DA85C2B07D1324621462846FFF791FF00289C
S214004DB8E3D0013E0134A642E5D8DEE75C2F08D1F1
S214004DC8324621462846FFF783FF0028D5D0013E05
S214004DD8E4E7202FE2D10022631C9E420A70DDD948
S214004DE8EA18EB5C202BD9D0D8F800300F2B05DC5E
S214004DF849F823200133C8F80030CFE71E20BDE766
S214004E0810B5044644EA010313F00303084609D123
S214004E18934201D1002010BD54F8231040F8231007
S214004E280133F5E72146920028F05AF8F2E71FB555
S214004E3800239A6AB2F5804F19D2146BB4F5804FE6
S214004E4815D201A8CDE902331AF08EFA039BDB03CC
S214004E580DD5029B1A0E0AD0012A03D1C3F30743C5
S214004E680A2B04D9236C04B0BDE81040184740F25A
S214004E78011004B010BDF8B50B780446302B0D466B
S214004E88164604D14B7803F0DF03582B10D0274F73
S214004E986A1E12F8011F91BB28460A2227F062F9FB
S214004EA8202C03460D462FD1B1FA81F040091BE0AD
S214004EB84A1C1E4912F8013F93B9284628F051F8B3
S214004EC804F00303032BA0F1020012D10134A4104E
S214004ED884420AD1A87837288CBF0020012003E036
S214004EE8CB5C13F04400E5D1F8BDCCBF0120002010
S214004EF8FAE7B0EBA40FD4BF01200020F4E77B5CF0
S214004F0813F00400C5D1EFE726B1084302D0013BF1
S214004F1861F100050122A240013A1A40002D08BF9F
S214004F289A420CBF01200020DEE700BFCD8A0300AE
S214004F380A7801382D2A0ABF0122002289189AE722
S214004F480FB407B504A951F8040B01911BF0E0FB58
S214004F58002003B05DF804EB04B0704770B5064651
S214004F680D4627F0FEFF04463046FFF7E9FF044EDD
S214004F78AC4200D370BD3046FFF7E2FF0134F7E7D6
S214004F88EB5903002DE9F84F044602216048FFF765
S214004F98E5FF1E212068FFF7E1FF63685868FFF702
S214004FA8CFFF5C48FFF7CCFF67683B7BFD2B12D82A
S214004FB8D7F808804FF0FF34404627F0D2FF064661
S214004FC8DFF84C91DFF8A8A1DFF864B10C3717F8C2
S214004FD8013BFF2B01D1BDE8F88F212B14D8212BDC
S214004FE814D8DFE803F0178C8884807C7874131351
S214004FF8131313131313706C6864605C58541313FC
S214005008131313131313504CFE2B34D006B101346C
S214005018414D02E006B10134404D02214846FFF7F3
S2140050289DFF1E214846FFF799FF5046FFF788FF69
S2140050385946284627F079FF3949002818BF2946D7
S2140050483848FFF77DFF3B78202B02D12B201FF036
S21400505847F83548FFF774FF4EB118F804301F2B91
S21400506805D018F804001F2801D0B4424BDB2948A5
S214005078FFF766FFABE706B101342C4DCDE706B166
S21400508801342B4DC9E7002EA1D001349FE706B1A5
S2140050980134284DC1E706B10134274DBDE706B1F6
S2140050A80134264DB9E706B10134254DB5E706B1FA
S2140050B80134244DB1E706B10134234DADE706B1FE
S2140050C80134224DA9E706B10134214DA5E706B102
S2140050D80134204DA1E706B101341F4D9DE706B106
S2140050E801341E4D99E706B101341D4D95E706B10A
S2140050F801341C4D91E706B101341B4D8DE706B10E
S21400510801341A4D89E71EF0EBFF0134A9E700BF0A
S214005118E3ED02001BEE020075ED02006FED0200E3
S214005128CCED0200594B0300B65B03007DED020090
S21400513883ED02008CED020093ED02009EED020066
S214005148A8ED0200B2ED02009DED0200A7ED0200F8
S214005158B1ED0200BAED0200BEED0200C6ED020097
S21400516869ED020070ED0200C5ED020068ED020070
S2140051784B5A030010B50446236803B910BD237ABA
S21400518813B92046FFF7FEFE0C34F5E72DE9F04F7D
S21400519800218346ADF5477D7C2207A8069127F0B7
S2140051A8BCFE584627F0DDFE46AA019026A95846BA
S2140051B8FFF7B5FD0446B0BB469827F0D2FEA046DA
S2140051C80546A1462746DBF89C6086BBB8F1010F6A
S2140051D840F0D18006A827F0C4FE05EB040805F1C8
S2140051E81803471B27EAE7750BEB08090DEB0304C2
S2140051F82A462146484627F073FE09F80560DBF87C
S2140052089050A845DBF8902000F3A580DBF89410B2
S2140052183A443944CBF89410CBF8902027443B1BEB
S214005228002B00F3A3800DF5477DBDE8F08FD6F878
S21400523808A0BAF1000F61D05F4417F8012B202AA6
S21400524814D000270C2303FB07F20AEB0203029391
S2140052585AF802300093002B4AD0269B99450493AF
S21400526846DC029B1A7A1AB17A1C2FE00134E4E76E
S21400527846AADBF8945052F829302D1B2A461846C1
S2140052880099039327F05BFE05900028ECD1009860
S21400529827F067FE029B01465868059A90F80CC0EE
S2140052A8BCF1FE0F16D1049B03F1FF3CE14527D065
S2140052B8D0F800A00398009227F053FE0134009A15
S2140052C804441BF8041019B109F101091746B9E797
S2140052D80134F6E78D42C7DC06A8029127F041FEA6
S2140052E8029908447B2819D9734906A81AF062F867
S2140052F85A46019B03EB0B018A4223D1366864E7C2
S2140053088D42E9DD14464FF00C0A05680AFB04F2E4
S214005318A95871B9A0440D46019CE9E7009906A86A
S2140053281AF048F8654906A808F101081AF042F884
S2140053389AE706A81AF03EF8604906A81AF03AF85E
S2140053480134E3E712F8010B0028D5D14FF020030B
S21400535802F8013CD0E71BF802001EF0C1FEDBF89D
S214005368902001350132CBF890204AE714F8010B5B
S2140053781EF0B6FE53E77FF756AF26AF80223146BB
S21400538838460DF58C7A27F0C8FD4FF40072314682
S214005398504627F0C2FD06AB1A464FF0010912F830
S2140053A8018BB8F1000F4AD118464AF829600093D5
S2140053B827F0D7FDBC464246009B06A913F801EB2A
S2140053C80DF58C7858F8046B864242D10132914527
S2140053D80CF801EBF2DADBF89060AE4240DB384AB4
S2140053E806A95B463748FFF7ABFD384627F0B9FDF8
S2140053F802462C442F44551B25EAE5720BEB0400A5
S21400540814440BEB04060BF190018E424FD90BF1B6
S214005418980188424BD2791E4619321A002A39DD7D
S21400542811F8012F00F8012BDBF890200132CBF899
S2140054389020DBF894200132CBF89420EDE7B8F101
S214005448200F06F1010604BF4AF8296009F1010990
S214005458A5E70E44B65C7645B4D00021B954BAE741
S214005468DBF8902001361BF802001EF039FEDBF848
S21400547890200132CBF89020AFE7DBF89010013A85
S2140054880131CBF89010DBF894100131CBF894106A
S214005498002AF2DC00223D440BF80420EB1B002B0C
S2140054A87FF7C1AE17F8010B1EF01AFEF6E739466D
S2140054B827F016FD2A46EBE7CEED0200EB5903006F
S2140054C8D3ED0200D6ED02002DE9F843D0E92456C4
S2140054D804460F46002294F89830012B07D10A2F6D
S2140054E807D1002384F898300020BDE8F88300F23E
S2140054F89F801B2F01D10223F4E70D2F0DD1012326
S21400550884F898300D201EF0EBFD0A201EF0E8FD0A
S21400551800230120C4E92433E7E74FF00008082FEA
S21400552884F8988034D1454530DDB5420FD13846E9
S2140055381EF0D6FD20201EF0D3FD013D38461EF095
S214005548CFFD013E04F80580C4E92456CCE7FBDA13
S21400555805F1FF3938461EF0C3FD04EB0903A6EB38
S21400556809026119184627F004FD04F8068001466A
S214005578013E4848FFF7E4FC35464D4501DC4D46FC
S214005588E2E708201EF0ACFD013DF6E7ACD0DBE70D
S2140055987F2F1CD1002EA7DDB542A5DA6319691C3A
S2140055A821441846721B27F0E4FC04F806800146DE
S2140055B83948FFF7C5FC0820013E1EF091FDB542AC
S2140055C8F9D1D4F89430013BC4F894308CE70A2F0C
S2140055D898D0092F03D12046FFF7D8FD84E7D4F8E2
S2140055E88C30013BB3427FF77FAFB54204EB05082A
S2140055F805F101090CDB384688F80070D4F89430B9
S214005608C4F890900133C4F894301EF069FD6BE737
S2140056184146721B04EB090027F0ABFC4046FFF737
S2140056288FFC0820013E1EF05BFDB542F9DDE2E77F
S214005638022B06D15B2F01D1032353E784F8982069
S21400564849E7032B7FF450AF413F84F89820032F97
S2140056583FF64AAFDFE807F002070A1601212046A0
S21400566800F01CF840E74FF0FF31F8E7B542BFF608
S2140056783BAF605D1EF034FDD4F890300133C4F8BB
S214005688903031E7002D7FF72FAF013D0820C4F892
S2140056989050BAE7DFED0200E545030073B50D4606
S2140056A80446FFF728FB6B1C25D1D4F8AC3213B19F
S2140056B8013BC4F8AC320025204627F052FCA8422D
S2140056C821D800212046D4F88C2027F026FC002379
S2140056D8C4E92433D4F8AC325BB16A46204601A943
S2140056E8FFF74EF928B1019D04F1AC06009BAB42CA
S2140056F814D802B070BD012DFBD1D4F8AC32834269
S214005708F7D20133D5E708201EF0EAFC20201EF069
S214005718E7FC08201EF0E4FC0135CDE7715D204665
S214005728FFF7D2FE0135E1E72DE9F0470F461546AB
S2140057380024DFF8709002F1040899F8F46202F188
S214005748090A5FFA88F8A24505D8013689F8F4628E
S2140057580020BDE8F087052C11D8DFE804F01D0806
S214005768030A0C0ED1201BF079FA0134EBE7404609
S214005778F9E70220F7E70020F5E73046F3E7AB1D28
S2140057889C420BD0EB1D9C4208D005F108039C42B6
S21400579806D0BB1F185DE6E75B20E4E75A20E2E781
S2140057A85D20E0E7081000202DE9F743D0E904342F
S2140057B804F17C07D0F80C900646013B1022002125
S2140057C83846D4F874809DB227F0A7FB0B4BC5F378
S2140057D80A0543EA0513C4E91F39012394F878003B
S2140057E884F88C30C4F884803A46054B009604F159
S2140057F864011EF013FE03B0BDE8F083000010300D
S2140058080D580000536910B514460022D3F89000CE
S21400581883F88C2028B10168C3F890100260FFF75F
S214005828C3FF63681BB100212046A2689847002082
S21400583810BD034693F89420084610B5FAB10A69D5
S214005848B2F5006F1DD8EFF31184302282F3118869
S21400585893F88C204B617AB103F19002D3F890301C
S2140058683BB90360106084F31188BFF36F8F002084
S21400587810BD1A461B68F3E7FFF796FFF3E70E20FE
S214005888F6E72120F4E7302337B5007D0DF1070150
S214005898434303F1A04303F58023DD6E1C6F29F014
S2140058A8EFF89DF8070040B9054B9D4203D184F0F8
S2140058B80204C4F3400003B030BD0120FBE700BF7C
S2140058C8F412002013B504460DF10701007D29F0F7
S2140058D8D7F89DF8073043B1236DD4E91202024485
S2140058E8934218BF184602B010BD3022237D53439A
S2140058F803F1A04303F58023DB6EEEE72DE9F04FB6
S214005908044685B0007D04F13806FEF785FD0021C3
S2140059181022304627F001FB4FF0300B4FF444734B
S214005928DFF80CA1207DDFF80C910AF53B7763873A
S2140059380BFB0093C4E90F77DB6EBB4204D105B0BE
S214005948BDE8F04FFEF78ABD0DF10F0129F098F873
S2140059589DF80F70002F62D12046FFF7B3FF9AF824
S21400596868218046237DEAB1072B1BD80AEB031A69
S2140059789AF87821B2B1EFF311818BF31188D9F830
S21400598834000BFB0399D9F8642081F31188BFF320
S2140059986F8F012101FA03F3034204BFC2F30A130F
S2140059A85F183D4604F11807102200213846D4F83F
S2140059B8109027F0B2FA3022237D013D5343C5F3F9
S2140059C80A052D0145F04075C4E9065903F1A043C0
S2140059D8C4F8208003F580231A6F94F82410520820
S2140059E862F3410184F82410196F94F8242027F0F4
S2140059F8030761F3000284F824201B6F626A9B0881
S214005A0863F39F0247F00207626267640094207D92
S214005A1832462146054B1EF001FD207D8FE794F89F
S214005A2844306FF3410384F84430EFE7415A0000EE
S214005A38081000200000045092F8543037B5144679
S214005A4833B1936D0BB1D06D9847002384F854306A
S214005A5894F89A301BB32046FFF715FFF8B1236E6B
S214005A68132120465B6898471025236E20461B683E
S214005A780DF10701984778B99DF8073003F0FD0245
S214005A88112A05D1A3F111025342534184F8A030DC
S214005A98013D15F0FF05E8D12046FFF72FFF00204F
S214005AA884F8540003B030BD2DE9F04F9B46002320
S214005AB8044689B005910392CBF80030DBF8005015
S214005AC8039B5E1B00F0A180059B5D1900F09D807E
S214005AD8207DFEF7A1FC2046FEF7C6FF8146207D06
S214005AE8FEF7BCFCB9F1000F40F08F802046FFF7A8
S214005AF8E9FE216D94F89A8088429CBFD4E9120387
S214005B08C018401A864228BF0646B8F1000F00F0B3
S214005B18AC80EFF311830493302383F31188374660
S214005B28D4F850A02046FFF7AEFE0AEB06029245D0
S214005B38D4F89C1072D1D4E912231344994208BFB2
S214005B48C4F89C20049B83F31188BFF36F8F8046AC
S214005B58207DFEF761FC0DF11F01207D28F090FFE7
S214005B682046FFF7AFFED4F850A08146504540F2D5
S214005B788A80A36CB5B29A457DD123691022049316
S214005B8804F128030021184627F0C7F93021049AA3
S214005B98013DC4E90B2A227DC5F30A054A432D01B7
S214005BA820F0030302F1A04245F0407543F00203DB
S214005BB802F58022A5621367236DD4E912123344D6
S214005BC80A44934208BF0B464B45236505D101237B
S214005BD8204684F85430FFF791FE207DFEF73EFC01
S214005BE894F89A303BB1B8F1000F04D0236E112117
S214005BF820465B689847DBF8003037B1039A3B4489
S214005C089342CBF80030FFF459AFDBF80030002B96
S214005C1814BF00201B2009B0BDE8F08F0AF1010A66
S214005C280AF1FF33994210D1C4F89CA01AF8013C37
S214005C38112B01D0132B14D1013FA3F111014B42B4
S214005C484B41C14684F8A03071E71AF8013C03F0CE
S214005C58FD01112906D1013FB9F1000F3FF467AFE6
S214005C68EBE7C14605F8013B61E73246284627F0D0
S214005C7837F937466CE7238DC3F30A12154465F3E4
S214005C880E13238598E79DF81F30207D93B930239F
S214005C98434303F1A04303F58023596E5A6EC1F3BC
S214005CA80A1122F4FF42314422F0700242EA01123D
S214005CB85A6681E7CDE900644A46236921681EF0E2
S214005CC845FB3022237D534303F1A04303F580238D
S214005CD85A6E22F48012EBE730B40446EFF31080D5
S214005CE872B6256885EA02030B406B40236030BC19
S214005CF828F0F0BEF8B504460D461F4616464AB1CB
S214005D0801238B403021184A01FB0022F7B141F2EB
S214005D181001535004EB4403072D4FF00F014FEAD0
S214005D28031316D8A80006FA00F281400F48184454
S214005D38FFF7D2FF4EB9012330210B4AAB4001FBD7
S214005D48042277B141F210015350F8BD42F2100117
S214005D58DFE7A5F10800800006FA00F28140044853
S214005D68E5E742F21001EFE700C0035004C0035015
S214005D780CC0035010B50446D0F8A4209369590601
S214005D88FCD5002394F8AA101A4694F8A900FFF741
S214005D98B1FF002394F8AC101A4694F8AB00FFF74E
S214005DA8A9FF94F8B130DA0707D5002394F8AE10A7
S214005DB81A4694F8AD00FFF79DFF94F8B1309B079C
S214005DC807D5002394F8B0101A4694F8AF00FFF7EA
S214005DD891FF0122D4F8A43003F5005103F5805052
S214005DE8CA6442600A205861002058614A6010BDA3
S214005DF8831E012B2DE9F0410C463DD801290ED80B
S214005E082D4B04221B6905210020C3F34013FFF71E
S214005E1871FF34B1294BD3F80403002849D1BDE8F3
S214005E28F0812649D1F80453002DF8D030272C7D70
S214005E38234E2046FEF7F0FA07FB0463DB6E01F5F7
S214005E483B718B4213D12846FFF71DFD40B3EFF395
S214005E58118187F3118801231A4AA3405365A2F5D6
S214005E6880529362536381F31188BFF36F8F204685
S214005E78BDE8F041FEF7F2BA8B1E012B0BD80128BD
S214005E88CDD8BDE8F04100220B4B05211B69104612
S214005E98C3F340132EE70029C3D00129BAD0BEE7C2
S214005EA82846FEF7E1FD0028E1D10123A340B364AC
S214005EB8DDE7BDE8F04121E500C0035008100020EA
S214005EC80000045000200450034630B100201A5C3D
S214005ED802B9704701308142F9D170474FF0FF3060
S214005EE87047FEE700207047002070470020704784
S214005EF82DE9F84389461746044600285ED00F2940
S214005F085ED80378002B49D0013BDBB2022B57D86A
S214005F182D4AD35C6278D340DB0751D52B4ED6F892
S214005F281053002D4ED1EFF31188302282F31188DA
S214005F38D6F8101309F1FF310E292078637832D885
S214005F48012142439940164457B341F21002B1501A
S214005F584A4600EB4000072B4FF00F014FEA0016A9
S214005F6823D89B001A489A4099403044FFF7B4FE5D
S214005F78B9F1000F0BD101223020637821789A40BE
S214005F88124B00FB0133B7B141F210015A5088F3A7
S214005F981188BFF36F8F2846BDE8F8837F23B9E7DB
S214005FA842F21002D3E72A46D3E7083B9B0009488B
S214005FB89A409940D9E742F21001E7E72225EAE736
S214005FC82125E8E70225E6E71428030000C0035069
S214005FD804C003500CC0035007B582780421B2FAF7
S214005FE882F2037852098DF8043043780DEB0100ED
S214005FF88DF80530FFF77CFF002003B05DF804FB42
S21400600810B520B3037803B3013BDBB2022B20D8CC
S214006018114AD35C4278D340DB071AD5EFF31184D4
S214006028302181F31188037801224B4341F2100195
S214006038407803F1A043824003F570335A5084F346
S2140060481188BFF36F8F002010BD7F23E2E7222060
S214006058FAE72120F8E700BF1428030010B520B39C
S214006068037803B3013BDBB2022B20D8114AD35C7A
S2140060784278D340DB071AD5EFF31184302181F339
S2140060881188037801224B4342F21001407803F14D
S214006098A043824003F570335A5084F31188BFF347
S2140060A86F8F002010BD7F23E2E72220FAE7212029
S2140060B8F8E700BF1428030007B503788DF8043006
S2140060C843788DF80530837801A823B9FFF7C6FF13
S2140060D803B05DF804FBFFF793FFF9E707B503780D
S2140060E88DF8043043788DF80530837801A823B9F5
S2140060F8FFF786FF03B05DF804FBFFF7AFFFF9E78D
S21400610873B5054690F842601C4630460DF1030309
S2140061181DF0EAFFEB6B012E5B690DD1324601A933
S21400612898479DF8033013B1BDF806300193BDF8C3
S2140061380430236002B070BD0122214602B0BDE8DB
S2140061487040184703460846EFF3108172B6034AB4
S214006158DB6BC2F82C13DB68184700BF081000205A
S2140061682DE9F0410646406882B0C0B10F46904619
S2140061780024336853F8345003EBC403C5F30752BE
S214006188C5F31301013504F1010406D05B683046F7
S214006198CDF80080B84710B170688442E9D302B0E1
S2140061A8BDE8F081036813F07E0F03D1406820F045
S2140061B87C40704713F078001CBF03F07F03D81F9D
S2140061C87047202A0B681EBF4FF0FF3191408B4363
S2140061D8590801F055315B1A03F033319B0803F078
S2140061E833330B44017803EB13130A444FF00131A1
S2140061F803F00F334B43A2EB1362027070472DE98E
S214006208F041054600244868EB6B86B00E4601222E
S2140062185B69029402A908309847A04695F8423070
S214006228012B40F08180632C03D9029806B0BDE8A4
S214006238F081612C08D805AB224631462846FFF780
S2140062485FFF9DF8143013B305AB22463146284647
S2140062588DF81080FFF754FF95F84230059F012B04
S21400626852D14FF6FF739F4200F09180082205A98D
S21400627804A8FFF7A6FF9DF81020C7F307239A4245
S21400628840F08580FFB2029B3B4402937FE095F87E
S2140062984230012B2ED122463146284603ABFFF763
S2140062A82FFF3146284604AB621CFFF729FF31460C
S2140062B8284605ABA21CFFF723FF102208230DEB88
S2140062C802010DF107008DF80730FFF77AFF10225C
S2140062D805A9FFF776FF039BDAB2002A50D19DF88E
S2140062E80720B2EB132F4BD1DDE9043203EB024350
S2140062F8029345E0302C29D942E09DF80720B2EBFE
S214006308134F3DD1049BF3E77B1C40D0102205A910
S2140063180DEB0200FFF755FF9DF81020C7F3074363
S2140063289A4234D1BFB2AEE7312C3FF67EAF8BD05F
S21400633805AB224631462846FFF7E2FEBDF8143084
S214006348002B81D195F84230012BA4D02246314645
S214006358284603ABFFF7D4FE3146284604AB621C3A
S214006368FFF7CEFE102320220DEB03010DF10700E8
S2140063788DF80730FFF725FF039B9AB2002ABCD09A
S21400638895F84230012B14BF012302231C44013424
S21400639844E737B5044600251B22011D0DF107000A
S2140063A88DF80750FFF70DFF63689DF80720B2EBDE
S2140063B8D36F03D123F0784003B030BD1B2204F11D
S2140063C808018DF80750FFF7FCFEA0689DF8073017
S2140063D8B3EBD06F0ABFC0434FF0FF3020F07840D1
S2140063E8EAE74BF29A22036810B5B2EB134F04465D
S2140063F813D19BB2012B15D1FFF7CBFF013011D07B
S2140064084FF6FF72E068B2EB104F4FEA10430BD11D
S21400641880B2C01A18BF012010BD013314BF042073
S2140064280320F9E70420F7E70220F5E7F0B505466C
S214006438002687B0EC69013CB44203D80C462046D7
S21400644807B0F0BD01B14C1E6F6C2868EB6B0522D7
S2140064585B6901A907FB0400984701A8FFF7C1FF7D
S2140064680128ECD921460136E4E70368F0B5CC1AD2
S214006478436C0646B4FBF3F4002587B0F369376827
S2140064885A1E9542706C06D3736C306803FB040082
S214006498143007B0F0BD0134B4FBF3F203FB12442A
S2140064A8F36B05225B6901A900FB0470984701A8F5
S2140064B8FFF797FF0128E7D90135DFE710B423F087
S2140064C8030422449B070A44436C18BF04325B4209
S2140064D882EA0104234202D05DF8044BC5E7104661
S2140064E85DF8044B70472DE9F04F144607460E46F4
S2140064F88BB00393C36B01225B6907A96068984752
S214006508FB6B01225B69304606A99847079B5D1C12
S21400651807D10022A360A275627500200BB0BDE803
S214006528F08F0122A2750022217E069D04EBC10190
S214006538CE610A846068C5F3D31CB04205F07F01BB
S2140065480CD14FF0FF33C4F800C02175A360237D3B
S214006558043B022B26D80023A375DEE794F814E044
S21400656820688E4503D1A0EB0C004242424103F05E
S2140065787F0001288CBF0020012001298CBF002144
S2140065880121884218BF002215F07E0FA27503F07D
S2140065987E0304D1002BDAD00023A375D7E7002B9F
S2140065A8D5D1F9E715F07E0F0FD1FB6B02223046E6
S2140065B85B6908A9984708A8FFF7F4FD237D032B15
S2140065C850D8DFE803F0140E045806A8F4E7CC22E7
S2140065D8237E04EBC3031A840123634A13449B797E
S2140065E80AE0237E04EBC30318840023F5E7237E22
S2140065F804EBC30318840123149A1370069A12F046
S2140066087E094FEAD26A227E37D1FB6B04EBC202C0
S2140066180AF003055B69B2F8208082F8225008A9C0
S21400662802223046984720220DF117000DEB020192
S2140066388DF81790FFF7C5FD1A2209A9FFF7C1FDC7
S2140066489DF81730099A4FF0080BB3EB926F0CBF02
S214006658012300236375637D33BB0023A3754FF0C6
S214006668000950E0227E013BDBB204EBC202052B98
S2140066781084C0D8B1E70223AFE7002504EBC202B6
S214006688B2F8208082F8225006A91B2208A88DF8A6
S2140066982050FFF796FD9DF820204FF0040BA2EB44
S2140066A80A0253425341D5E794F81690B9F1000F01
S2140066B8D5D0B8F1000F08D1D5B10123627EE375B5
S2140066C852BB9D4218D1657614E07B6C06EB0B0234
S2140066D8594286EA020008421CBF0021A175591ECD
S2140066E80A409B1A4345B8D3A37D002BE4D1B6E7EE
S2140066F8E37D43B94FF0000943465A4631463846CB
S214006708FFF7DCFEA060A27D237E5AB9012B27D8AE
S21400671801332376A07D01E7012DF4D0032DE9D1BE
S214006728A376E7E72269012B4244226118D8013391
S2140067382376039B002BEDD0E37D002BEAD0B9F13E
S214006748000FE7D1032DE5D0A1684B1CE2D0149BBF
S2140067582246009338460123FFF7C5FEA075D9E701
S2140067680023A375D6E700BF1428030013B50C460C
S214006778002121760093616813462246FFF7B3FE90
S21400678818B1E37D03B1A07EA075A07D02B010BD50
S2140067982DE9F743044616461F460D46DFF8748073
S2140067A8816AE36A8B421ED04B1C1CD0DFF86090CF
S2140067B84846FEF77FFA0122494620460DF10703B0
S2140067C8FFF7D4FF30B13B4620469DF80720104916
S2140067D8B04740B1D8F838134A1C07D0012D0DD061
S2140067E8E36A9942E4D103B0BDE8F083D8F83413DD
S2140067F82046FFF73AFE012D0146D2D1D8F83433A9
S21400680881EA0302636C5B421A42ECD1C9E700BF17
S21400681838130020081000202DE9F041D0E90A3688
S2140068289E42044686B028D11422C369456802FBF6
S2140068381355284606B0BDE8F0812068676C331A01
S214006848B3FBF7F3E26B07FB0300D2F8148001A949
S2140068580522C04701A8FFF7C4FD012804D0636CD1
S2140068681D44013B3340ED1A31462046FFF7FDFD37
S2140068780646A36AB342E0D1DBE70025F9E72DE92F
S214006888F04F0F469A46002389B004464FF0FF3172
S214006898104690468DF80B30FEF70CFAB7F5801FB9
S2140068A820D2394603AA04F10800FDF7F3FE451C7A
S2140068B8014605D1237CBBB92D2009B0BDE8F08F71
S2140068C84046FEF7F7F90122414620460DF10B0334
S2140068D8FFF74CFF0028EDD09DF80B308AF8003003
S2140068E80020EAE7B81CE5D1E66A711C2CD12046E0
S2140068F8616AFFF79BFD0646BB1C18BF0123DFF83D
S214006908C4B00093636A626C0193236803A902FB10
S2140069180639E36B484605225B6909F1140998476E
S214006928002549464B1C05D0636C81EA09025B4288
S21400693813420FD031462046FFF778FD019BB3423D
S2140069482FD085BB0646DDE72368F61A636CB6FBD0
S214006958F3F6D1E71A48FEF7ADF92046009A18492B
S2140069680DF10B03FFF702FF8446B8B1BA1C03D03B
S214006978DBF85C33BB4211D145469DF80B30DFF897
S21400698840E08AF80030BEE80F000FC5BEE80F00EA
S2140069980FC59EE8070085E807006546DBF8641320
S2140069A8C0E7002D88D0B7F5801F99D239469AF8E7
S2140069B80030D8F8042004F10800FDF79BFE8FE7A6
S2140069C864130020081000202DE9F3411F46002319
S2140069D80C46164605463B6058B390F8343053B319
S2140069E8B1F5801F29D2DFF858800121FFF7AAFBEE
S2140069F8214628460DF1070308F56272FFF73FFFA8
S214006A080446A0B99DF80730032B10D0022B0AD1F4
S214006A180123336004233B60E86B1DF027FD204606
S214006A2802B0BDE8F0813060D8F89833F3E72D243B
S214006A38F2E72124F3E71124F1E72924EFE700BF62
S214006A480810002073B50D46D11E4A421C461B7E10
S214006A584A419A4228D129682368994224D3636810
S214006A68994221D8124E0DF1070306F56D72FFF70D
S214006A7806FFC8B9D6F8B8236B689A4214D19DF8B1
S214006A880730DA1E53425341227E93420CD1636983
S214006A9801336361D4E90323934205D22968A268C7
S214006AA842F8231001332361012002B070BD00BFF5
S214006AB80810002070B50025044686B00562E36914
S214006AC8AB4202D8206A06B070BD666C2068E36BDD
S214006AD805225B6906FB050001A9984701A8FFF790
S214006AE880FC012898BF236A05F101059CBF013385
S214006AF82362E4E72DE9F04F97B0CDE908230F4667
S214006B080A69416CD31D1439B3FBF1F3013302EB68
S214006B18C302036B04469342C0F008820023DFF8E2
S214006B2880920C93E36A9C4819460693FEF7C2F8CF
S214006B38D7E903360393099B022B61D1CC2E40F08C
S214006B48E081089B002B2DD039462046FFF757FBDF
S214006B58656C069A6B1E13401290ED1AE36B0122C1
S214006B685B69786814A99847149B13F07E0F14BFC6
S214006B7804230823782E059351D9012200234FF0C9
S214006B88080A04923A68C9F86C63C9F85C23099A3B
S214006B98032A62D0022A14D0049A002A14BF0022BC
S214006BA8072212E0039B01221B684FF0080A129383
S214006BB83B680492C9F85C3308230593089BC9F818
S214006BC86C63049AC2F10202D2B289F870234FEAC3
S214006BD89A020E92069A019200220A920D92079243
S214006BE80B92606C019A411E1140421A002E36D054
S214006BF853449A423ED8236B1B1A0B44236359E12D
S214006C08656C069A6B1E1340782EA5EB030516D8FE
S214006C18FB7D7BB9089B002BA0D104230593331D6D
S214006C28AB4212D9B6B1082DA7D8042300229A463B
S214006C380492A7E7089B002B90D10823EEE7089B51
S214006C48002B8BD10823059397E7002304934FF076
S214006C58040A97E704230496F9E7099AB5E7524524
S214006C68C9D3B046019B53440293079B002B18BF19
S214006C78032314E0A2EB0A02019B9642B046534453
S214006C8828BF904696420293EFD90123D9F86C2381
S214006C9889F87333964243D1019AC9F8602307935B
S214006CA899F87333002B3DD099F874230199D31CB7
S214006CB809EBC303C3F8601307990132A3F864838A
S214006CC883F8661389F87423B8F1000F14D0099B6B
S214006CD8022B2BD10A9B7BB90D9B4344032B0BD964
S214006CE8E36B01229B69029812A99847054600287B
S214006CF840F01E8101230A9399F870333D68274AAD
S214006D08012B02EAC51528F07C4B40F290809A1EAB
S214006D18012A03D908F1070303F07F031D438CE01B
S214006D280223BCE7019BC9F86033CDE7089B002B1C
S214006D3838D1039BB8F1030F03EB080B28D9DDE91C
S214006D480201E36B4FEA98029B69984705460028BC
S214006D5840F0D18018F0030266D0039B28F00305A4
S214006D682B440393029B1D444FF0FF33039913A84B
S214006D78139326F0B5F8E36B284601229B6913A9FE
S214006D8898470546CDF80CB0002DB5D0029B76E0A6
S214006D984246029DE8E700BF6413002080FFFF0715
S214006DA80810002007F12003DDF808B00F93FB7DDC
S214006DB878689BB100233D7E0B9AD9B28D4211D9D3
S214006DC80F9903F1010C31F83310914226D9059931
S214006DD807EBC303D8690A44104403E00B9B059AE3
S214006DE813441844E36B01225B6913A99847139B65
S214006DF8012211930B9B584604330B93E36B11A99E
S214006E089B699847029B05464344A3EB0B03042B58
S214006E1807D9002872D10BF1040BC8E76346521A4B
S214006E28CBE7CDF808B0AFE7CDF80CB064E7079A23
S214006E3843EAC2632B4343F060454FF000038DF8E6
S214006E484C30049BCDE9145B002B49D0202214A9B2
S214006E5813A8FFF7B6F91A2215A9FFF7B2F99DF895
S214006E684C304BEA83631593E36B0E9A9B69019843
S214006E7814A99847019A051E0C9B18BF134652463C
S214006E880C93204643460199FFF718FB236B08F13D
S214006E980302A3EB0A0322F003029B1AC9F8640351
S214006EA82363002D44D10D9BA6EB080643440D939F
S214006EB8029B019320460199FFF7D7FA0023019019
S214006EC8002E7FF48EAE494A3968D2F8643304F14E
S214006ED80800E362D2F86023099BFDF70BFC11E07B
S214006EE81B2214A913A8FFF76CF99DF84C3045EA45
S214006EF8C3651495B8E7CDF80CB047E7CDF808B0E9
S214006F0844E77026304617B0BDE8F08F002650E0FC
S214006F183A69616CD31D1439B3FBF1F3013302EB04
S214006F28C302236B9342BFF4FDAD5DE01C26E9E780
S214006F383D2D59D104F1080301932668069B204687
S214006F48E16AD4F844A0A3EB060BFFF78EFAA26A10
S214006F58BBFBFAFB8242DBD0616CD9F8642301F1F3
S214006F68FF3C02EA0C0C226B0C9B521A624422630A
S214006F782268E0629A1AB2FBF1F8C345C6D10AFB4A
S214006F880866069B06F1140BB3EB0B0611D0E36BF1
S214006F98B20859469B6998478246E26A069B32447D
S214006FA8E262226B0198D21A5A442263FDF739FB33
S214006FB856462368616CE06B01FB0831FDF70CFC54
S214006FC82046FFF777FD2046FFF726FC2063002EB5
S214006FD89ED03A69616CD31D1439B3FBF1F30133C3
S214006FE802EBC3029042A8D22E468BE70810002078
S214006FF82DE9F3471E4643690446B34288461746BA
S2140070089DF8289072D300258DF807502046FDF786
S214007018C4FAD4F830A082450AD2236AB5EB430FE7
S21400702806D220460DF1070119F0E3F800285BD0D8
S2140070389DF80730012B04D120460DF1070119F001
S214007048D8F8B9F1030F06D031462046FDF790FA76
S214007058256B85424CD3274D4FF0FF3105F56D70F3
S214007068FDF728FE4B460022204605F56D71C5E95A
S214007078F076C5F8B483FFF73DFD236E06467BB36E
S2140070882046FDF78AFA636E256B03449D428CBF43
S21400709800230123854298BF002584F85030237CBE
S2140070A888BF2D1A656584F8583073B100212046CC
S2140070B81DF01EFA0121054620461DF019FAE26861
S2140070C82B18934294BF00239B1AE36594F850301C
S2140070D813B994F858301BB1236E04F15000984742
S2140070E8304602B0BDE8F08701358FE76226F7E73D
S2140070F81C26F5E7081000202DE9FF410F469046AC
S2140071081E46054698B390F8343093B3B1F5801F01
S21400711831D21A4C0221FFF715F8394628460DF1E8
S2140071280F0304F56272FFF7AAFB78B10123424603
S2140071380093394633462846FFF75AFF0446E86B5D
S2140071481DF094F9204604B0BDE8F0819DF80F3094
S214007158012BEBD1D4F898239642E7D13246414624
S214007168284619F009F904460028DFD1E7E7212464
S214007178E8E71124E6E72924E4E700BF0810002022
S21400718807B51F4890F8E03303B9FEE700236946C1
S21400719800F57A70CDE900331DF074F9E8B9194A9C
S2140071A8D2F84031D2F840211F2B4FF001030FD9F7
S2140071B8203A9340019A1A43019208236A461249D4
S2140071C81248FFF799FF124B124A1A60FDF756F855
S2140071D89340009A1A430092EFE72D28F3D1094A04
S2140071E8D2F84031D2F840211F2B4FF0010385BF5B
S2140071F8203A93409340019398BF0093DDE700BF81
S214007208081000200080004400710800F0130020D9
S214007218000000200B020FF070B586B00E4605463B
S2140072280392A0B390F834309BB3B1F5801F32D2E6
S2140072380221FEF787FF31462846184A0DF1170344
S214007248FFF71DFB044618B99DF81730032B0ED11F
S2140072580223314600932846CC2303AAFFF7C8FE2C
S2140072680446E86B1DF002F9204606B070BD022BF6
S2140072780BD10A492846FEF7C2FF03990246814207
S214007288EFD028461CF094FFEAE76124E9E72124BA
S214007298EAE71124E8E72924E6E700BF9013002070
S2140072A830B50C46054685B028B390F8343023B37D
S2140072B8B1F5801F23D20221FEF744FF0DF10F031C
S2140072C8214628460F4AFFF7DAFA034688B99DF89A
S2140072D80F20032A0DD00322214600920246284694
S2140072E8FFF786FE0446E86B1DF0C0F8204605B09A
S2140072F830BD2D24F7E72124F8E71124F6E72924E2
S214007308F4E700BF901300202DE9F341089C032AF8
S2140073181746266806D1237A012B25D0012002B00D
S214007328BDE8F081DFF8988030460DF1070308F5D0
S2140073386D72FFF7A4FA60600028ECD12568D8F8CB
S214007348B833A96AD5F844C04B40CCF100021340C4
S214007358207AE0D1012809D1E068D8F8C42302448D
S2140073687069824202D92374207CD8E72868EB6AC1
S2140073781B1A081AB3FBFCF3B0FBFCF083420BD1D4
S214007388706CF36A421E1340326B121A1344284676
S2140073983363FFF76AF8E862D8F8C423E36808326C
S2140073A81344E36001223B4604492068FFF7A2FB2A
S2140073B860600028AFD00020B1E700BFBC130020F3
S2140073C808100020032A2DE9F34106460D46174605
S2140073D81C4606D1237A012B24D0012002B0BDE832
S2140073E8F081DFF8608009680DF1070308F56D7213
S2140073F8FFF745FA60600028ECD19DF80720237A4D
S214007408032AE7D0D8F8B8136A689142E2D1012B6C
S2140074182969D4F80CC007D172690CEB01039342B2
S21400742802D92074207CD9E708316144E1603B46E4
S214007438012229463046FFF75DFB60600028C9D068
S2140074480020CBE708100020F0B504460D46466C31
S214007458E36B006887B005225B6901A906FB050097
S214007468984701A8FEF7BDFF012804D801A8FEF733
S21400747890FF07B0F0BD29462046FEF7D7FF064620
S214007488676C2068E36B05225B6901A907FB0600A9
S214007498984701A8FEF77DFF431CEAD0B54238BFDF
S2140074A80130E6E72DE9F0430646994689B00369B8
S2140074B808460F46904698470446002867D1D9F8EC
S2140074C804305B0A012B22464FEA530304F10104F9
S2140074D8F8D899F8035099F802302D03DB0203F424
S2140074E8006305F480551D43B9F800304FF00009D5
S2140074F8C3F30A0352032B4492B29D18294B0DF18D
S21400750807001B2228F0784402A9039302948DF8FA
S2140075180790FEF756FE9DF807306FEA054544EAE1
S214007528C36404946FEA08041B2224F0784402A972
S21400753802948DF80790FEF744FE9DF807306FEA30
S214007548154544EAC3644FF0FF33012205940693B9
S21400755807A9B369079507F1100098470122044662
S214007568B36905A907F1080098470122484518BFDE
S2140075780446B36904A9381D98470122484518BF30
S2140075880446B369384603A9984728B104463946DD
S2140075983046FDF721F901E0002CF8D1204609B065
S2140075A8BDE8F08301009AB238B50446456C006819
S2140075B804F1400305FB0101E06BFFF773FF054686
S2140075C82046FFF777FA284638BD2DE9F04F4FF0EA
S2140075D8FF334FF6FF720025044600F10808C0E99D
S2140075E809238BB0C3620562056340468B46FDF7E8
S2140075F818F82046FFF75EFA50BB4FF6FF79676A21
S21400760800264F4514BF3D460025E3699E4248D3F1
S2140076182046FFF74FFA18BB5E200BB0BDE8F08F88
S2140076282368E26B606C566900FB0530052205A9E5
S214007638B04705A8FEF7D5FE012828D129462046DA
S214007648FFF702FF421C29462046FFF7ADFF01352B
S214007658E3699D42E4D32046FFF72CFA0028CCD0F5
S21400766800254FF0FF394FF6FF734F462E46C4E904
S2140076780853E3699E423ED3A5EB0905012D5BD866
S2140076884FF6FF72636A934268D16720C5E70338EE
S214007698C0B20128DBD829462046FFF7D5FE0246A9
S2140076A8D1E7E26B2368606CD2F814C000FB0530A3
S2140076B8052205A9E04705A8FEF793FE022807D08D
S2140076C84F450DD10BF1010229462046FFF76CFF06
S2140076D8E3690135B5FBF3F2013603FB125594E76F
S2140076E829462046FFF7B0FEB0F1FF3F14BF02461A
S2140076F85A460132E8E7E26B2368606CD2F814C099
S21400770800FB0630052205A9E04705A8FEF769FE36
S21400771801280FD805A8FEF73CFEB84238BF6662B7
S214007728814528BF8146854238BF05460746236AF5
S2140077380133236201369CE74FF6FF730025636228
S214007748E3699D429CD2666C2068E36B06FB0500E5
S21400775805225B6905A998470135F1E7E26B666C77
S214007768206855696946052206FB0300A847626A31
S214007778616C23684E4D01FB02331433A3624FF04D
S214007788FF336FF00101E362204605AB05F56D7225
S214007798FFF775F8002851D1D5F8BC53294620467E
S2140077A8E562FCF70AFF206320B92046E16AFEF787
S2140077B85CFEE06229462046FEF757FE0546A36AA9
S2140077C89D423DD16569626CE91C143AB1FBF2F141
S2140077D8002705EBC1050335B5FBF2F53E46023535
S2140077E8E3699E423ED3AF4257D22046616AFEF70F
S2140077F81DFE4FF00008064604F1400A474512D819
S214007808626C2368694602FB0639E36B05225B69EE
S214007818484698476846FEF7BCFD53460246494622
S214007828E06BFFF73FFE31462046FEF7FFFD08F106
S2140078380108A8450646E1D36420EEE6A56AADE74A
S21400784829462046FCF7B9FE236B2946034406461C
S21400785823632046FEF709FE0546002EAFD1C4E98D
S2140078680B06ACE7626C236805A902FB0639E36BD6
S21400787805225B694846984705A8FEF7B2FD012829
S21400788809D8204609F11401FCF797FE636C143BEF
S214007898984208BF01370136A2E74046FCF7C1FE0A
S2140078A8002320461946034AFEF772FF0020B4E676
S2140078B808100020994700002DE9F8430025DFF856
S2140078C890810E46D8F850940446C8F8505418B913
S2140078D821252846BDE8F88390F8347007B30A686F
S2140078E803689A4240F0A9804A6843689A4240F082
S2140078F8A4808A6883689A4240F09F80CA68C368F2
S2140079089A4240F09A800A6943699A4240F0958004
S2140079188A69C36B9A4240F090804B698361D8E7C6
S21400792868223946856B25F0F8FA336804F10800B2
S21400793823607368A5636360336963617369A361D1
S214007948D6E90223C4E90223FCF76BFEB36904F107
S2140079584000E3639B68984720B9676C17B1636873
S214007968B3FBF7F794F84330E761002BB0D0002359
S214007978656C2366002D68D0002F66D02368B3FB9D
S214007988F5F205FB1233002B59D16768B7FBF5F6FD
S21400799805FB1676002E52D12046FCF7FEFDA3699D
S2140079A8043303449F424CD340F634726369CC3B9D
S2140079B8934248D8B5F5805F47D303212046FEF7A3
S2140079C8C1FBD4E90001E36B1B6898470546E36BE7
S2140079D80220DB6898472DB184F83460E06B1CF011
S2140079E845FD76E749462046FFF7EFFD642805463D
S2140079F804D149462046FFF7E8FD0546636C143B6C
S214007A08BDB9226A204602FB03F6FCF7C6FDA36949
S214007A18043303449E4223BF012384F83430D8F845
S214007A28543484F834502ABF01335A25C8F85434DD
S214007A38D4E7002384F83430D0E75D2549E7592594
S214007A4847E75A2545E75F2543E75B2541E700BF3B
S214007A5808100020014902482EE700BF283B0020F6
S214007A68F0130020002307B50093252853D8DFE835
S214007A7800F0135B172229344E6A767A8996ABB9DA
S214007A88525B565252765B222922345B6A22B94EE2
S214007A984E4E4E2222227A8925F0F8FA00903AE0D5
S214007AA825F0F4FA534BD3F89030C3F3046301334C
S214007AB8B0FBF3F0F2E725F007FB4E4B1B6FC3F362
S214007AC88023F4E725F000FB4A4B1B6FC3F38023A3
S214007AD80133B0FBF3F04008E0E70193454BD3F8D9
S214007AE8803103F00303022B0AD0032B0CD0012BA2
S214007AF803D1002101A8FCF782FE019B00930AE04F
S214007B0825F056FA0190F8E73B4B0193F5E700217C
S214007B186846FCF774FE009803B05DF804FB4FF067
S214007B28E0231B695A0702D525F0CEFAB6E7314B93
S214007B38D3F8400100F0030003282DD0003818BF02
S214007B480120C003AAE72B4BD3F8403103F0030308
S214007B58032B4BD0003B18BF0123DB03CEE7254B96
S214007B68D3F86031F2E7234BD3F8003203F007006E
S214007B78032811D05B0709D4013801288CBF0020E0
S214007B880120DEE71B4BD3F80832EFE7042824D1A0
S214007B9825F09AFA800A81E74FF47A707EE7154B4B
S214007BA8D3F8003103F00303022B06D0032B07D0CB
S214007BB8012B07D1114B5B68A0E74FF400439DE704
S214007BC80F4B9BE7002399E70A4BD3F8803003F066
S214007BD80303022BA8D0032B01D000205EE725F074
S214007BE8E7F95BE7034BD3F84032AFE74FF47A7315
S214007BF884E700BF00800050002D31011C3B0020A8
S214007C0880D5430238B5184CFF28A26A2AD8A36D37
S214007C1813F4803F18BF0121144B18BF9962022144
S214007C289962A56D15F08045FBD11149A36991F9B4
S214007C38581423F47F03014423F47F4381F3080197
S214007C4843EA002343EA0143A36102210948FEF7F9
S214007C5843F8A36DDB0303D501210648FEF73CF87D
S214007C68284638BD2125FBE700C0005000D000504C
S214007C780810002028C0005038B50F4CA26AA36D23
S214007C8813F4803F18BF01210C4B18BF99620221DC
S214007C989962A36D5900FCD402210948A569FEF72C
S214007CA81BF8A36DC5F30725DB0303D5012104489C
S214007CB8FEF712F8284638BD00C0005000D0005025
S214007CC828C00050014B83F858047047081000205D
S214007CD8014B93F9580470470810002001231348F5
S214007CE81349826A8B62836D03F00303032BFAD170
S214007CF802238B620D498B6D5800FCD40D488B6DA2
S214007D0830EA0303FBD10121094B1965A3F580531B
S214007D18996D8907FCD4996D8807FCD5996D8907F4
S214007D28FCD503210448FDF7D7BF00BF00C00050AC
S214007D3800D000500300010028C000500123F0B511
S214007D48C4B21F4DD1F800C0A3408F7ACC7A0E7B00
S214007D582B6505F5005545F820C0302568432405F1
S214007D6891F80DC044EA074400F1A04000F58020D1
S214007D7844EA465422F00302C0F860C0C4650267AD
S214007D88EFF3118485F311880E4A087A536500B11B
S214007D981364487A00B1936308798A7942EA004204
S214007DA8074882614D79CA79064942EA05428A61DE
S214007DB8054A4363936484F31188BFF36F8FF0BD5D
S214007DC80020045000100450000004500123C0B2E4
S214007DD88340EFF31180302282F31188054A516DF3
S214007DE821EA03015165936280F31188BFF36F8F10
S214007DF8704700BF000004500123C0B28340EFF371
S214007E081181302282F31188074AD06A184209D1B4
S214007E18526B93430CBF0120002081F31188BFF3F7
S214007E286F8F70470020F8E70000045070B5940084
S214007E38224605460E4626F08BFF431C0AD058B944
S214007E4822463146284625F058F8002814BF3D201B
S214007E58002070BD6E20FCE77120FAE7114321F080
S214007E68F8014904034B490C41F44021063043F815
S214007E782010704700800350021E30B54FF00000F7
S214007E880CBF0C25042547F60774084952B9831D0C
S214007E9851F82330234023B101308542F6D14FF004
S214007EA8FF3030BD00F11203F2E700BF0080035038
S214007EB83AB122F0030202F1A04202F5603209B993
S214007EC8106070470002FBE74FF0B0435A6812B1E3
S214007ED89A6A002AFAD17047054B5B69C3F3851284
S214007EE8827003F03F021B0B42700370704700BF9E
S214007EF800C0075007B5014601A8FFF7EDFF9DF83B
S214007F08063001220B804FF4807300204B80054B0F
S214007F189B680A3303F01F0302FA03F34B6003B0AF
S214007F285DF804FB0080E00F0020704747F6FF73FB
S214007F389A42F0B576D0022976D83C4B0B441B7B88
S214007F48022B71D83A4DDE0005EBC30393F85E7436
S214007F5893F85C04012F394638BF0121012818D14F
S214007F68002493F85F04401A844205D3012F2CBFDF
S214007F78C0190130C0B2F0BD011BD3F86054A0EBA5
S214007F88510135F911509542D4BF0C4601F1FF3026
S214007F98EAE7D3F860040028EDD0B0F90040A24222
S214007FA804DCB0F902409442B8BF144683883544CE
S214007FB8FF2B19BFC8232827B0F90630B0F9087078
S214007FC8A3EB04030CBF0122002293FBF7F395F8FA
S214007FD85D6413441BB29E4201DD002B01DA731E5A
S214007FE81BB24FF47A7C00EBC305EA88AD685F1CC9
S214007FF814FB02521D4622EAE2723BB25C329E42F3
S214008008B2FBFCF204DD00EBC307BF88BA42EAD92C
S21400801800EBC5039888904228BF1046884238BFB0
S2140080280846A7E7FF20A6E70020A4E714280300D1
S214008038081000200229F0B566D8344B0B44197B8B
S214008048022961D8324B03EBC10393F85C1401296B
S21400805817D193F85E4493F85F04012C214638BF85
S2140080680121904294BFC1EB0001C1EB0201001B45
S214008078CAB28242C8BF0022D3F8603433F912006D
S214008088F0BD002A3ED0D3F8601400293CD093F8FF
S2140080985E04904202D3B1F90200F1E793F85F4418
S2140080A8B1F900009442EBD993F85D448B88013C03
S2140080B8A3F1FF06734201F10405E4B2734101F12E
S2140080C80C07DEB2B44216D805EBC3034FF47A7534
S2140080D86A43B3F902405B68D21A04EBD47302EB26
S2140080E8630292FBF4F29042CADBB1F902009042B6
S2140080F8C6DC10B2C4E737F833C05E1C9445E3D339
S2140081083346DEE70348BBE70348B9E7142803000D
S214008118081000200CFEFFFF0080FFFF436813B91D
S214008128416070475B685A68012AFBD159607047FE
S214008138C3681944836853F8210030F8023B13607B
S21400814870472DE9F04F00254768C36885B0044698
S2140081582A4629460120FF1A0395A84603F06DFA19
S214008168FFB2EBB29F4244D998F80030A3F121023F
S214008178D1B2072925D9A3F1310013280BD8DFE897
S21400818800F0515A637D383838380A0A0A0A0A0A4B
S2140081980A0A0A0AAC9008F10108142B5FFA88F854
S2140081A825D833B3013B132B23D8DFE803F03B4431
S2140081B84D272222222222222222222222223B4427
S2140081C84D67232A15D8DFE802F02D363F19141418
S2140081D8141414141414141414142D363F591414A7
S2140081E814141414141414141414886C886C232986
S2140081F8E7D905B0BDE8F04F05F088BB0426E3686C
S214008208A2682B4452F82330D3F800905FFA89F01E
S214008218013E03F047FA16F0FF064FEA1929F5D192
S21400822801359EE7E368A2682B4452F82330187895
S21400823803F038FAF4E7E368A2682B4452F82330D0
S214008248188803F03BFAEBE7E368A2682B4452F879
S21400825823301E68B6F1807F09D2F0B203F022FA06
S214008268C6F3072003F01EFAC6F30740E0E72B46DE
S214008278012108202E4A05F02BF9BAE70426E36800
S214008288A2682B4452F82330D3F800905FFA89F09E
S214008298013E03F007FA16F0FF064FEA1929F5D152
S2140082A8BEE70026294603AA2046FFF741FF2149D4
S2140082B8DDF80CC0B1F87C2401EB020EF3B29C4545
S2140082C806F1010603D86244A1F87C24A8E710F852
S2140082D80390734483F87E94F0E7DFF858A0E368C9
S2140082E8A268BAF87C9443FA85F352F823B0C9F129
S2140082F85106B6B2584624F034FEFF2E28BFFF2695
S214008308C0B2F6B2864228BF064609F101030AF251
S2140083187E40324618445946019324F02AFE019BB3
S214008328D14489F87E641E44AAF87C6478E700BFC6
S214008338E4ED020008100020002807DB01234109AD
S214008348034A00F01F00834042F82130704700BF00
S21400835800E100E008B5284B83F30A886FF00101B6
S214008368264B274A9A60D3F8882042F47002C3F84E
S2140083788820244A116641F2FF7151660221C3F82B
S214008388D010BFF34F8FBFF36F8F08214FF44034E0
S214008398A3F54063C3F880110320D460FFF7CCFF31
S2140083A8194B1A481C611A4BC01A801016F06CFF3D
S2140083B8184B19498B4212D30020184B18498B4288
S2140083C818D308F025FC186850F82240586840F87A
S2140083D82240013298688242F5D30C33EAE700223D
S2140083E8F8E71C6844F8220001325C68A242F8D319
S2140083F80833E4E70022F8E70800002000ED00E074
S2140084080040000000A000440080004438420000FD
S21400841834410000589103006491030064910300FE
S2140084286491030008B5EFF3108072B6034BD3F8D7
S214008438D03426F04FFB184608BD00BF08100020B1
S2140084482DE9F0410468054694F89420002A5CD18A
S214008458EFF31183302181F31188C4E9162283F3E0
S2140084681188BFF36F8FFFF7DDFF854202D11046F4
S2140084781BF0F2FF236E264F93F910603046FBF789
S214008488EBFE3046FCF7AEFA236E93F911603046E1
S214008498FBF7E2FE3046FCF7A5FA97F86831207D30
S2140084A843B1072806D807EB001393F878310BB1C9
S2140084B8FFF78CFC207D1BF02FFFEFF3118830238D
S2140084C883F311880023134A167B76B90133082BE9
S2140084D802F11002F8D11520FCF784FAFF220E4BA1
S2140084E85E659A625E6087F8686188F31188BFF3F4
S2140084F86F8F0023C5E90033C5E90533EB60236EAB
S2140085082046BDE8F041DB6818470F20BDE8F0813B
S21400851808100020741100200000045013B5FFF75F
S21400852881FF40B1C46834B10122006801AB0DF187
S2140085380301A04718B14FF0FF3002B010BD9DF8F8
S2140085480300FAE707B58DF8071030B9FFF76AFF9A
S21400855818B9232003B05DF804FB4368002BF8D055
S21400856801220DF1070100689847F3E70B4601461C
S2140085781846E7E708B5302383F311884FF20F0251
S214008588034B18805A80BFF35F8FFBF777FE00BF58
S2140085986C3900206C4A2DE9F0416C4B55686C4CE0
S2140085A89D65516AD9656B49D1F800021866D1F8FD
S2140085B80412986B5966916A10F0040F9966D16A8E
S2140085C84FF00000D966116B1967516B5967D26B6B
S2140085D818659A67D3E90F1218BF11465E4A91428A
S2140085E85A655DD301F12000A04259D88869C5F3C1
S2140085F808055864CE69062D9E6455D1574DA84285
S21400860852D3574DA8424FD205884DF64260854250
S2140086184AD15868C3F894009868C3F8980040F29E
S2140086280170A242154604D22E680432B6F1CD3F38
S214008638F7D00022C3E91F22C3E92122C3E9232277
S214008648641BDFF818C1424DDFF814E1DC648D4284
S2140086582DD8D3E91FC7D3E92165D3E923414FF0C5
S214008668000E013AD2B2FF2A3BD1BEF1000F05D068
S214008678C3E91FC7C3E92165C3E92341B3F85830E6
S214008688C3F308030C2B3AD8022B53D9DA1E092A4F
S21400869850D8DFE802F030563F424F4F4F4F4F4C0E
S2140086A80021C3E911112C494FF42060B9E755F8A9
S2140086B8044D6445CBD37445C9D2E607C7D5002612
S2140086C8284F57F8048FA045C1D00136062EF8D19A
S2140086D82AB1013AD2B203EB8206F467B7E705225D
S2140086E8F9E7E0464FF0010EBC4637462E462546CB
S2140086F80C464146B5E740F60120BDE8F0813B2B25
S21400870818D1194B9B6913F0020F40F2025318BF99
S2140087181846F2E740F60320EFE740F2017240F60B
S2140087280423B0F5206F14BF10461846E5E740F658
S2140087380520E2E740F60722013B4B2B98BF104680
S214008748DBE740F60220D8E700ED00E06C390020B1
S2140087580810002000E100E0080000203842000071
S21400876840ED0200E43900200080015A0B4AB2F9B5
S21400877808301089002BB8BF80F06200B2F90A10E2
S2140087884300138153890029BCBF83F4805383F0C8
S2140087980B03590051815840704700BF1C3B00200E
S2140087A84FF6FF732DE9F047984C0546A4F8DC34DD
S2140087B8A4F8DE34A4F8E03440F61D4398428AB0A4
S2140087C808D8B0F5416F38D2182859D8152800F2BD
S2140087D89D805BD02B4600208D4A8E4905F0DEFE34
S2140087E894F80835002B40F0AE8003A803F0ECFBA5
S2140087F8022303A88DF80C3004F08EFB002840F006
S2140088089B80854903A804F091FB002800F094801B
S214008818152D40F09180FFF7A9FF47F23153B0FBC2
S214008828F3F202FB130101F51C5110317B4889B2A3
S21400883817F03DFC0AB0BDE8F087A0F541630D2BA4
S214008848C8D801A252F823F0CB880000CB880000D5
S214008858DD870000DD870000DD870000DD8700007B
S214008868DD870000DD870000238900003D890000C1
S2140088789188000091880000918800009188000087
S21400888840F606439842A5D1654942E002F0A4FFA7
S21400889864490246002005F081FEB4F8E234002B55
S2140088A898D00026B146DFF8B48198F8047008F12D
S2140088B80808C7B9FF225C4BA4F8E27483F828209E
S2140088C888E702F089FF57490246002005F066FE51
S2140088D8564A574B5749B5F5416F18BF1A460020F8
S2140088E805F05CFE76E758F808ACCDF800903246FE
S2140088F83B46B4F8E21403A826F0BAF93E443A46D2
S214008908504603A91BF0A2FEF6B2CEE71628BBD146
S2140089184949002005F042FE5CE794F8E4243AB1A1
S21400892846480AF0B0FA4FF47A73B0FBF3F2D2B2C4
S2140089384349D4E74349ECE7162D7FF47BAF374825
S21400894817F050FC76E7152D2CD10020304A3E490A
S21400895805F024FE94F80835042B13D0082B11D004
S21400896894F82C35DA070DD403A810F0AFFA18B926
S214008978BDF80C309B0705D494F8083543F010036F
S21400898884F80835FFF7F2FE4FF4FA63B0FBF3F20B
S21400899802FB1300C1182D4889B20AB0BDE8F0479B
S2140089A817F085BB94F8502502F00F02022A3FF410
S2140089B841AF013B092B21D800202549144A05F070
S2140089C8EDFD94F8510523490130C0B284F85105ED
S2140089D80CF068FA68B100201F4905F0DFFD06F0C4
S2140089E849FA00287FF426AF0AB0BDE8F04706F03B
S2140089F81DBB0AB0BDE8F04706F072BB40F61C4047
S214008A080AB0BDE8F04706F0EBB900BF0810002032
S214008A187428030037EF020081280300141500208D
S214008A28DAEE020087EE02001C3B0020E3ED0200AF
S214008A3882EE0200A3EE0200C3EE0200F01400204D
S214008A48EFEE020017EF02004EEF02003815002086
S214008A5861EF02005A15002079EF0200242803006F
S214008A68FEE7002307B5084601A9019316F06CFB3C
S214008A78019803B05DF804FB0148FCF735B800BF61
S214008A8870150020002313B501936AB161B102FB8B
S214008A9801F401A9204616F057FB014620B90198B3
S214008AA810B1224624F039FA019802B010BD00230E
S214008AB803604360704730B5D0E9054553B3944228
S214008AC80FD0E2B9046974B9036983B3002918BFE3
S214008AD80D462B78DB0714D5AB8843B3A5EBC30547
S214008AE8F7E704698CB141B904682378DB070CD52D
S214008AF8E3884BB104EBC304F7E70C46F5E7954269
S214008B08E2D0C0E9054530BD1C469542DCD0002AB7
S214008B18DAD0F6E7944208D08C4228BF0C46954235
S214008B2807D08D4238BF0D46EBE70C46F7E71D46E3
S214008B38E7E70D46E5E700232DE9F3478C4E01935A
S214008B48D6F86C350C469A42104604D239B912B19A
S214008B5801A916F0F9FA019802B0BDE8F08722B923
S214008B6806F5AD60FBF7C0FFF5E7EFF31187302396
S214008B7883F3118834F8063C07304FEAC30820F020
S214008B880705A845A1F108017FD234F8020C002891
S214008B9868D0C21A012A65D101EBC00211F830006C
S214008BA8C0075FD4B2F802C0A8EB050919EBCC09D8
S214008BB858D4B9F11F0F38DDC5F3CF03611924F86F
S214008BC8063C0133084624F8023CFFF770FF34F8E9
S214008BD8020C4FEAD9038880D0884B8010B3B2F8CD
S214008BE802C0A0EB0C0C1CFA83F39BB202EBC0008D
S214008BF8CB80838000235F48FFF75DFF1046FFF7B2
S214008C0856FFD6F87035D6F874252B44A3EB080320
S214008C1893420194C6F8703534D887F31188BFF3A9
S214008C286F8F98E70023CB80E4E7D6F87805013302
S214008C380138C6F87805D088634424F8063C68B13D
S214008C48B2F802C0A0EB0C0C1CFA83F39BB202EB42
S214008C58C00024F8023C83800123CCE7002324F8D4
S214008C68023CF9E7284601A916F06EFA0028D4D186
S214008C7821464246019824F033F921463D48FBF741
S214008C8833FFCAE7C6F87435C7E76ED934F8020C5E
S214008C98A8EB050900F1FF3AAAEB030A002839D029
S214008CA811F8303001EBC002DB0734D4BAF1000FFC
S214008CB831D1C5F3CF03611924F8063C01330846C1
S214008CC824F8023CFFF7F3FE508800EBD90334F88B
S214008CD8020C4B808880D088D0B1B2F802C0A0EBD6
S214008CE80C0C1CFA83F39BB202EBC000CB8083808B
S214008CF820480023FFF7DFFE1046FFF7D8FED6F819
S214008D08703501941D44A5EB0805C6F8705584E730
S214008D18C880EDE70246B9F1270FF0D9C5F3CF03AF
S214008D28611924F8063C0133084624F8023CFFF78C
S214008D38BEFE34F8020C09F1FF33DB084B8088804E
S214008D488AB10AF1010A1AFA83F39BB2CB809380A0
S214008D58D6F8783507480133C6F8783500231A461A
S214008D68FFF7A9FECBE7CA80F2E7019455E700BFF4
S214008D78081000207015002003464160EFF31080AD
S214008D8872B6044AD2F8F0121960C2F8F03225F02A
S214008D98A1BE00BF0810002038B50F4CD4F8903597
S214008DA87BB901234FF06042C4F89035D2F8003EF4
S214008DB80A4943F48073C2F8003E04F29450FFF761
S214008DC8DBFF0025064B0748C4F8A035C4F8A855AD
S214008DD81BF042FB284638BD08100020483B002000
S214008DE831570000A41500200146EFF3108072B634
S214008DF8084AD2F8F03202F53C722BB1994205D1F6
S214008E080B68136000230B6025F064BE1A461B68C7
S214008E18F3E700BF0810002070470122014B83F8D3
S214008E2800237047081000201A4B2DE9F041D3F8AC
S214008E380443D4F8A4309A6CD20728D5012503F544
S214008E48005295649B699B0621D5EFF31187302362
S214008E5883F3118894F8953003F0FF069BB9236EC8
S214008E68314620469B68984784F89550EFF310885B
S214008E7872B62846314624F019FA0223404625F0F1
S214008E8829FE84F8A13087F31188BFF36F8FBDE8F9
S214008E98F08100BF08100020C6E7F8B504460D4666
S214008EA8EFF31186302383F3118890F89630A9B132
S214008EB87BB990F8983063B1EFF3108572B601214C
S214008EC8084624F0F3F90123284625F003FE84F823
S214008ED8963086F31188BFF36F8FF8BD002BF8D055
S214008EE8EFF3108772B6012024F0E0F9384625F033
S214008EF8F1FD84F89650ECE72DE9F04F00264FF484
S214008F08802B9FB0CDE90B66CDE90666DFF8B8A3DF
S214008F180D96CDF828B00FAC0AAD08960FCDCDF853
S214008F2814A00FC405AD14AC0FCD0FC4C84CC94D62
S214008F3804F2F4584646C84BC84F6B63C84BDFF874
S214008F488C93AB63C74B9022EB63C74B04F5C160A9
S214008F580E972B64CDF8249023F0DFFF1397CDF8F7
S214008F683CB00DF13C0CBCE80F000FC6CDF850A085
S214008F783760CDF8609004F5CB6614AF0FCF0FC6F8
S214008F880121202204F5D563C4F83C36C4F84436DB
S214008F98C4F8903605F13403C4F85436B34BC6F813
S214008FA80090C4F80833B24BC4F8402684F89416E8
S214008FB884F8481684F88C16C4F80483C4F80C336E
S214008FC8AC4BC4F81033AC4BC4F81833AB4BC4F8EE
S214008FD81C33AB4BC4F81433EFF31182302383F3FE
S214008FE8118894F86831C3B182F31188BFF36F8F84
S214008FF894F868317BB103A8FBF790FA58B9039B3D
S21400900803A884F80836FBF789FA002836D094F8BF
S21400901808061BF081F910250EE184F8681182F322
S2140090281188BFF36F8F974A84F8783184F88831AF
S21400903884F8983184F8A83184F8B83184F8C831AF
S21400904884F8D83184F8E8315160FF219360936141
S2140090589162936313644FF0004353654FF0FF32F9
S214009068894B15201A654FF40012884BC3F88021E7
S214009078802283F81523FFF75FF9B9E70127039BDA
S214009088394684F86C36824B84F88A06C4F8283346
S214009098804B8148C4F82033804B84F89576C4F812
S2140090A8243384F88976FFF7F8FE95F9456030464C
S2140090B8FBF7D2F83046FFF73FF994F80806FBF7B7
S2140090C8ABF90028A7D1CDF80480D4F84036009331
S2140090D8D4F80436D4F83C26D4F8F41594F80806E0
S2140090E81BF034F90646002895D1302294F8083645
S2140090F84FF48011534342F2640203F1A04303F590
S2140091088023995095F944502846FBF7A5F8284639
S214009118FFF712F96248C4F884661BF09DF95E48AA
S214009128FCF7ECFB94F80806FBF798F905460028C8
S2140091387FF471AF5B4B5C4EC4F89C365B4B0422E5
S2140091480521C4F8A0363B46C4F8986684F8A47689
S214009158FCF7D0FD06213B4602222846FCF7CAFD4E
S21400916840F6AA63DFF86881DFF868B1C8F80470CB
S214009178736141F205034E4AB5600320F565F36056
S2140091883561F561F564CBF84820B56535657565D4
S214009198CBF80470C8F80470F360FEF763FC4FF46D
S2140091A8E112430103F56123B3FBF2F3414A203B86
S2140091B802EAC30360224FF00209CBF80820042114
S2140091C81422C8F80850DFF810A1F3613A4BB565C9
S2140091D8CAF8AC95C8F85C107561C3F8AC254FF4AE
S2140091E8A022C3F8C4254FF4C0220320C3F8BC2528
S2140091F849462B464A4684F8A506FCF77BFD2F4BC6
S2140092080422CAF8B43504233946C8F85C30484600
S2140092182B46FCF76FFD2A4BCAF8AC95CAF8B8354A
S2140092280523234A84F89D5684F89E36CBF84820B2
S214009238C8F80470756173610122224B03A8CDE952
S214009248032317F027FD28461FB0BDE8F08F00BFA0
S214009258081000201C3B00203B42000024800550DC
S214009268A54A0000B54A00007D5D000043AF000037
S2140092783B580000B15A00004F420000554200001B
S21400928849840000000004500020045000E100E07B
S2140092981F4A0000A38E0000FC1500205B42000059
S2140092A80C1300202100050000800550060302026A
S2140092B8FFFF0100F8FF7F0000C003500300020014
S2140092C80200010000C201C0020004003C800550F4
S2140092D80090055000A0055000D0035000232DE94B
S2140092E8F04FB448B44AB54DA3B0121AC5F868058D
S2140092F8C5F86C2585F88435C5F88C35C5F87C0521
S214009308C5F88005FFF7D3FB0123013AD20842804F
S214009318C5F87835082310A8C5F87035C5F874352B
S214009328FEF7DAFD9DF84130012B27D1A44A936D4C
S214009338D90313D4536B23F4FF0323F4FE4343F4F7
S214009348BC1343F4A0635363136B23F4704343F4D2
S21400935840431363136B43F4E06313639DF8403094
S21400936863B94FF000531B68964B1B68964B1B68F7
S214009378964B1B68964B1B68964B1B68964AD2F80A
S214009388803043F00303C2F88030EFF311833022B5
S21400939882F3118895F8C826002A40F09B8301229C
S2140093A885F8C82683F31188BFF36F8F6FF0040320
S2140093B850218A488A4C13F0800F03F1010240F0CE
S2140093C8828323443D2A83F800131346F3D1854A43
S2140093D8D2F84C3113F4802300F081834FF07E627C
S2140093E892F89C3092F99C20002AB8BF3F234FF48D
S2140093F8D15102207C4A4F2B51627C4928BF4F230B
S2140094084860012001F58051DBB24860116911F40B
S2140094188031FBD143F48073536140F2014393607B
S214009428704B5160D3F84C21120340F15B83A3F5CF
S214009438FE431C88B4F5807F28BF8C246C4B6D4F88
S21400944895F958647B60644B26441B6F86F30806C0
S21400945803F00703032B01D123F036FE15F040FF77
S214009468032842D045F60E030221554AC2F880303A
S214009478614B9962012103F580539962936DDB0372
S214009488FCD45E4B5E491361936903F0004343EADC
S214009498064343EA042343F0407343F03C039361D6
S2140094A8136A23F00D031362936A23F0330343F021
S2140094B801039362424A936D31EA0303FBD102210A
S2140094C84D4B9962936D5800FCD4136923F47003CE
S2140094D843F4001313614FF00042474B9A6102228F
S2140094E803F580539A6201229A623E4BD3F898405D
S2140094F8444B5A68012A00F0F98215F0F1FE042858
S21400950807D1414815F002FF334A136F43F48063CE
S21400951813673E4A24F04073D16811F0060106919D
S214009528FAD1916893609068434013F4F81F0ABF15
S214009538354B91603B6015F0D3FE042812D123F01A
S214009548C3FD15F0E3FE0120FEF78CFA3049224AE7
S214009558884294BF00200120136F23F4806343EAF7
S214009568802313671F4B2B4AD3F8C0301A4C23F0BE
S21400957840739360266F2448C6F38026731C85F8CC
S214009588C93615F0C3FE236F43F480632367236F41
S21400959823F0070343F00203236723F095FD15F035
S2140095A8B5FE236F23F4806343EA86232367236F7D
S2140095B832E000BF783F002000800120081000201D
S2140095C800C00050004000200080002000C000209E
S2140095D800000120004001200080005000ED00E05F
S2140095E800E100E00080E00F00000250001002508A
S2140095F800F049021C3B002000D000502008B00BA9
S2140096080300014000C0015000B4C404000001502B
S21400961880F0FA020040015A23F450532367C94BDE
S214009628D3F8FC20D20140F16782D3F8FC2022F060
S2140096388072C3F8FC20D4F8802022F0030242F09F
S2140096480202C4F88020D3F8FC2042F08072C3F8E7
S214009658FC20BD4BD3F8202122F0070242F001027D
S214009668C3F82021D3F8802122F0030242F0010239
S214009678C3F88021D3F8402122F0030242F0020208
S214009688C3F84021D3F8602122F0030242F0020218
S214009698C3F86021D3F8402222F0030242F0020207
S2140096A8C3F84022D3F8002222F0070242F0020252
S2140096B8C3F80022D3F8082222F0070242F002027A
S2140096C8C3F80822A14A536A23F0010353624FF0F5
S2140096D8E022136943F004031361EFF3108872B6AF
S2140096E895F8CA36002B40F0218203F0BFFD00280B
S2140096F800F00B82404625F0EDF903F0B7FD7A6DD1
S2140097084FF40031561C04BF914BD3F894204FF009
S214009718502308BF7A65D407196700F1988201219B
S2140097280C46084604FA00F3134001F1010100F064
S2140097389082884B03EB4003B3F87A31864E062BAB
S2140097483288718840F08C824FF20F03994240F0BD
S2140097588482B2F5406F28BF4FF4C0624CF23C33A7
S214009768A5F8DC267380774A536A43F4702353625D
S214009778EFF308834FF0CD31784A043B934280F0EC
S2140097887F820222724B1A6703F070FD18B16A21B5
S214009798734823F0CDFC17F04FFA4FF4005022F030
S2140097A815FD4FF40053C5F8E006C5F8E436002862
S2140097B800F06982D5F8E0361BB9DE21694823F047
S2140097C8B7FCD5F8E436D5F8E02623F001031344B1
S2140097D8C5F8E826C5F8EC36C5F8F026002A40F0A5
S2140097E85D82F8215F4823F0A3FC40F20333002291
S2140097F8042110A8ADF84030FCF77AFB00239B6ADA
S214009808594CB3F5804F63D21A68584B9A425FD1C9
S21400981895F8F48618F0FD085AD195F8E033002B31
S21400982800F05E82022385F8E03308224FF4803980
S2140098384F4B0320C3F880214E4BC3F80C90FEF71D
S2140098487BFD4D4BC3F8109000239B6ADB69984755
S21400985895F8E0338146012B40F0DE82FBF7E7FA05
S214009868013040F0CA82D5F80827444B1A66D5F866
S2140098780C275A66D5F81027C3F87021D5F8142790
S214009888D20700F1C682BB6D013313D194F8F436C3
S21400989883B93B4A5268D00748BFBB65394B5B68FB
S2140098A8D90744BF0123BB65374B5B68DA0744BF5B
S2140098B80223BB65D4F8F83683F31188BFF36F8F9D
